{"contracts/InvestmentClub.sol":{"InvestmentClub":{"abi":[{"inputs":[],"stateMutability":"nonpayable","type":"constructor"},{"inputs":[{"internalType":"uint256","name":"clubId","type":"uint256"},{"internalType":"address","name":"_address","type":"address"}],"name":"checkContri","outputs":[{"internalType":"bool","name":"","type":"bool"}],"stateMutability":"view","type":"function"},{"inputs":[{"internalType":"uint256","name":"clubId","type":"uint256"},{"internalType":"uint256","name":"proposalId","type":"uint256"}],"name":"closeProposal","outputs":[],"stateMutability":"nonpayable","type":"function"},{"inputs":[{"internalType":"uint256","name":"clubId","type":"uint256"}],"name":"contributeToClub","outputs":[],"stateMutability":"payable","type":"function"},{"inputs":[{"internalType":"string","name":"name","type":"string"},{"internalType":"string","name":"Cid","type":"string"}],"name":"createClub","outputs":[{"internalType":"uint256","name":"","type":"uint256"}],"stateMutability":"nonpayable","type":"function"},{"inputs":[{"internalType":"uint256","name":"clubId","type":"uint256"},{"internalType":"uint256","name":"amount","type":"uint256"},{"internalType":"address","name":"destination","type":"address"},{"internalType":"string","name":"description","type":"string"},{"internalType":"string","name":"Cid","type":"string"}],"name":"createProposal","outputs":[],"stateMutability":"nonpayable","type":"function"},{"inputs":[{"internalType":"uint256","name":"clubId","type":"uint256"},{"internalType":"uint256","name":"proposalId","type":"uint256"}],"name":"executeProposal","outputs":[],"stateMutability":"payable","type":"function"},{"inputs":[{"internalType":"address","name":"userAddress","type":"address"},{"internalType":"uint256","name":"clubId","type":"uint256"}],"name":"getBalanceByClub","outputs":[{"internalType":"uint256","name":"","type":"uint256"}],"stateMutability":"view","type":"function"},{"inputs":[{"internalType":"uint256","name":"clubId","type":"uint256"},{"internalType":"uint256","name":"proposalId","type":"uint256"},{"internalType":"string","name":"_Piece","type":"string"},{"internalType":"string","name":"_carsize","type":"string"}],"name":"getCarpiece","outputs":[],"stateMutability":"nonpayable","type":"function"},{"inputs":[{"internalType":"uint256","name":"clubId","type":"uint256"}],"name":"getClubById","outputs":[{"components":[{"internalType":"uint256","name":"clubId","type":"uint256"},{"internalType":"string","name":"name","type":"string"},{"internalType":"uint256","name":"memberCount","type":"uint256"},{"internalType":"uint256","name":"proposalCount","type":"uint256"},{"internalType":"uint256","name":"pool","type":"uint256"},{"internalType":"uint256","name":"clubcreatedAt","type":"uint256"},{"internalType":"uint256","name":"clubexpireAt","type":"uint256"},{"internalType":"string","name":"CID","type":"string"},{"internalType":"string","name":"posdiverification","type":"string"},{"internalType":"uint256","name":"DealId","type":"uint256"}],"internalType":"struct InvestmentClub.ClubInfo","name":"","type":"tuple"}],"stateMutability":"view","type":"function"},{"inputs":[],"name":"getMyClubs","outputs":[{"components":[{"internalType":"uint256","name":"clubId","type":"uint256"},{"internalType":"string","name":"name","type":"string"},{"internalType":"uint256","name":"memberCount","type":"uint256"},{"internalType":"uint256","name":"proposalCount","type":"uint256"},{"internalType":"uint256","name":"pool","type":"uint256"},{"internalType":"uint256","name":"clubcreatedAt","type":"uint256"},{"internalType":"uint256","name":"clubexpireAt","type":"uint256"},{"internalType":"string","name":"CID","type":"string"},{"internalType":"string","name":"posdiverification","type":"string"},{"internalType":"uint256","name":"DealId","type":"uint256"}],"internalType":"struct InvestmentClub.ClubInfo[]","name":"","type":"tuple[]"}],"stateMutability":"view","type":"function"},{"inputs":[{"internalType":"uint256","name":"clubId","type":"uint256"},{"internalType":"uint256","name":"proposalId","type":"uint256"}],"name":"getProposalById","outputs":[{"components":[{"internalType":"uint256","name":"id","type":"uint256"},{"internalType":"address","name":"creator","type":"address"},{"internalType":"uint256","name":"amount","type":"uint256"},{"internalType":"address","name":"destination","type":"address"},{"internalType":"string","name":"status","type":"string"},{"internalType":"string","name":"description","type":"string"},{"internalType":"uint256","name":"votesFor","type":"uint256"},{"internalType":"uint256","name":"votesAgainst","type":"uint256"},{"internalType":"uint256","name":"proposedAt","type":"uint256"},{"internalType":"uint256","name":"proposalExpireAt","type":"uint256"},{"internalType":"string","name":"Cid","type":"string"},{"internalType":"string","name":"PieceCid","type":"string"},{"internalType":"string","name":"carsize","type":"string"},{"internalType":"string","name":"posdiverification","type":"string"},{"internalType":"string","name":"storageProvider","type":"string"},{"internalType":"uint256","name":"DealId","type":"uint256"}],"internalType":"struct InvestmentClub.ProposalInfo","name":"","type":"tuple"}],"stateMutability":"view","type":"function"},{"inputs":[{"internalType":"uint256","name":"clubId","type":"uint256"}],"name":"getProposalsByClub","outputs":[{"components":[{"internalType":"uint256","name":"id","type":"uint256"},{"internalType":"address","name":"creator","type":"address"},{"internalType":"uint256","name":"amount","type":"uint256"},{"internalType":"address","name":"destination","type":"address"},{"internalType":"string","name":"status","type":"string"},{"internalType":"string","name":"description","type":"string"},{"internalType":"uint256","name":"votesFor","type":"uint256"},{"internalType":"uint256","name":"votesAgainst","type":"uint256"},{"internalType":"uint256","name":"proposedAt","type":"uint256"},{"internalType":"uint256","name":"proposalExpireAt","type":"uint256"},{"internalType":"string","name":"Cid","type":"string"},{"internalType":"string","name":"PieceCid","type":"string"},{"internalType":"string","name":"carsize","type":"string"},{"internalType":"string","name":"posdiverification","type":"string"},{"internalType":"string","name":"storageProvider","type":"string"},{"internalType":"uint256","name":"DealId","type":"uint256"}],"internalType":"struct InvestmentClub.ProposalInfo[]","name":"","type":"tuple[]"}],"stateMutability":"view","type":"function"},{"inputs":[{"internalType":"uint256","name":"clubId","type":"uint256"},{"internalType":"uint256","name":"proposalId","type":"uint256"},{"internalType":"uint256","name":"_dealId","type":"uint256"},{"internalType":"string","name":"_storage","type":"string"}],"name":"getdelandstorgae","outputs":[],"stateMutability":"nonpayable","type":"function"},{"inputs":[{"internalType":"address","name":"sender","type":"address"},{"internalType":"uint256","name":"proposalId","type":"uint256"},{"internalType":"uint256","name":"clubId","type":"uint256"}],"name":"hasVoted","outputs":[{"internalType":"bool","name":"","type":"bool"}],"stateMutability":"view","type":"function"},{"inputs":[{"internalType":"uint256","name":"clubId","type":"uint256"}],"name":"isClubFull","outputs":[{"internalType":"bool","name":"","type":"bool"}],"stateMutability":"view","type":"function"},{"inputs":[{"internalType":"uint256","name":"clubId","type":"uint256"}],"name":"isClubIdExist","outputs":[{"internalType":"bool","name":"","type":"bool"}],"stateMutability":"view","type":"function"},{"inputs":[{"internalType":"address","name":"memberAddress","type":"address"},{"internalType":"uint256","name":"clubId","type":"uint256"}],"name":"isMemberOfClub","outputs":[{"internalType":"bool","name":"","type":"bool"}],"stateMutability":"view","type":"function"},{"inputs":[{"internalType":"uint256","name":"proposalId","type":"uint256"},{"internalType":"uint256","name":"clubId","type":"uint256"}],"name":"isProposalIdExist","outputs":[{"internalType":"bool","name":"","type":"bool"}],"stateMutability":"view","type":"function"},{"inputs":[{"internalType":"uint256","name":"clubId","type":"uint256"},{"internalType":"uint256","name":"proposalId","type":"uint256"}],"name":"isVotingOn","outputs":[{"internalType":"bool","name":"","type":"bool"}],"stateMutability":"view","type":"function"},{"inputs":[{"internalType":"uint256","name":"clubId","type":"uint256"}],"name":"isclubopen","outputs":[{"internalType":"bool","name":"","type":"bool"}],"stateMutability":"view","type":"function"},{"inputs":[{"internalType":"uint256","name":"clubId","type":"uint256"}],"name":"joinClub","outputs":[],"stateMutability":"nonpayable","type":"function"},{"inputs":[{"internalType":"uint256","name":"clubId","type":"uint256"}],"name":"leaveClub","outputs":[],"stateMutability":"nonpayable","type":"function"},{"inputs":[],"name":"listClubs","outputs":[{"components":[{"internalType":"uint256","name":"clubId","type":"uint256"},{"internalType":"string","name":"name","type":"string"},{"internalType":"uint256","name":"memberCount","type":"uint256"},{"internalType":"uint256","name":"proposalCount","type":"uint256"},{"internalType":"uint256","name":"pool","type":"uint256"},{"internalType":"uint256","name":"clubcreatedAt","type":"uint256"},{"internalType":"uint256","name":"clubexpireAt","type":"uint256"},{"internalType":"string","name":"CID","type":"string"},{"internalType":"string","name":"posdiverification","type":"string"},{"internalType":"uint256","name":"DealId","type":"uint256"}],"internalType":"struct InvestmentClub.ClubInfo[]","name":"","type":"tuple[]"}],"stateMutability":"view","type":"function"},{"inputs":[{"internalType":"uint256","name":"clubId","type":"uint256"},{"internalType":"uint256","name":"proposalId","type":"uint256"}],"name":"proverifiydocs","outputs":[],"stateMutability":"nonpayable","type":"function"},{"inputs":[{"internalType":"uint256","name":"clubId","type":"uint256"}],"name":"verifiydocs","outputs":[],"stateMutability":"nonpayable","type":"function"},{"inputs":[{"internalType":"uint256","name":"clubId","type":"uint256"},{"internalType":"uint256","name":"proposalId","type":"uint256"},{"internalType":"bool","name":"vote","type":"bool"}],"name":"voteOnProposal","outputs":[],"stateMutability":"nonpayable","type":"function"}],"evm":{"bytecode":{"linkReferences":{},"object":"608060405234801561001057600080fd5b506000600181905550614f45806100286000396000f3fe6080604052600436106101815760003560e01c8063647e598b116100d1578063ab7ca3481161008a578063e154274211610064578063e1542742146105d2578063e7613ea8146105fb578063eec8e0db14610624578063f9f2bb3c1461066157610181565b8063ab7ca3481461051b578063c3741fed14610558578063c46708781461059557610181565b8063647e598b146103fd5780636764fd481461042657806382b7661b14610463578063890e24561461048c57806389972a32146104c95780639d9087b9146104f257610181565b8063288509b41161013e5780634d7f75c3116101185780634d7f75c314610355578063549710be1461037e57806354a2e233146103a95780635ff847fb146103d257610181565b8063288509b4146102bf57806334fa3d83146102db57806335a1930f1461031857610181565b8063058694a9146101865780630ee29404146101c35780631063fd191461020057806314204fc6146102295780631ab76712146102665780632443c34414610282575b600080fd5b34801561019257600080fd5b506101ad60048036038101906101a89190613554565b61069e565b6040516101ba91906138ae565b60405180910390f35b3480156101cf57600080fd5b506101ea60048036038101906101e591906138fc565b610ca0565b6040516101f7919061396a565b60405180910390f35b34801561020c57600080fd5b5061022760048036038101906102229190613aba565b610d1f565b005b34801561023557600080fd5b50610250600480360381019061024b9190613b3d565b610d72565b60405161025d9190613cff565b60405180910390f35b610280600480360381019061027b9190613b3d565b611312565b005b34801561028e57600080fd5b506102a960048036038101906102a49190613d21565b611625565b6040516102b6919061396a565b60405180910390f35b6102d960048036038101906102d49190613554565b61168f565b005b3480156102e757600080fd5b5061030260048036038101906102fd9190613d61565b61197e565b60405161030f919061396a565b60405180910390f35b34801561032457600080fd5b5061033f600480360381019061033a9190613da1565b611a2d565b60405161034c9190613e28565b60405180910390f35b34801561036157600080fd5b5061037c60048036038101906103779190613554565b611bf4565b005b34801561038a57600080fd5b50610393611d2e565b6040516103a09190613fed565b60405180910390f35b3480156103b557600080fd5b506103d060048036038101906103cb919061403b565b612014565b005b3480156103de57600080fd5b506103e76122eb565b6040516103f49190613fed565b60405180910390f35b34801561040957600080fd5b50610424600480360381019061041f919061408e565b6125b6565b005b34801561043257600080fd5b5061044d60048036038101906104489190613554565b612619565b60405161045a919061396a565b60405180910390f35b34801561046f57600080fd5b5061048a60048036038101906104859190613554565b61263b565b005b34801561049857600080fd5b506104b360048036038101906104ae9190613d61565b6126eb565b6040516104c09190613e28565b60405180910390f35b3480156104d557600080fd5b506104f060048036038101906104eb919061412d565b612756565b005b3480156104fe57600080fd5b5061051960048036038101906105149190613b3d565b612b1f565b005b34801561052757600080fd5b50610542600480360381019061053d9190613b3d565b612b9c565b60405161054f919061396a565b60405180910390f35b34801561056457600080fd5b5061057f600480360381019061057a9190613554565b612bd7565b60405161058c91906142c8565b60405180910390f35b3480156105a157600080fd5b506105bc60048036038101906105b79190613554565b612e51565b6040516105c9919061396a565b60405180910390f35b3480156105de57600080fd5b506105f960048036038101906105f49190613554565b612e73565b005b34801561060757600080fd5b50610622600480360381019061061d9190613b3d565b61304a565b005b34801561063057600080fd5b5061064b60048036038101906106469190613b3d565b613281565b604051610658919061396a565b60405180910390f35b34801561066d57600080fd5b5061068860048036038101906106839190613554565b6132b8565b604051610695919061396a565b60405180910390f35b60606106a982612619565b6106e8576040517f08c379a00000000000000000000000000000000000000000000000000000000081526004016106df90614347565b60405180910390fd5b600080600084815260200190815260200160002090506000816008015467ffffffffffffffff81111561071e5761071d61398f565b5b60405190808252806020026020018201604052801561075757816020015b61074461336b565b81526020019060019003908161073c5790505b509050600080600190505b83600801548111610c945760008460070160008381526020019081526020016000209050604051806102000160405280826000015481526020018260010160009054906101000a900473ffffffffffffffffffffffffffffffffffffffff1673ffffffffffffffffffffffffffffffffffffffff168152602001826002015481526020018260030160009054906101000a900473ffffffffffffffffffffffffffffffffffffffff1673ffffffffffffffffffffffffffffffffffffffff16815260200182600401805461083590614396565b80601f016020809104026020016040519081016040528092919081815260200182805461086190614396565b80156108ae5780601f10610883576101008083540402835291602001916108ae565b820191906000526020600020905b81548152906001019060200180831161089157829003601f168201915b505050505081526020018260050180546108c790614396565b80601f01602080910402602001604051908101604052809291908181526020018280546108f390614396565b80156109405780601f1061091557610100808354040283529160200191610940565b820191906000526020600020905b81548152906001019060200180831161092357829003601f168201915b505050505081526020018260060154815260200182600701548152602001826008015481526020018260090154815260200182600a01805461098190614396565b80601f01602080910402602001604051908101604052809291908181526020018280546109ad90614396565b80156109fa5780601f106109cf576101008083540402835291602001916109fa565b820191906000526020600020905b8154815290600101906020018083116109dd57829003601f168201915b5050505050815260200182600b018054610a1390614396565b80601f0160208091040260200160405190810160405280929190818152602001828054610a3f90614396565b8015610a8c5780601f10610a6157610100808354040283529160200191610a8c565b820191906000526020600020905b815481529060010190602001808311610a6f57829003601f168201915b5050505050815260200182600c018054610aa590614396565b80601f0160208091040260200160405190810160405280929190818152602001828054610ad190614396565b8015610b1e5780601f10610af357610100808354040283529160200191610b1e565b820191906000526020600020905b815481529060010190602001808311610b0157829003601f168201915b5050505050815260200182600d018054610b3790614396565b80601f0160208091040260200160405190810160405280929190818152602001828054610b6390614396565b8015610bb05780601f10610b8557610100808354040283529160200191610bb0565b820191906000526020600020905b815481529060010190602001808311610b9357829003601f168201915b5050505050815260200182600e018054610bc990614396565b80601f0160208091040260200160405190810160405280929190818152602001828054610bf590614396565b8015610c425780601f10610c1757610100808354040283529160200191610c42565b820191906000526020600020905b815481529060010190602001808311610c2557829003601f168201915b5050505050815260200182600f0154815250848481518110610c6757610c666143c8565b5b60200260200101819052508280610c7d90614426565b935050508080610c8c90614426565b915050610762565b50819350505050919050565b6000806000838152602001908152602001600020600701600084815260200190815260200160002060100160008573ffffffffffffffffffffffffffffffffffffffff1673ffffffffffffffffffffffffffffffffffffffff16815260200190815260200160002060009054906101000a900460ff1690509392505050565b6000806000868152602001908152602001600020600701600085815260200190815260200160002090508281600f01819055508181600e019080519060200190610d6a929190613414565b505050505050565b610d7a61336b565b610d8383612619565b610dc2576040517f08c379a0000000000000000000000000000000000000000000000000000000008152600401610db9906144bb565b60405180910390fd5b610dcc8284613281565b610e0b576040517f08c379a0000000000000000000000000000000000000000000000000000000008152600401610e0290614527565b60405180910390fd5b6000806000858152602001908152602001600020600701600084815260200190815260200160002090506000604051806102000160405280836000015481526020018360010160009054906101000a900473ffffffffffffffffffffffffffffffffffffffff1673ffffffffffffffffffffffffffffffffffffffff168152602001836002015481526020018360030160009054906101000a900473ffffffffffffffffffffffffffffffffffffffff1673ffffffffffffffffffffffffffffffffffffffff168152602001836004018054610ee690614396565b80601f0160208091040260200160405190810160405280929190818152602001828054610f1290614396565b8015610f5f5780601f10610f3457610100808354040283529160200191610f5f565b820191906000526020600020905b815481529060010190602001808311610f4257829003601f168201915b50505050508152602001836005018054610f7890614396565b80601f0160208091040260200160405190810160405280929190818152602001828054610fa490614396565b8015610ff15780601f10610fc657610100808354040283529160200191610ff1565b820191906000526020600020905b815481529060010190602001808311610fd457829003601f168201915b505050505081526020018360060154815260200183600701548152602001836008015481526020018360090154815260200183600a01805461103290614396565b80601f016020809104026020016040519081016040528092919081815260200182805461105e90614396565b80156110ab5780601f10611080576101008083540402835291602001916110ab565b820191906000526020600020905b81548152906001019060200180831161108e57829003601f168201915b5050505050815260200183600b0180546110c490614396565b80601f01602080910402602001604051908101604052809291908181526020018280546110f090614396565b801561113d5780601f106111125761010080835404028352916020019161113d565b820191906000526020600020905b81548152906001019060200180831161112057829003601f168201915b5050505050815260200183600c01805461115690614396565b80601f016020809104026020016040519081016040528092919081815260200182805461118290614396565b80156111cf5780601f106111a4576101008083540402835291602001916111cf565b820191906000526020600020905b8154815290600101906020018083116111b257829003601f168201915b5050505050815260200183600d0180546111e890614396565b80601f016020809104026020016040519081016040528092919081815260200182805461121490614396565b80156112615780601f1061123657610100808354040283529160200191611261565b820191906000526020600020905b81548152906001019060200180831161124457829003601f168201915b5050505050815260200183600e01805461127a90614396565b80601f01602080910402602001604051908101604052809291908181526020018280546112a690614396565b80156112f35780601f106112c8576101008083540402835291602001916112f3565b820191906000526020600020905b8154815290600101906020018083116112d657829003601f168201915b5050505050815260200183600f01548152509050809250505092915050565b600080600084815260200190815260200160002090506000816007016000848152602001908152602001600020905061134a84612619565b611389576040517f08c379a0000000000000000000000000000000000000000000000000000000008152600401611380906144bb565b60405180910390fd5b611393338561197e565b6113d2576040517f08c379a00000000000000000000000000000000000000000000000000000000081526004016113c990614593565b60405180910390fd5b6113dc8385613281565b61141b576040517f08c379a000000000000000000000000000000000000000000000000000000000815260040161141290614527565b60405180910390fd5b61142584846132de565b611464576040517f08c379a000000000000000000000000000000000000000000000000000000000815260040161145b90614625565b60405180910390fd5b8060020154826004015410156114af576040517f08c379a00000000000000000000000000000000000000000000000000000000081526004016114a6906146b7565b60405180910390fd5b80600701548160060154116114f9576040517f08c379a00000000000000000000000000000000000000000000000000000000081526004016114f090614749565b60405180910390fd5b6115038484612b9c565b15611543576040517f08c379a000000000000000000000000000000000000000000000000000000000815260040161153a906147db565b60405180910390fd5b6040518060400160405280600881526020017f4578656375746564000000000000000000000000000000000000000000000000815250816004019080519060200190611590929190613414565b5080600201548260040160008282546115a991906147fb565b925050819055508060030160009054906101000a900473ffffffffffffffffffffffffffffffffffffffff1673ffffffffffffffffffffffffffffffffffffffff166108fc82600201549081150290604051600060405180830381858888f1935050505015801561161e573d6000803e3d6000fd5b5050505050565b6000806000848152602001908152602001600020600c0160008373ffffffffffffffffffffffffffffffffffffffff1673ffffffffffffffffffffffffffffffffffffffff16815260200190815260200160002060009054906101000a900460ff16905092915050565b61169881612619565b6116d7576040517f08c379a00000000000000000000000000000000000000000000000000000000081526004016116ce906144bb565b60405180910390fd5b600080600083815260200190815260200160002090506116f7338361197e565b611736576040517f08c379a000000000000000000000000000000000000000000000000000000000815260040161172d90614593565b60405180910390fd5b60003411611779576040517f08c379a0000000000000000000000000000000000000000000000000000000008152600401611770906148a1565b60405180910390fd5b611782826132b8565b6117c1576040517f08c379a00000000000000000000000000000000000000000000000000000000081526004016117b89061490d565b60405180910390fd5b60008160020160003373ffffffffffffffffffffffffffffffffffffffff1673ffffffffffffffffffffffffffffffffffffffff16815260200190815260200160002090503481600101600082825461181a919061492d565b92505081905550600060405180604001604052803373ffffffffffffffffffffffffffffffffffffffff16815260200160008152509050600183600c0160003373ffffffffffffffffffffffffffffffffffffffff1673ffffffffffffffffffffffffffffffffffffffff16815260200190815260200160002060006101000a81548160ff021916908315150217905550808360020160003373ffffffffffffffffffffffffffffffffffffffff1673ffffffffffffffffffffffffffffffffffffffff16815260200190815260200160002060008201518160000160006101000a81548173ffffffffffffffffffffffffffffffffffffffff021916908373ffffffffffffffffffffffffffffffffffffffff160217905550602082015181600101559050506001836003016000828254611956919061492d565b9250508190555034836004016000828254611971919061492d565b9250508190555050505050565b60008073ffffffffffffffffffffffffffffffffffffffff1660008084815260200190815260200160002060020160008573ffffffffffffffffffffffffffffffffffffffff1673ffffffffffffffffffffffffffffffffffffffff16815260200190815260200160002060000160009054906101000a900473ffffffffffffffffffffffffffffffffffffffff1673ffffffffffffffffffffffffffffffffffffffff161415905092915050565b60008060018054611a3e919061492d565b90506000806000838152602001908152602001600020905081816000018190555084816001019080519060200190611a77929190613414565b5060008160040181905550600081600801819055506001816003018190555042816005018190555060b442611aac919061492d565b816006018190555083816009019080519060200190611acc929190613414565b506040518060400160405280600b81526020017f556e2d566572696669656400000000000000000000000000000000000000000081525081600a019080519060200190611b1a929190613414565b50600060405180604001604052803373ffffffffffffffffffffffffffffffffffffffff16815260200160008152509050808260020160003373ffffffffffffffffffffffffffffffffffffffff1673ffffffffffffffffffffffffffffffffffffffff16815260200190815260200160002060008201518160000160006101000a81548173ffffffffffffffffffffffffffffffffffffffff021916908373ffffffffffffffffffffffffffffffffffffffff160217905550602082015181600101559050508260018190555082935050505092915050565b611bfd81612619565b611c3c576040517f08c379a0000000000000000000000000000000000000000000000000000000008152600401611c33906144bb565b60405180910390fd5b60008060008381526020019081526020016000209050611c5c338361197e565b611c9b576040517f08c379a0000000000000000000000000000000000000000000000000000000008152600401611c9290614593565b60405180910390fd5b6001816003016000828254611cb091906147fb565b925050819055508060020160003373ffffffffffffffffffffffffffffffffffffffff1673ffffffffffffffffffffffffffffffffffffffff168152602001908152602001600020600080820160006101000a81549073ffffffffffffffffffffffffffffffffffffffff0219169055600182016000905550505050565b6060600060015467ffffffffffffffff811115611d4e57611d4d61398f565b5b604051908082528060200260200182016040528015611d8757816020015b611d7461349a565b815260200190600190039081611d6c5790505b509050600080600190505b600154811161200b5760008060008381526020019081526020016000209050611dbf33826000015461197e565b15611ff75760405180610140016040528082600001548152602001826001018054611de990614396565b80601f0160208091040260200160405190810160405280929190818152602001828054611e1590614396565b8015611e625780601f10611e3757610100808354040283529160200191611e62565b820191906000526020600020905b815481529060010190602001808311611e4557829003601f168201915b505050505081526020018260030154815260200182600801548152602001826004015481526020018260050154815260200182600601548152602001826009018054611ead90614396565b80601f0160208091040260200160405190810160405280929190818152602001828054611ed990614396565b8015611f265780601f10611efb57610100808354040283529160200191611f26565b820191906000526020600020905b815481529060010190602001808311611f0957829003601f168201915b5050505050815260200182600a018054611f3f90614396565b80601f0160208091040260200160405190810160405280929190818152602001828054611f6b90614396565b8015611fb85780601f10611f8d57610100808354040283529160200191611fb8565b820191906000526020600020905b815481529060010190602001808311611f9b57829003601f168201915b5050505050815260200182600b0154815250848481518110611fdd57611fdc6143c8565b5b60200260200101819052508280611ff390614426565b9350505b50808061200390614426565b915050611d92565b50819250505090565b61201d83612619565b61205c576040517f08c379a0000000000000000000000000000000000000000000000000000000008152600401612053906144bb565b60405180910390fd5b6120668383612b9c565b6120a5576040517f08c379a000000000000000000000000000000000000000000000000000000000815260040161209c906149cf565b60405180910390fd5b600080600085815260200190815260200160002090506120c5338561197e565b612104576040517f08c379a00000000000000000000000000000000000000000000000000000000081526004016120fb90614593565b60405180910390fd5b61210e8385613281565b61214d576040517f08c379a000000000000000000000000000000000000000000000000000000000815260040161214490614527565b60405180910390fd5b60008160070160008581526020019081526020016000209050612171338587610ca0565b156121b1576040517f08c379a00000000000000000000000000000000000000000000000000000000081526004016121a890614a61565b60405180910390fd5b6040518060400160405280600781526020017f50656e64696e670000000000000000000000000000000000000000000000000081525080519060200120816004016040516121ff9190614b20565b604051809103902014612247576040517f08c379a000000000000000000000000000000000000000000000000000000000815260040161223e90614ba9565b60405180910390fd5b828160100160003373ffffffffffffffffffffffffffffffffffffffff1673ffffffffffffffffffffffffffffffffffffffff16815260200190815260200160002060006101000a81548160ff02191690831515021790555082156122c75760018160060160008282546122bb919061492d565b925050819055506122e4565b60018160070160008282546122dc919061492d565b925050819055505b5050505050565b6060600060015467ffffffffffffffff81111561230b5761230a61398f565b5b60405190808252806020026020018201604052801561234457816020015b61233161349a565b8152602001906001900390816123295790505b50905060005b6001548110156125ae576000806000600184612366919061492d565b815260200190815260200160002090506040518061014001604052808260000154815260200182600101805461239b90614396565b80601f01602080910402602001604051908101604052809291908181526020018280546123c790614396565b80156124145780601f106123e957610100808354040283529160200191612414565b820191906000526020600020905b8154815290600101906020018083116123f757829003601f168201915b50505050508152602001826003015481526020018260050154815260200182600601548152602001826008015481526020018260040154815260200182600901805461245f90614396565b80601f016020809104026020016040519081016040528092919081815260200182805461248b90614396565b80156124d85780601f106124ad576101008083540402835291602001916124d8565b820191906000526020600020905b8154815290600101906020018083116124bb57829003601f168201915b5050505050815260200182600a0180546124f190614396565b80601f016020809104026020016040519081016040528092919081815260200182805461251d90614396565b801561256a5780601f1061253f5761010080835404028352916020019161256a565b820191906000526020600020905b81548152906001019060200180831161254d57829003601f168201915b5050505050815260200182600b015481525083838151811061258f5761258e6143c8565b5b60200260200101819052505080806125a690614426565b91505061234a565b508091505090565b6000806000868152602001908152602001600020600701600085815260200190815260200160002090508281600b0190805190602001906125f8929190613414565b508181600c019080519060200190612611929190613414565b505050505050565b6000806000808481526020019081526020016000206000015414159050919050565b61264481612619565b612683576040517f08c379a000000000000000000000000000000000000000000000000000000000815260040161267a90614c15565b60405180910390fd5b600080600083815260200190815260200160002090506040518060400160405280600881526020017f566572696669656400000000000000000000000000000000000000000000000081525081600a0190805190602001906126e6929190613414565b505050565b600080600080848152602001908152602001600020905060008160020160008673ffffffffffffffffffffffffffffffffffffffff1673ffffffffffffffffffffffffffffffffffffffff168152602001908152602001600020905080600101549250505092915050565b61275f85612619565b61279e576040517f08c379a0000000000000000000000000000000000000000000000000000000008152600401612795906144bb565b60405180910390fd5b600080600087815260200190815260200160002090506127be338761197e565b6127fd576040517f08c379a00000000000000000000000000000000000000000000000000000000081526004016127f490614593565b60405180910390fd5b60008511612840576040517f08c379a000000000000000000000000000000000000000000000000000000000815260040161283790614ca7565b60405180910390fd5b600060018260080154612853919061492d565b9050600080600089815260200190815260200160002060070160008381526020019081526020016000209050818160000181905550338160010160006101000a81548173ffffffffffffffffffffffffffffffffffffffff021916908373ffffffffffffffffffffffffffffffffffffffff160217905550868160020181905550858160030160006101000a81548173ffffffffffffffffffffffffffffffffffffffff021916908373ffffffffffffffffffffffffffffffffffffffff1602179055506040518060400160405280600781526020017f50656e64696e6700000000000000000000000000000000000000000000000000815250816004019080519060200190612964929190613414565b508481600501908051906020019061297d929190613414565b50600081600601819055506000816007018190555042816008018190555061012c426129a9919061492d565b81600901819055508381600a0190805190602001906129c9929190613414565b506040518060400160405280600a81526020017f494e2050726f636573730000000000000000000000000000000000000000000081525081600b019080519060200190612a17929190613414565b506040518060400160405280600a81526020017f494e2d50726f636573730000000000000000000000000000000000000000000081525081600c019080519060200190612a65929190613414565b50600081600f01819055506040518060400160405280600a81526020017f494e2d50726f636573730000000000000000000000000000000000000000000081525081600e019080519060200190612abd929190613414565b506040518060400160405280600b81526020017f556e2d566572696669656400000000000000000000000000000000000000000081525081600d019080519060200190612b0b929190613414565b508183600801819055505050505050505050565b6000806000848152602001908152602001600020600701600083815260200190815260200160002090506040518060400160405280600881526020017f566572696669656400000000000000000000000000000000000000000000000081525081600d019080519060200190612b96929190613414565b50505050565b600080600080858152602001908152602001600020600701600084815260200190815260200160002090504281600901541191505092915050565b612bdf61349a565b612be882612619565b612c27576040517f08c379a0000000000000000000000000000000000000000000000000000000008152600401612c1e906144bb565b60405180910390fd5b60008060008481526020019081526020016000209050600060405180610140016040528083600001548152602001836001018054612c6490614396565b80601f0160208091040260200160405190810160405280929190818152602001828054612c9090614396565b8015612cdd5780601f10612cb257610100808354040283529160200191612cdd565b820191906000526020600020905b815481529060010190602001808311612cc057829003601f168201915b505050505081526020018360030154815260200183600801548152602001836004015481526020018360050154815260200183600601548152602001836009018054612d2890614396565b80601f0160208091040260200160405190810160405280929190818152602001828054612d5490614396565b8015612da15780601f10612d7657610100808354040283529160200191612da1565b820191906000526020600020905b815481529060010190602001808311612d8457829003601f168201915b5050505050815260200183600a018054612dba90614396565b80601f0160208091040260200160405190810160405280929190818152602001828054612de690614396565b8015612e335780601f10612e0857610100808354040283529160200191612e33565b820191906000526020600020905b815481529060010190602001808311612e1657829003601f168201915b5050505050815260200183600b015481525090508092505050919050565b6000606360008084815260200190815260200160002060030154109050919050565b612e7c81612619565b612ebb576040517f08c379a0000000000000000000000000000000000000000000000000000000008152600401612eb290614c15565b60405180910390fd5b60008060008381526020019081526020016000209050612eda82612e51565b612f19576040517f08c379a0000000000000000000000000000000000000000000000000000000008152600401612f1090614d39565b60405180910390fd5b612f23338361197e565b15612f63576040517f08c379a0000000000000000000000000000000000000000000000000000000008152600401612f5a90614dcb565b60405180910390fd5b600060405180604001604052803373ffffffffffffffffffffffffffffffffffffffff16815260200160008152509050808260020160003373ffffffffffffffffffffffffffffffffffffffff1673ffffffffffffffffffffffffffffffffffffffff16815260200190815260200160002060008201518160000160006101000a81548173ffffffffffffffffffffffffffffffffffffffff021916908373ffffffffffffffffffffffffffffffffffffffff16021790555060208201518160010155905050600182600301600082825461303e919061492d565b92505081905550505050565b61305382612619565b613092576040517f08c379a0000000000000000000000000000000000000000000000000000000008152600401613089906144bb565b60405180910390fd5b61309c8183613281565b6130db576040517f08c379a00000000000000000000000000000000000000000000000000000000081526004016130d290614527565b60405180910390fd5b6130e58282612b9c565b15613125576040517f08c379a000000000000000000000000000000000000000000000000000000000815260040161311c906147db565b60405180910390fd5b6000806000848152602001908152602001600020600701600083815260200190815260200160002090506040518060400160405280600781526020017f50656e64696e6700000000000000000000000000000000000000000000000000815250805190602001208160040160405161319d9190614b20565b6040518091039020146131e5576040517f08c379a00000000000000000000000000000000000000000000000000000000081526004016131dc90614e5d565b60405180910390fd5b6131ef83836132de565b61322e576040517f08c379a000000000000000000000000000000000000000000000000000000000815260040161322590614eef565b60405180910390fd5b6040518060400160405280600681526020017f436c6f736564000000000000000000000000000000000000000000000000000081525081600401908051906020019061327b929190613414565b50505050565b6000806000808481526020019081526020016000206007016000858152602001908152602001600020600001541415905092915050565b600080600080848152602001908152602001600020905042816006015411915050919050565b6000806000808581526020019081526020016000209050600081600701600085815260200190815260200160002090508060010160009054906101000a900473ffffffffffffffffffffffffffffffffffffffff1673ffffffffffffffffffffffffffffffffffffffff163373ffffffffffffffffffffffffffffffffffffffff16149250505092915050565b60405180610200016040528060008152602001600073ffffffffffffffffffffffffffffffffffffffff16815260200160008152602001600073ffffffffffffffffffffffffffffffffffffffff1681526020016060815260200160608152602001600081526020016000815260200160008152602001600081526020016060815260200160608152602001606081526020016060815260200160608152602001600081525090565b82805461342090614396565b90600052602060002090601f0160209004810192826134425760008555613489565b82601f1061345b57805160ff1916838001178555613489565b82800160010185558215613489579182015b8281111561348857825182559160200191906001019061346d565b5b50905061349691906134ed565b5090565b604051806101400160405280600081526020016060815260200160008152602001600081526020016000815260200160008152602001600081526020016060815260200160608152602001600081525090565b5b808211156135065760008160009055506001016134ee565b5090565b6000604051905090565b600080fd5b600080fd5b6000819050919050565b6135318161351e565b811461353c57600080fd5b50565b60008135905061354e81613528565b92915050565b60006020828403121561356a57613569613514565b5b60006135788482850161353f565b91505092915050565b600081519050919050565b600082825260208201905092915050565b6000819050602082019050919050565b6135b68161351e565b82525050565b600073ffffffffffffffffffffffffffffffffffffffff82169050919050565b60006135e7826135bc565b9050919050565b6135f7816135dc565b82525050565b600081519050919050565b600082825260208201905092915050565b60005b8381101561363757808201518184015260208101905061361c565b83811115613646576000848401525b50505050565b6000601f19601f8301169050919050565b6000613668826135fd565b6136728185613608565b9350613682818560208601613619565b61368b8161364c565b840191505092915050565b6000610200830160008301516136af60008601826135ad565b5060208301516136c260208601826135ee565b5060408301516136d560408601826135ad565b5060608301516136e860608601826135ee565b5060808301518482036080860152613700828261365d565b91505060a083015184820360a086015261371a828261365d565b91505060c083015161372f60c08601826135ad565b5060e083015161374260e08601826135ad565b506101008301516137576101008601826135ad565b5061012083015161376c6101208601826135ad565b50610140830151848203610140860152613786828261365d565b9150506101608301518482036101608601526137a2828261365d565b9150506101808301518482036101808601526137be828261365d565b9150506101a08301518482036101a08601526137da828261365d565b9150506101c08301518482036101c08601526137f6828261365d565b9150506101e083015161380d6101e08601826135ad565b508091505092915050565b60006138248383613696565b905092915050565b6000602082019050919050565b600061384482613581565b61384e818561358c565b9350836020820285016138608561359d565b8060005b8581101561389c578484038952815161387d8582613818565b94506138888361382c565b925060208a01995050600181019050613864565b50829750879550505050505092915050565b600060208201905081810360008301526138c88184613839565b905092915050565b6138d9816135dc565b81146138e457600080fd5b50565b6000813590506138f6816138d0565b92915050565b60008060006060848603121561391557613914613514565b5b6000613923868287016138e7565b93505060206139348682870161353f565b92505060406139458682870161353f565b9150509250925092565b60008115159050919050565b6139648161394f565b82525050565b600060208201905061397f600083018461395b565b92915050565b600080fd5b600080fd5b7f4e487b7100000000000000000000000000000000000000000000000000000000600052604160045260246000fd5b6139c78261364c565b810181811067ffffffffffffffff821117156139e6576139e561398f565b5b80604052505050565b60006139f961350a565b9050613a0582826139be565b919050565b600067ffffffffffffffff821115613a2557613a2461398f565b5b613a2e8261364c565b9050602081019050919050565b82818337600083830152505050565b6000613a5d613a5884613a0a565b6139ef565b905082815260208101848484011115613a7957613a7861398a565b5b613a84848285613a3b565b509392505050565b600082601f830112613aa157613aa0613985565b5b8135613ab1848260208601613a4a565b91505092915050565b60008060008060808587031215613ad457613ad3613514565b5b6000613ae28782880161353f565b9450506020613af38782880161353f565b9350506040613b048782880161353f565b925050606085013567ffffffffffffffff811115613b2557613b24613519565b5b613b3187828801613a8c565b91505092959194509250565b60008060408385031215613b5457613b53613514565b5b6000613b628582860161353f565b9250506020613b738582860161353f565b9150509250929050565b600061020083016000830151613b9660008601826135ad565b506020830151613ba960208601826135ee565b506040830151613bbc60408601826135ad565b506060830151613bcf60608601826135ee565b5060808301518482036080860152613be7828261365d565b91505060a083015184820360a0860152613c01828261365d565b91505060c0830151613c1660c08601826135ad565b5060e0830151613c2960e08601826135ad565b50610100830151613c3e6101008601826135ad565b50610120830151613c536101208601826135ad565b50610140830151848203610140860152613c6d828261365d565b915050610160830151848203610160860152613c89828261365d565b915050610180830151848203610180860152613ca5828261365d565b9150506101a08301518482036101a0860152613cc1828261365d565b9150506101c08301518482036101c0860152613cdd828261365d565b9150506101e0830151613cf46101e08601826135ad565b508091505092915050565b60006020820190508181036000830152613d198184613b7d565b905092915050565b60008060408385031215613d3857613d37613514565b5b6000613d468582860161353f565b9250506020613d57858286016138e7565b9150509250929050565b60008060408385031215613d7857613d77613514565b5b6000613d86858286016138e7565b9250506020613d978582860161353f565b9150509250929050565b60008060408385031215613db857613db7613514565b5b600083013567ffffffffffffffff811115613dd657613dd5613519565b5b613de285828601613a8c565b925050602083013567ffffffffffffffff811115613e0357613e02613519565b5b613e0f85828601613a8c565b9150509250929050565b613e228161351e565b82525050565b6000602082019050613e3d6000830184613e19565b92915050565b600081519050919050565b600082825260208201905092915050565b6000819050602082019050919050565b600061014083016000830151613e8860008601826135ad565b5060208301518482036020860152613ea0828261365d565b9150506040830151613eb560408601826135ad565b506060830151613ec860608601826135ad565b506080830151613edb60808601826135ad565b5060a0830151613eee60a08601826135ad565b5060c0830151613f0160c08601826135ad565b5060e083015184820360e0860152613f19828261365d565b915050610100830151848203610100860152613f35828261365d565b915050610120830151613f4c6101208601826135ad565b508091505092915050565b6000613f638383613e6f565b905092915050565b6000602082019050919050565b6000613f8382613e43565b613f8d8185613e4e565b935083602082028501613f9f85613e5f565b8060005b85811015613fdb5784840389528151613fbc8582613f57565b9450613fc783613f6b565b925060208a01995050600181019050613fa3565b50829750879550505050505092915050565b600060208201905081810360008301526140078184613f78565b905092915050565b6140188161394f565b811461402357600080fd5b50565b6000813590506140358161400f565b92915050565b60008060006060848603121561405457614053613514565b5b60006140628682870161353f565b93505060206140738682870161353f565b925050604061408486828701614026565b9150509250925092565b600080600080608085870312156140a8576140a7613514565b5b60006140b68782880161353f565b94505060206140c78782880161353f565b935050604085013567ffffffffffffffff8111156140e8576140e7613519565b5b6140f487828801613a8c565b925050606085013567ffffffffffffffff81111561411557614114613519565b5b61412187828801613a8c565b91505092959194509250565b600080600080600060a0868803121561414957614148613514565b5b60006141578882890161353f565b95505060206141688882890161353f565b9450506040614179888289016138e7565b935050606086013567ffffffffffffffff81111561419a57614199613519565b5b6141a688828901613a8c565b925050608086013567ffffffffffffffff8111156141c7576141c6613519565b5b6141d388828901613a8c565b9150509295509295909350565b6000610140830160008301516141f960008601826135ad565b5060208301518482036020860152614211828261365d565b915050604083015161422660408601826135ad565b50606083015161423960608601826135ad565b50608083015161424c60808601826135ad565b5060a083015161425f60a08601826135ad565b5060c083015161427260c08601826135ad565b5060e083015184820360e086015261428a828261365d565b9150506101008301518482036101008601526142a6828261365d565b9150506101208301516142bd6101208601826135ad565b508091505092915050565b600060208201905081810360008301526142e281846141e0565b905092915050565b600082825260208201905092915050565b7f436c756220646f6573206e6f7420657869737400000000000000000000000000600082015250565b60006143316013836142ea565b915061433c826142fb565b602082019050919050565b6000602082019050818103600083015261436081614324565b9050919050565b7f4e487b7100000000000000000000000000000000000000000000000000000000600052602260045260246000fd5b600060028204905060018216806143ae57607f821691505b602082108114156143c2576143c1614367565b5b50919050565b7f4e487b7100000000000000000000000000000000000000000000000000000000600052603260045260246000fd5b7f4e487b7100000000000000000000000000000000000000000000000000000000600052601160045260246000fd5b60006144318261351e565b91507fffffffffffffffffffffffffffffffffffffffffffffffffffffffffffffffff821415614464576144636143f7565b5b600182019050919050565b7f74686520636c756220646f6573206e6f74206578697374000000000000000000600082015250565b60006144a56017836142ea565b91506144b08261446f565b602082019050919050565b600060208201905081810360008301526144d481614498565b9050919050565b7f5468652070726f706f73616c20646f6573206e6f742065786973740000000000600082015250565b6000614511601b836142ea565b915061451c826144db565b602082019050919050565b6000602082019050818103600083015261454081614504565b9050919050565b7f596f7520617265206e6f742061206d656d626572206f662074686520636c7562600082015250565b600061457d6020836142ea565b915061458882614547565b602082019050919050565b600060208201905081810360008301526145ac81614570565b9050919050565b7f4f6e6c79207468652063726561746f72206f66207468652070726f706f73616c60008201527f2063616e20657865637574652069740000000000000000000000000000000000602082015250565b600061460f602f836142ea565b915061461a826145b3565b604082019050919050565b6000602082019050818103600083015261463e81614602565b9050919050565b7f54686520616d6f756e7420657863656564732074686520706f6f6c206f66207460008201527f686520636c756200000000000000000000000000000000000000000000000000602082015250565b60006146a16027836142ea565b91506146ac82614645565b604082019050919050565b600060208201905081810360008301526146d081614694565b9050919050565b7f5468652070726f706f73616c20686173206e6f74206265656e20617070726f7660008201527f6564000000000000000000000000000000000000000000000000000000000000602082015250565b60006147336022836142ea565b915061473e826146d7565b604082019050919050565b6000602082019050818103600083015261476281614726565b9050919050565b7f596f752063616e2774206265666f72652074686520566f74696e67206465616460008201527f6c696e6500000000000000000000000000000000000000000000000000000000602082015250565b60006147c56024836142ea565b91506147d082614769565b604082019050919050565b600060208201905081810360008301526147f4816147b8565b9050919050565b60006148068261351e565b91506148118361351e565b925082821015614824576148236143f7565b5b828203905092915050565b7f596f75206d7573742073656e642045564d4f5320746f20636f6e74726962757460008201527f6500000000000000000000000000000000000000000000000000000000000000602082015250565b600061488b6021836142ea565b91506148968261482f565b604082019050919050565b600060208201905081810360008301526148ba8161487e565b9050919050565b7f436c756220697320636c6f736564000000000000000000000000000000000000600082015250565b60006148f7600e836142ea565b9150614902826148c1565b602082019050919050565b60006020820190508181036000830152614926816148ea565b9050919050565b60006149388261351e565b91506149438361351e565b9250827fffffffffffffffffffffffffffffffffffffffffffffffffffffffffffffffff03821115614978576149776143f7565b5b828201905092915050565b7f566f74696e6720506572696f642046696e697368656400000000000000000000600082015250565b60006149b96016836142ea565b91506149c482614983565b602082019050919050565b600060208201905081810360008301526149e8816149ac565b9050919050565b7f596f75206861766520616c726561647920766f746564206f6e2074686973207060008201527f726f706f73616c00000000000000000000000000000000000000000000000000602082015250565b6000614a4b6027836142ea565b9150614a56826149ef565b604082019050919050565b60006020820190508181036000830152614a7a81614a3e565b9050919050565b600081905092915050565b60008190508160005260206000209050919050565b60008154614aae81614396565b614ab88186614a81565b94506001821660008114614ad35760018114614ae457614b17565b60ff19831686528186019350614b17565b614aed85614a8c565b60005b83811015614b0f57815481890152600182019150602081019050614af0565b838801955050505b50505092915050565b6000614b2c8284614aa1565b915081905092915050565b7f5468652070726f706f73616c206973206e6f206c6f6e6765722070656e64696e60008201527f6700000000000000000000000000000000000000000000000000000000000000602082015250565b6000614b936021836142ea565b9150614b9e82614b37565b604082019050919050565b60006020820190508181036000830152614bc281614b86565b9050919050565b7f54686520636c756220646f6573206e6f74206578697374000000000000000000600082015250565b6000614bff6017836142ea565b9150614c0a82614bc9565b602082019050919050565b60006020820190508181036000830152614c2e81614bf2565b9050919050565b7f54686520616d6f756e74206f66207468652070726f706f73616c206d7573742060008201527f62652067726561746572207468616e2030000000000000000000000000000000602082015250565b6000614c916031836142ea565b9150614c9c82614c35565b604082019050919050565b60006020820190508181036000830152614cc081614c84565b9050919050565b7f54686520636c75622069732066756c6c2c206e6f206d6f7265206d656d62657260008201527f732063616e206265206164646564000000000000000000000000000000000000602082015250565b6000614d23602e836142ea565b9150614d2e82614cc7565b604082019050919050565b60006020820190508181036000830152614d5281614d16565b9050919050565b7f596f752061726520616c72656164792061206d656d626572206f66207468652060008201527f636c756200000000000000000000000000000000000000000000000000000000602082015250565b6000614db56024836142ea565b9150614dc082614d59565b604082019050919050565b60006020820190508181036000830152614de481614da8565b9050919050565b7f5468652070726f706f73616c206973206e6f7420696e2070656e64696e67207360008201527f7461747573000000000000000000000000000000000000000000000000000000602082015250565b6000614e476025836142ea565b9150614e5282614deb565b604082019050919050565b60006020820190508181036000830152614e7681614e3a565b9050919050565b7f4f6e6c79207468652070726f706f73616c2063726561746f722063616e20636c60008201527f6f7365207468652070726f706f73616c00000000000000000000000000000000602082015250565b6000614ed96030836142ea565b9150614ee482614e7d565b604082019050919050565b60006020820190508181036000830152614f0881614ecc565b905091905056fea264697066735822122018593368a6c42034203ff924490b6459c138f99c9b6b2302749103aef426b2d764736f6c634300080a0033","opcodes":"PUSH1 0x80 PUSH1 0x40 MSTORE CALLVALUE DUP1 ISZERO PUSH2 0x10 JUMPI PUSH1 0x0 DUP1 REVERT JUMPDEST POP PUSH1 0x0 PUSH1 0x1 DUP2 SWAP1 SSTORE POP PUSH2 0x4F45 DUP1 PUSH2 0x28 PUSH1 0x0 CODECOPY PUSH1 0x0 RETURN INVALID PUSH1 0x80 PUSH1 0x40 MSTORE PUSH1 0x4 CALLDATASIZE LT PUSH2 0x181 JUMPI PUSH1 0x0 CALLDATALOAD PUSH1 0xE0 SHR DUP1 PUSH4 0x647E598B GT PUSH2 0xD1 JUMPI DUP1 PUSH4 0xAB7CA348 GT PUSH2 0x8A JUMPI DUP1 PUSH4 0xE1542742 GT PUSH2 0x64 JUMPI DUP1 PUSH4 0xE1542742 EQ PUSH2 0x5D2 JUMPI DUP1 PUSH4 0xE7613EA8 EQ PUSH2 0x5FB JUMPI DUP1 PUSH4 0xEEC8E0DB EQ PUSH2 0x624 JUMPI DUP1 PUSH4 0xF9F2BB3C EQ PUSH2 0x661 JUMPI PUSH2 0x181 JUMP JUMPDEST DUP1 PUSH4 0xAB7CA348 EQ PUSH2 0x51B JUMPI DUP1 PUSH4 0xC3741FED EQ PUSH2 0x558 JUMPI DUP1 PUSH4 0xC4670878 EQ PUSH2 0x595 JUMPI PUSH2 0x181 JUMP JUMPDEST DUP1 PUSH4 0x647E598B EQ PUSH2 0x3FD JUMPI DUP1 PUSH4 0x6764FD48 EQ PUSH2 0x426 JUMPI DUP1 PUSH4 0x82B7661B EQ PUSH2 0x463 JUMPI DUP1 PUSH4 0x890E2456 EQ PUSH2 0x48C JUMPI DUP1 PUSH4 0x89972A32 EQ PUSH2 0x4C9 JUMPI DUP1 PUSH4 0x9D9087B9 EQ PUSH2 0x4F2 JUMPI PUSH2 0x181 JUMP JUMPDEST DUP1 PUSH4 0x288509B4 GT PUSH2 0x13E JUMPI DUP1 PUSH4 0x4D7F75C3 GT PUSH2 0x118 JUMPI DUP1 PUSH4 0x4D7F75C3 EQ PUSH2 0x355 JUMPI DUP1 PUSH4 0x549710BE EQ PUSH2 0x37E JUMPI DUP1 PUSH4 0x54A2E233 EQ PUSH2 0x3A9 JUMPI DUP1 PUSH4 0x5FF847FB EQ PUSH2 0x3D2 JUMPI PUSH2 0x181 JUMP JUMPDEST DUP1 PUSH4 0x288509B4 EQ PUSH2 0x2BF JUMPI DUP1 PUSH4 0x34FA3D83 EQ PUSH2 0x2DB JUMPI DUP1 PUSH4 0x35A1930F EQ PUSH2 0x318 JUMPI PUSH2 0x181 JUMP JUMPDEST DUP1 PUSH4 0x58694A9 EQ PUSH2 0x186 JUMPI DUP1 PUSH4 0xEE29404 EQ PUSH2 0x1C3 JUMPI DUP1 PUSH4 0x1063FD19 EQ PUSH2 0x200 JUMPI DUP1 PUSH4 0x14204FC6 EQ PUSH2 0x229 JUMPI DUP1 PUSH4 0x1AB76712 EQ PUSH2 0x266 JUMPI DUP1 PUSH4 0x2443C344 EQ PUSH2 0x282 JUMPI JUMPDEST PUSH1 0x0 DUP1 REVERT JUMPDEST CALLVALUE DUP1 ISZERO PUSH2 0x192 JUMPI PUSH1 0x0 DUP1 REVERT JUMPDEST POP PUSH2 0x1AD PUSH1 0x4 DUP1 CALLDATASIZE SUB DUP2 ADD SWAP1 PUSH2 0x1A8 SWAP2 SWAP1 PUSH2 0x3554 JUMP JUMPDEST PUSH2 0x69E JUMP JUMPDEST PUSH1 0x40 MLOAD PUSH2 0x1BA SWAP2 SWAP1 PUSH2 0x38AE JUMP JUMPDEST PUSH1 0x40 MLOAD DUP1 SWAP2 SUB SWAP1 RETURN JUMPDEST CALLVALUE DUP1 ISZERO PUSH2 0x1CF JUMPI PUSH1 0x0 DUP1 REVERT JUMPDEST POP PUSH2 0x1EA PUSH1 0x4 DUP1 CALLDATASIZE SUB DUP2 ADD SWAP1 PUSH2 0x1E5 SWAP2 SWAP1 PUSH2 0x38FC JUMP JUMPDEST PUSH2 0xCA0 JUMP JUMPDEST PUSH1 0x40 MLOAD PUSH2 0x1F7 SWAP2 SWAP1 PUSH2 0x396A JUMP JUMPDEST PUSH1 0x40 MLOAD DUP1 SWAP2 SUB SWAP1 RETURN JUMPDEST CALLVALUE DUP1 ISZERO PUSH2 0x20C JUMPI PUSH1 0x0 DUP1 REVERT JUMPDEST POP PUSH2 0x227 PUSH1 0x4 DUP1 CALLDATASIZE SUB DUP2 ADD SWAP1 PUSH2 0x222 SWAP2 SWAP1 PUSH2 0x3ABA JUMP JUMPDEST PUSH2 0xD1F JUMP JUMPDEST STOP JUMPDEST CALLVALUE DUP1 ISZERO PUSH2 0x235 JUMPI PUSH1 0x0 DUP1 REVERT JUMPDEST POP PUSH2 0x250 PUSH1 0x4 DUP1 CALLDATASIZE SUB DUP2 ADD SWAP1 PUSH2 0x24B SWAP2 SWAP1 PUSH2 0x3B3D JUMP JUMPDEST PUSH2 0xD72 JUMP JUMPDEST PUSH1 0x40 MLOAD PUSH2 0x25D SWAP2 SWAP1 PUSH2 0x3CFF JUMP JUMPDEST PUSH1 0x40 MLOAD DUP1 SWAP2 SUB SWAP1 RETURN JUMPDEST PUSH2 0x280 PUSH1 0x4 DUP1 CALLDATASIZE SUB DUP2 ADD SWAP1 PUSH2 0x27B SWAP2 SWAP1 PUSH2 0x3B3D JUMP JUMPDEST PUSH2 0x1312 JUMP JUMPDEST STOP JUMPDEST CALLVALUE DUP1 ISZERO PUSH2 0x28E JUMPI PUSH1 0x0 DUP1 REVERT JUMPDEST POP PUSH2 0x2A9 PUSH1 0x4 DUP1 CALLDATASIZE SUB DUP2 ADD SWAP1 PUSH2 0x2A4 SWAP2 SWAP1 PUSH2 0x3D21 JUMP JUMPDEST PUSH2 0x1625 JUMP JUMPDEST PUSH1 0x40 MLOAD PUSH2 0x2B6 SWAP2 SWAP1 PUSH2 0x396A JUMP JUMPDEST PUSH1 0x40 MLOAD DUP1 SWAP2 SUB SWAP1 RETURN JUMPDEST PUSH2 0x2D9 PUSH1 0x4 DUP1 CALLDATASIZE SUB DUP2 ADD SWAP1 PUSH2 0x2D4 SWAP2 SWAP1 PUSH2 0x3554 JUMP JUMPDEST PUSH2 0x168F JUMP JUMPDEST STOP JUMPDEST CALLVALUE DUP1 ISZERO PUSH2 0x2E7 JUMPI PUSH1 0x0 DUP1 REVERT JUMPDEST POP PUSH2 0x302 PUSH1 0x4 DUP1 CALLDATASIZE SUB DUP2 ADD SWAP1 PUSH2 0x2FD SWAP2 SWAP1 PUSH2 0x3D61 JUMP JUMPDEST PUSH2 0x197E JUMP JUMPDEST PUSH1 0x40 MLOAD PUSH2 0x30F SWAP2 SWAP1 PUSH2 0x396A JUMP JUMPDEST PUSH1 0x40 MLOAD DUP1 SWAP2 SUB SWAP1 RETURN JUMPDEST CALLVALUE DUP1 ISZERO PUSH2 0x324 JUMPI PUSH1 0x0 DUP1 REVERT JUMPDEST POP PUSH2 0x33F PUSH1 0x4 DUP1 CALLDATASIZE SUB DUP2 ADD SWAP1 PUSH2 0x33A SWAP2 SWAP1 PUSH2 0x3DA1 JUMP JUMPDEST PUSH2 0x1A2D JUMP JUMPDEST PUSH1 0x40 MLOAD PUSH2 0x34C SWAP2 SWAP1 PUSH2 0x3E28 JUMP JUMPDEST PUSH1 0x40 MLOAD DUP1 SWAP2 SUB SWAP1 RETURN JUMPDEST CALLVALUE DUP1 ISZERO PUSH2 0x361 JUMPI PUSH1 0x0 DUP1 REVERT JUMPDEST POP PUSH2 0x37C PUSH1 0x4 DUP1 CALLDATASIZE SUB DUP2 ADD SWAP1 PUSH2 0x377 SWAP2 SWAP1 PUSH2 0x3554 JUMP JUMPDEST PUSH2 0x1BF4 JUMP JUMPDEST STOP JUMPDEST CALLVALUE DUP1 ISZERO PUSH2 0x38A JUMPI PUSH1 0x0 DUP1 REVERT JUMPDEST POP PUSH2 0x393 PUSH2 0x1D2E JUMP JUMPDEST PUSH1 0x40 MLOAD PUSH2 0x3A0 SWAP2 SWAP1 PUSH2 0x3FED JUMP JUMPDEST PUSH1 0x40 MLOAD DUP1 SWAP2 SUB SWAP1 RETURN JUMPDEST CALLVALUE DUP1 ISZERO PUSH2 0x3B5 JUMPI PUSH1 0x0 DUP1 REVERT JUMPDEST POP PUSH2 0x3D0 PUSH1 0x4 DUP1 CALLDATASIZE SUB DUP2 ADD SWAP1 PUSH2 0x3CB SWAP2 SWAP1 PUSH2 0x403B JUMP JUMPDEST PUSH2 0x2014 JUMP JUMPDEST STOP JUMPDEST CALLVALUE DUP1 ISZERO PUSH2 0x3DE JUMPI PUSH1 0x0 DUP1 REVERT JUMPDEST POP PUSH2 0x3E7 PUSH2 0x22EB JUMP JUMPDEST PUSH1 0x40 MLOAD PUSH2 0x3F4 SWAP2 SWAP1 PUSH2 0x3FED JUMP JUMPDEST PUSH1 0x40 MLOAD DUP1 SWAP2 SUB SWAP1 RETURN JUMPDEST CALLVALUE DUP1 ISZERO PUSH2 0x409 JUMPI PUSH1 0x0 DUP1 REVERT JUMPDEST POP PUSH2 0x424 PUSH1 0x4 DUP1 CALLDATASIZE SUB DUP2 ADD SWAP1 PUSH2 0x41F SWAP2 SWAP1 PUSH2 0x408E JUMP JUMPDEST PUSH2 0x25B6 JUMP JUMPDEST STOP JUMPDEST CALLVALUE DUP1 ISZERO PUSH2 0x432 JUMPI PUSH1 0x0 DUP1 REVERT JUMPDEST POP PUSH2 0x44D PUSH1 0x4 DUP1 CALLDATASIZE SUB DUP2 ADD SWAP1 PUSH2 0x448 SWAP2 SWAP1 PUSH2 0x3554 JUMP JUMPDEST PUSH2 0x2619 JUMP JUMPDEST PUSH1 0x40 MLOAD PUSH2 0x45A SWAP2 SWAP1 PUSH2 0x396A JUMP JUMPDEST PUSH1 0x40 MLOAD DUP1 SWAP2 SUB SWAP1 RETURN JUMPDEST CALLVALUE DUP1 ISZERO PUSH2 0x46F JUMPI PUSH1 0x0 DUP1 REVERT JUMPDEST POP PUSH2 0x48A PUSH1 0x4 DUP1 CALLDATASIZE SUB DUP2 ADD SWAP1 PUSH2 0x485 SWAP2 SWAP1 PUSH2 0x3554 JUMP JUMPDEST PUSH2 0x263B JUMP JUMPDEST STOP JUMPDEST CALLVALUE DUP1 ISZERO PUSH2 0x498 JUMPI PUSH1 0x0 DUP1 REVERT JUMPDEST POP PUSH2 0x4B3 PUSH1 0x4 DUP1 CALLDATASIZE SUB DUP2 ADD SWAP1 PUSH2 0x4AE SWAP2 SWAP1 PUSH2 0x3D61 JUMP JUMPDEST PUSH2 0x26EB JUMP JUMPDEST PUSH1 0x40 MLOAD PUSH2 0x4C0 SWAP2 SWAP1 PUSH2 0x3E28 JUMP JUMPDEST PUSH1 0x40 MLOAD DUP1 SWAP2 SUB SWAP1 RETURN JUMPDEST CALLVALUE DUP1 ISZERO PUSH2 0x4D5 JUMPI PUSH1 0x0 DUP1 REVERT JUMPDEST POP PUSH2 0x4F0 PUSH1 0x4 DUP1 CALLDATASIZE SUB DUP2 ADD SWAP1 PUSH2 0x4EB SWAP2 SWAP1 PUSH2 0x412D JUMP JUMPDEST PUSH2 0x2756 JUMP JUMPDEST STOP JUMPDEST CALLVALUE DUP1 ISZERO PUSH2 0x4FE JUMPI PUSH1 0x0 DUP1 REVERT JUMPDEST POP PUSH2 0x519 PUSH1 0x4 DUP1 CALLDATASIZE SUB DUP2 ADD SWAP1 PUSH2 0x514 SWAP2 SWAP1 PUSH2 0x3B3D JUMP JUMPDEST PUSH2 0x2B1F JUMP JUMPDEST STOP JUMPDEST CALLVALUE DUP1 ISZERO PUSH2 0x527 JUMPI PUSH1 0x0 DUP1 REVERT JUMPDEST POP PUSH2 0x542 PUSH1 0x4 DUP1 CALLDATASIZE SUB DUP2 ADD SWAP1 PUSH2 0x53D SWAP2 SWAP1 PUSH2 0x3B3D JUMP JUMPDEST PUSH2 0x2B9C JUMP JUMPDEST PUSH1 0x40 MLOAD PUSH2 0x54F SWAP2 SWAP1 PUSH2 0x396A JUMP JUMPDEST PUSH1 0x40 MLOAD DUP1 SWAP2 SUB SWAP1 RETURN JUMPDEST CALLVALUE DUP1 ISZERO PUSH2 0x564 JUMPI PUSH1 0x0 DUP1 REVERT JUMPDEST POP PUSH2 0x57F PUSH1 0x4 DUP1 CALLDATASIZE SUB DUP2 ADD SWAP1 PUSH2 0x57A SWAP2 SWAP1 PUSH2 0x3554 JUMP JUMPDEST PUSH2 0x2BD7 JUMP JUMPDEST PUSH1 0x40 MLOAD PUSH2 0x58C SWAP2 SWAP1 PUSH2 0x42C8 JUMP JUMPDEST PUSH1 0x40 MLOAD DUP1 SWAP2 SUB SWAP1 RETURN JUMPDEST CALLVALUE DUP1 ISZERO PUSH2 0x5A1 JUMPI PUSH1 0x0 DUP1 REVERT JUMPDEST POP PUSH2 0x5BC PUSH1 0x4 DUP1 CALLDATASIZE SUB DUP2 ADD SWAP1 PUSH2 0x5B7 SWAP2 SWAP1 PUSH2 0x3554 JUMP JUMPDEST PUSH2 0x2E51 JUMP JUMPDEST PUSH1 0x40 MLOAD PUSH2 0x5C9 SWAP2 SWAP1 PUSH2 0x396A JUMP JUMPDEST PUSH1 0x40 MLOAD DUP1 SWAP2 SUB SWAP1 RETURN JUMPDEST CALLVALUE DUP1 ISZERO PUSH2 0x5DE JUMPI PUSH1 0x0 DUP1 REVERT JUMPDEST POP PUSH2 0x5F9 PUSH1 0x4 DUP1 CALLDATASIZE SUB DUP2 ADD SWAP1 PUSH2 0x5F4 SWAP2 SWAP1 PUSH2 0x3554 JUMP JUMPDEST PUSH2 0x2E73 JUMP JUMPDEST STOP JUMPDEST CALLVALUE DUP1 ISZERO PUSH2 0x607 JUMPI PUSH1 0x0 DUP1 REVERT JUMPDEST POP PUSH2 0x622 PUSH1 0x4 DUP1 CALLDATASIZE SUB DUP2 ADD SWAP1 PUSH2 0x61D SWAP2 SWAP1 PUSH2 0x3B3D JUMP JUMPDEST PUSH2 0x304A JUMP JUMPDEST STOP JUMPDEST CALLVALUE DUP1 ISZERO PUSH2 0x630 JUMPI PUSH1 0x0 DUP1 REVERT JUMPDEST POP PUSH2 0x64B PUSH1 0x4 DUP1 CALLDATASIZE SUB DUP2 ADD SWAP1 PUSH2 0x646 SWAP2 SWAP1 PUSH2 0x3B3D JUMP JUMPDEST PUSH2 0x3281 JUMP JUMPDEST PUSH1 0x40 MLOAD PUSH2 0x658 SWAP2 SWAP1 PUSH2 0x396A JUMP JUMPDEST PUSH1 0x40 MLOAD DUP1 SWAP2 SUB SWAP1 RETURN JUMPDEST CALLVALUE DUP1 ISZERO PUSH2 0x66D JUMPI PUSH1 0x0 DUP1 REVERT JUMPDEST POP PUSH2 0x688 PUSH1 0x4 DUP1 CALLDATASIZE SUB DUP2 ADD SWAP1 PUSH2 0x683 SWAP2 SWAP1 PUSH2 0x3554 JUMP JUMPDEST PUSH2 0x32B8 JUMP JUMPDEST PUSH1 0x40 MLOAD PUSH2 0x695 SWAP2 SWAP1 PUSH2 0x396A JUMP JUMPDEST PUSH1 0x40 MLOAD DUP1 SWAP2 SUB SWAP1 RETURN JUMPDEST PUSH1 0x60 PUSH2 0x6A9 DUP3 PUSH2 0x2619 JUMP JUMPDEST PUSH2 0x6E8 JUMPI PUSH1 0x40 MLOAD PUSH32 0x8C379A000000000000000000000000000000000000000000000000000000000 DUP2 MSTORE PUSH1 0x4 ADD PUSH2 0x6DF SWAP1 PUSH2 0x4347 JUMP JUMPDEST PUSH1 0x40 MLOAD DUP1 SWAP2 SUB SWAP1 REVERT JUMPDEST PUSH1 0x0 DUP1 PUSH1 0x0 DUP5 DUP2 MSTORE PUSH1 0x20 ADD SWAP1 DUP2 MSTORE PUSH1 0x20 ADD PUSH1 0x0 KECCAK256 SWAP1 POP PUSH1 0x0 DUP2 PUSH1 0x8 ADD SLOAD PUSH8 0xFFFFFFFFFFFFFFFF DUP2 GT ISZERO PUSH2 0x71E JUMPI PUSH2 0x71D PUSH2 0x398F JUMP JUMPDEST JUMPDEST PUSH1 0x40 MLOAD SWAP1 DUP1 DUP3 MSTORE DUP1 PUSH1 0x20 MUL PUSH1 0x20 ADD DUP3 ADD PUSH1 0x40 MSTORE DUP1 ISZERO PUSH2 0x757 JUMPI DUP2 PUSH1 0x20 ADD JUMPDEST PUSH2 0x744 PUSH2 0x336B JUMP JUMPDEST DUP2 MSTORE PUSH1 0x20 ADD SWAP1 PUSH1 0x1 SWAP1 SUB SWAP1 DUP2 PUSH2 0x73C JUMPI SWAP1 POP JUMPDEST POP SWAP1 POP PUSH1 0x0 DUP1 PUSH1 0x1 SWAP1 POP JUMPDEST DUP4 PUSH1 0x8 ADD SLOAD DUP2 GT PUSH2 0xC94 JUMPI PUSH1 0x0 DUP5 PUSH1 0x7 ADD PUSH1 0x0 DUP4 DUP2 MSTORE PUSH1 0x20 ADD SWAP1 DUP2 MSTORE PUSH1 0x20 ADD PUSH1 0x0 KECCAK256 SWAP1 POP PUSH1 0x40 MLOAD DUP1 PUSH2 0x200 ADD PUSH1 0x40 MSTORE DUP1 DUP3 PUSH1 0x0 ADD SLOAD DUP2 MSTORE PUSH1 0x20 ADD DUP3 PUSH1 0x1 ADD PUSH1 0x0 SWAP1 SLOAD SWAP1 PUSH2 0x100 EXP SWAP1 DIV PUSH20 0xFFFFFFFFFFFFFFFFFFFFFFFFFFFFFFFFFFFFFFFF AND PUSH20 0xFFFFFFFFFFFFFFFFFFFFFFFFFFFFFFFFFFFFFFFF AND DUP2 MSTORE PUSH1 0x20 ADD DUP3 PUSH1 0x2 ADD SLOAD DUP2 MSTORE PUSH1 0x20 ADD DUP3 PUSH1 0x3 ADD PUSH1 0x0 SWAP1 SLOAD SWAP1 PUSH2 0x100 EXP SWAP1 DIV PUSH20 0xFFFFFFFFFFFFFFFFFFFFFFFFFFFFFFFFFFFFFFFF AND PUSH20 0xFFFFFFFFFFFFFFFFFFFFFFFFFFFFFFFFFFFFFFFF AND DUP2 MSTORE PUSH1 0x20 ADD DUP3 PUSH1 0x4 ADD DUP1 SLOAD PUSH2 0x835 SWAP1 PUSH2 0x4396 JUMP JUMPDEST DUP1 PUSH1 0x1F ADD PUSH1 0x20 DUP1 SWAP2 DIV MUL PUSH1 0x20 ADD PUSH1 0x40 MLOAD SWAP1 DUP2 ADD PUSH1 0x40 MSTORE DUP1 SWAP3 SWAP2 SWAP1 DUP2 DUP2 MSTORE PUSH1 0x20 ADD DUP3 DUP1 SLOAD PUSH2 0x861 SWAP1 PUSH2 0x4396 JUMP JUMPDEST DUP1 ISZERO PUSH2 0x8AE JUMPI DUP1 PUSH1 0x1F LT PUSH2 0x883 JUMPI PUSH2 0x100 DUP1 DUP4 SLOAD DIV MUL DUP4 MSTORE SWAP2 PUSH1 0x20 ADD SWAP2 PUSH2 0x8AE JUMP JUMPDEST DUP3 ADD SWAP2 SWAP1 PUSH1 0x0 MSTORE PUSH1 0x20 PUSH1 0x0 KECCAK256 SWAP1 JUMPDEST DUP2 SLOAD DUP2 MSTORE SWAP1 PUSH1 0x1 ADD SWAP1 PUSH1 0x20 ADD DUP1 DUP4 GT PUSH2 0x891 JUMPI DUP3 SWAP1 SUB PUSH1 0x1F AND DUP3 ADD SWAP2 JUMPDEST POP POP POP POP POP DUP2 MSTORE PUSH1 0x20 ADD DUP3 PUSH1 0x5 ADD DUP1 SLOAD PUSH2 0x8C7 SWAP1 PUSH2 0x4396 JUMP JUMPDEST DUP1 PUSH1 0x1F ADD PUSH1 0x20 DUP1 SWAP2 DIV MUL PUSH1 0x20 ADD PUSH1 0x40 MLOAD SWAP1 DUP2 ADD PUSH1 0x40 MSTORE DUP1 SWAP3 SWAP2 SWAP1 DUP2 DUP2 MSTORE PUSH1 0x20 ADD DUP3 DUP1 SLOAD PUSH2 0x8F3 SWAP1 PUSH2 0x4396 JUMP JUMPDEST DUP1 ISZERO PUSH2 0x940 JUMPI DUP1 PUSH1 0x1F LT PUSH2 0x915 JUMPI PUSH2 0x100 DUP1 DUP4 SLOAD DIV MUL DUP4 MSTORE SWAP2 PUSH1 0x20 ADD SWAP2 PUSH2 0x940 JUMP JUMPDEST DUP3 ADD SWAP2 SWAP1 PUSH1 0x0 MSTORE PUSH1 0x20 PUSH1 0x0 KECCAK256 SWAP1 JUMPDEST DUP2 SLOAD DUP2 MSTORE SWAP1 PUSH1 0x1 ADD SWAP1 PUSH1 0x20 ADD DUP1 DUP4 GT PUSH2 0x923 JUMPI DUP3 SWAP1 SUB PUSH1 0x1F AND DUP3 ADD SWAP2 JUMPDEST POP POP POP POP POP DUP2 MSTORE PUSH1 0x20 ADD DUP3 PUSH1 0x6 ADD SLOAD DUP2 MSTORE PUSH1 0x20 ADD DUP3 PUSH1 0x7 ADD SLOAD DUP2 MSTORE PUSH1 0x20 ADD DUP3 PUSH1 0x8 ADD SLOAD DUP2 MSTORE PUSH1 0x20 ADD DUP3 PUSH1 0x9 ADD SLOAD DUP2 MSTORE PUSH1 0x20 ADD DUP3 PUSH1 0xA ADD DUP1 SLOAD PUSH2 0x981 SWAP1 PUSH2 0x4396 JUMP JUMPDEST DUP1 PUSH1 0x1F ADD PUSH1 0x20 DUP1 SWAP2 DIV MUL PUSH1 0x20 ADD PUSH1 0x40 MLOAD SWAP1 DUP2 ADD PUSH1 0x40 MSTORE DUP1 SWAP3 SWAP2 SWAP1 DUP2 DUP2 MSTORE PUSH1 0x20 ADD DUP3 DUP1 SLOAD PUSH2 0x9AD SWAP1 PUSH2 0x4396 JUMP JUMPDEST DUP1 ISZERO PUSH2 0x9FA JUMPI DUP1 PUSH1 0x1F LT PUSH2 0x9CF JUMPI PUSH2 0x100 DUP1 DUP4 SLOAD DIV MUL DUP4 MSTORE SWAP2 PUSH1 0x20 ADD SWAP2 PUSH2 0x9FA JUMP JUMPDEST DUP3 ADD SWAP2 SWAP1 PUSH1 0x0 MSTORE PUSH1 0x20 PUSH1 0x0 KECCAK256 SWAP1 JUMPDEST DUP2 SLOAD DUP2 MSTORE SWAP1 PUSH1 0x1 ADD SWAP1 PUSH1 0x20 ADD DUP1 DUP4 GT PUSH2 0x9DD JUMPI DUP3 SWAP1 SUB PUSH1 0x1F AND DUP3 ADD SWAP2 JUMPDEST POP POP POP POP POP DUP2 MSTORE PUSH1 0x20 ADD DUP3 PUSH1 0xB ADD DUP1 SLOAD PUSH2 0xA13 SWAP1 PUSH2 0x4396 JUMP JUMPDEST DUP1 PUSH1 0x1F ADD PUSH1 0x20 DUP1 SWAP2 DIV MUL PUSH1 0x20 ADD PUSH1 0x40 MLOAD SWAP1 DUP2 ADD PUSH1 0x40 MSTORE DUP1 SWAP3 SWAP2 SWAP1 DUP2 DUP2 MSTORE PUSH1 0x20 ADD DUP3 DUP1 SLOAD PUSH2 0xA3F SWAP1 PUSH2 0x4396 JUMP JUMPDEST DUP1 ISZERO PUSH2 0xA8C JUMPI DUP1 PUSH1 0x1F LT PUSH2 0xA61 JUMPI PUSH2 0x100 DUP1 DUP4 SLOAD DIV MUL DUP4 MSTORE SWAP2 PUSH1 0x20 ADD SWAP2 PUSH2 0xA8C JUMP JUMPDEST DUP3 ADD SWAP2 SWAP1 PUSH1 0x0 MSTORE PUSH1 0x20 PUSH1 0x0 KECCAK256 SWAP1 JUMPDEST DUP2 SLOAD DUP2 MSTORE SWAP1 PUSH1 0x1 ADD SWAP1 PUSH1 0x20 ADD DUP1 DUP4 GT PUSH2 0xA6F JUMPI DUP3 SWAP1 SUB PUSH1 0x1F AND DUP3 ADD SWAP2 JUMPDEST POP POP POP POP POP DUP2 MSTORE PUSH1 0x20 ADD DUP3 PUSH1 0xC ADD DUP1 SLOAD PUSH2 0xAA5 SWAP1 PUSH2 0x4396 JUMP JUMPDEST DUP1 PUSH1 0x1F ADD PUSH1 0x20 DUP1 SWAP2 DIV MUL PUSH1 0x20 ADD PUSH1 0x40 MLOAD SWAP1 DUP2 ADD PUSH1 0x40 MSTORE DUP1 SWAP3 SWAP2 SWAP1 DUP2 DUP2 MSTORE PUSH1 0x20 ADD DUP3 DUP1 SLOAD PUSH2 0xAD1 SWAP1 PUSH2 0x4396 JUMP JUMPDEST DUP1 ISZERO PUSH2 0xB1E JUMPI DUP1 PUSH1 0x1F LT PUSH2 0xAF3 JUMPI PUSH2 0x100 DUP1 DUP4 SLOAD DIV MUL DUP4 MSTORE SWAP2 PUSH1 0x20 ADD SWAP2 PUSH2 0xB1E JUMP JUMPDEST DUP3 ADD SWAP2 SWAP1 PUSH1 0x0 MSTORE PUSH1 0x20 PUSH1 0x0 KECCAK256 SWAP1 JUMPDEST DUP2 SLOAD DUP2 MSTORE SWAP1 PUSH1 0x1 ADD SWAP1 PUSH1 0x20 ADD DUP1 DUP4 GT PUSH2 0xB01 JUMPI DUP3 SWAP1 SUB PUSH1 0x1F AND DUP3 ADD SWAP2 JUMPDEST POP POP POP POP POP DUP2 MSTORE PUSH1 0x20 ADD DUP3 PUSH1 0xD ADD DUP1 SLOAD PUSH2 0xB37 SWAP1 PUSH2 0x4396 JUMP JUMPDEST DUP1 PUSH1 0x1F ADD PUSH1 0x20 DUP1 SWAP2 DIV MUL PUSH1 0x20 ADD PUSH1 0x40 MLOAD SWAP1 DUP2 ADD PUSH1 0x40 MSTORE DUP1 SWAP3 SWAP2 SWAP1 DUP2 DUP2 MSTORE PUSH1 0x20 ADD DUP3 DUP1 SLOAD PUSH2 0xB63 SWAP1 PUSH2 0x4396 JUMP JUMPDEST DUP1 ISZERO PUSH2 0xBB0 JUMPI DUP1 PUSH1 0x1F LT PUSH2 0xB85 JUMPI PUSH2 0x100 DUP1 DUP4 SLOAD DIV MUL DUP4 MSTORE SWAP2 PUSH1 0x20 ADD SWAP2 PUSH2 0xBB0 JUMP JUMPDEST DUP3 ADD SWAP2 SWAP1 PUSH1 0x0 MSTORE PUSH1 0x20 PUSH1 0x0 KECCAK256 SWAP1 JUMPDEST DUP2 SLOAD DUP2 MSTORE SWAP1 PUSH1 0x1 ADD SWAP1 PUSH1 0x20 ADD DUP1 DUP4 GT PUSH2 0xB93 JUMPI DUP3 SWAP1 SUB PUSH1 0x1F AND DUP3 ADD SWAP2 JUMPDEST POP POP POP POP POP DUP2 MSTORE PUSH1 0x20 ADD DUP3 PUSH1 0xE ADD DUP1 SLOAD PUSH2 0xBC9 SWAP1 PUSH2 0x4396 JUMP JUMPDEST DUP1 PUSH1 0x1F ADD PUSH1 0x20 DUP1 SWAP2 DIV MUL PUSH1 0x20 ADD PUSH1 0x40 MLOAD SWAP1 DUP2 ADD PUSH1 0x40 MSTORE DUP1 SWAP3 SWAP2 SWAP1 DUP2 DUP2 MSTORE PUSH1 0x20 ADD DUP3 DUP1 SLOAD PUSH2 0xBF5 SWAP1 PUSH2 0x4396 JUMP JUMPDEST DUP1 ISZERO PUSH2 0xC42 JUMPI DUP1 PUSH1 0x1F LT PUSH2 0xC17 JUMPI PUSH2 0x100 DUP1 DUP4 SLOAD DIV MUL DUP4 MSTORE SWAP2 PUSH1 0x20 ADD SWAP2 PUSH2 0xC42 JUMP JUMPDEST DUP3 ADD SWAP2 SWAP1 PUSH1 0x0 MSTORE PUSH1 0x20 PUSH1 0x0 KECCAK256 SWAP1 JUMPDEST DUP2 SLOAD DUP2 MSTORE SWAP1 PUSH1 0x1 ADD SWAP1 PUSH1 0x20 ADD DUP1 DUP4 GT PUSH2 0xC25 JUMPI DUP3 SWAP1 SUB PUSH1 0x1F AND DUP3 ADD SWAP2 JUMPDEST POP POP POP POP POP DUP2 MSTORE PUSH1 0x20 ADD DUP3 PUSH1 0xF ADD SLOAD DUP2 MSTORE POP DUP5 DUP5 DUP2 MLOAD DUP2 LT PUSH2 0xC67 JUMPI PUSH2 0xC66 PUSH2 0x43C8 JUMP JUMPDEST JUMPDEST PUSH1 0x20 MUL PUSH1 0x20 ADD ADD DUP2 SWAP1 MSTORE POP DUP3 DUP1 PUSH2 0xC7D SWAP1 PUSH2 0x4426 JUMP JUMPDEST SWAP4 POP POP POP DUP1 DUP1 PUSH2 0xC8C SWAP1 PUSH2 0x4426 JUMP JUMPDEST SWAP2 POP POP PUSH2 0x762 JUMP JUMPDEST POP DUP2 SWAP4 POP POP POP POP SWAP2 SWAP1 POP JUMP JUMPDEST PUSH1 0x0 DUP1 PUSH1 0x0 DUP4 DUP2 MSTORE PUSH1 0x20 ADD SWAP1 DUP2 MSTORE PUSH1 0x20 ADD PUSH1 0x0 KECCAK256 PUSH1 0x7 ADD PUSH1 0x0 DUP5 DUP2 MSTORE PUSH1 0x20 ADD SWAP1 DUP2 MSTORE PUSH1 0x20 ADD PUSH1 0x0 KECCAK256 PUSH1 0x10 ADD PUSH1 0x0 DUP6 PUSH20 0xFFFFFFFFFFFFFFFFFFFFFFFFFFFFFFFFFFFFFFFF AND PUSH20 0xFFFFFFFFFFFFFFFFFFFFFFFFFFFFFFFFFFFFFFFF AND DUP2 MSTORE PUSH1 0x20 ADD SWAP1 DUP2 MSTORE PUSH1 0x20 ADD PUSH1 0x0 KECCAK256 PUSH1 0x0 SWAP1 SLOAD SWAP1 PUSH2 0x100 EXP SWAP1 DIV PUSH1 0xFF AND SWAP1 POP SWAP4 SWAP3 POP POP POP JUMP JUMPDEST PUSH1 0x0 DUP1 PUSH1 0x0 DUP7 DUP2 MSTORE PUSH1 0x20 ADD SWAP1 DUP2 MSTORE PUSH1 0x20 ADD PUSH1 0x0 KECCAK256 PUSH1 0x7 ADD PUSH1 0x0 DUP6 DUP2 MSTORE PUSH1 0x20 ADD SWAP1 DUP2 MSTORE PUSH1 0x20 ADD PUSH1 0x0 KECCAK256 SWAP1 POP DUP3 DUP2 PUSH1 0xF ADD DUP2 SWAP1 SSTORE POP DUP2 DUP2 PUSH1 0xE ADD SWAP1 DUP1 MLOAD SWAP1 PUSH1 0x20 ADD SWAP1 PUSH2 0xD6A SWAP3 SWAP2 SWAP1 PUSH2 0x3414 JUMP JUMPDEST POP POP POP POP POP POP JUMP JUMPDEST PUSH2 0xD7A PUSH2 0x336B JUMP JUMPDEST PUSH2 0xD83 DUP4 PUSH2 0x2619 JUMP JUMPDEST PUSH2 0xDC2 JUMPI PUSH1 0x40 MLOAD PUSH32 0x8C379A000000000000000000000000000000000000000000000000000000000 DUP2 MSTORE PUSH1 0x4 ADD PUSH2 0xDB9 SWAP1 PUSH2 0x44BB JUMP JUMPDEST PUSH1 0x40 MLOAD DUP1 SWAP2 SUB SWAP1 REVERT JUMPDEST PUSH2 0xDCC DUP3 DUP5 PUSH2 0x3281 JUMP JUMPDEST PUSH2 0xE0B JUMPI PUSH1 0x40 MLOAD PUSH32 0x8C379A000000000000000000000000000000000000000000000000000000000 DUP2 MSTORE PUSH1 0x4 ADD PUSH2 0xE02 SWAP1 PUSH2 0x4527 JUMP JUMPDEST PUSH1 0x40 MLOAD DUP1 SWAP2 SUB SWAP1 REVERT JUMPDEST PUSH1 0x0 DUP1 PUSH1 0x0 DUP6 DUP2 MSTORE PUSH1 0x20 ADD SWAP1 DUP2 MSTORE PUSH1 0x20 ADD PUSH1 0x0 KECCAK256 PUSH1 0x7 ADD PUSH1 0x0 DUP5 DUP2 MSTORE PUSH1 0x20 ADD SWAP1 DUP2 MSTORE PUSH1 0x20 ADD PUSH1 0x0 KECCAK256 SWAP1 POP PUSH1 0x0 PUSH1 0x40 MLOAD DUP1 PUSH2 0x200 ADD PUSH1 0x40 MSTORE DUP1 DUP4 PUSH1 0x0 ADD SLOAD DUP2 MSTORE PUSH1 0x20 ADD DUP4 PUSH1 0x1 ADD PUSH1 0x0 SWAP1 SLOAD SWAP1 PUSH2 0x100 EXP SWAP1 DIV PUSH20 0xFFFFFFFFFFFFFFFFFFFFFFFFFFFFFFFFFFFFFFFF AND PUSH20 0xFFFFFFFFFFFFFFFFFFFFFFFFFFFFFFFFFFFFFFFF AND DUP2 MSTORE PUSH1 0x20 ADD DUP4 PUSH1 0x2 ADD SLOAD DUP2 MSTORE PUSH1 0x20 ADD DUP4 PUSH1 0x3 ADD PUSH1 0x0 SWAP1 SLOAD SWAP1 PUSH2 0x100 EXP SWAP1 DIV PUSH20 0xFFFFFFFFFFFFFFFFFFFFFFFFFFFFFFFFFFFFFFFF AND PUSH20 0xFFFFFFFFFFFFFFFFFFFFFFFFFFFFFFFFFFFFFFFF AND DUP2 MSTORE PUSH1 0x20 ADD DUP4 PUSH1 0x4 ADD DUP1 SLOAD PUSH2 0xEE6 SWAP1 PUSH2 0x4396 JUMP JUMPDEST DUP1 PUSH1 0x1F ADD PUSH1 0x20 DUP1 SWAP2 DIV MUL PUSH1 0x20 ADD PUSH1 0x40 MLOAD SWAP1 DUP2 ADD PUSH1 0x40 MSTORE DUP1 SWAP3 SWAP2 SWAP1 DUP2 DUP2 MSTORE PUSH1 0x20 ADD DUP3 DUP1 SLOAD PUSH2 0xF12 SWAP1 PUSH2 0x4396 JUMP JUMPDEST DUP1 ISZERO PUSH2 0xF5F JUMPI DUP1 PUSH1 0x1F LT PUSH2 0xF34 JUMPI PUSH2 0x100 DUP1 DUP4 SLOAD DIV MUL DUP4 MSTORE SWAP2 PUSH1 0x20 ADD SWAP2 PUSH2 0xF5F JUMP JUMPDEST DUP3 ADD SWAP2 SWAP1 PUSH1 0x0 MSTORE PUSH1 0x20 PUSH1 0x0 KECCAK256 SWAP1 JUMPDEST DUP2 SLOAD DUP2 MSTORE SWAP1 PUSH1 0x1 ADD SWAP1 PUSH1 0x20 ADD DUP1 DUP4 GT PUSH2 0xF42 JUMPI DUP3 SWAP1 SUB PUSH1 0x1F AND DUP3 ADD SWAP2 JUMPDEST POP POP POP POP POP DUP2 MSTORE PUSH1 0x20 ADD DUP4 PUSH1 0x5 ADD DUP1 SLOAD PUSH2 0xF78 SWAP1 PUSH2 0x4396 JUMP JUMPDEST DUP1 PUSH1 0x1F ADD PUSH1 0x20 DUP1 SWAP2 DIV MUL PUSH1 0x20 ADD PUSH1 0x40 MLOAD SWAP1 DUP2 ADD PUSH1 0x40 MSTORE DUP1 SWAP3 SWAP2 SWAP1 DUP2 DUP2 MSTORE PUSH1 0x20 ADD DUP3 DUP1 SLOAD PUSH2 0xFA4 SWAP1 PUSH2 0x4396 JUMP JUMPDEST DUP1 ISZERO PUSH2 0xFF1 JUMPI DUP1 PUSH1 0x1F LT PUSH2 0xFC6 JUMPI PUSH2 0x100 DUP1 DUP4 SLOAD DIV MUL DUP4 MSTORE SWAP2 PUSH1 0x20 ADD SWAP2 PUSH2 0xFF1 JUMP JUMPDEST DUP3 ADD SWAP2 SWAP1 PUSH1 0x0 MSTORE PUSH1 0x20 PUSH1 0x0 KECCAK256 SWAP1 JUMPDEST DUP2 SLOAD DUP2 MSTORE SWAP1 PUSH1 0x1 ADD SWAP1 PUSH1 0x20 ADD DUP1 DUP4 GT PUSH2 0xFD4 JUMPI DUP3 SWAP1 SUB PUSH1 0x1F AND DUP3 ADD SWAP2 JUMPDEST POP POP POP POP POP DUP2 MSTORE PUSH1 0x20 ADD DUP4 PUSH1 0x6 ADD SLOAD DUP2 MSTORE PUSH1 0x20 ADD DUP4 PUSH1 0x7 ADD SLOAD DUP2 MSTORE PUSH1 0x20 ADD DUP4 PUSH1 0x8 ADD SLOAD DUP2 MSTORE PUSH1 0x20 ADD DUP4 PUSH1 0x9 ADD SLOAD DUP2 MSTORE PUSH1 0x20 ADD DUP4 PUSH1 0xA ADD DUP1 SLOAD PUSH2 0x1032 SWAP1 PUSH2 0x4396 JUMP JUMPDEST DUP1 PUSH1 0x1F ADD PUSH1 0x20 DUP1 SWAP2 DIV MUL PUSH1 0x20 ADD PUSH1 0x40 MLOAD SWAP1 DUP2 ADD PUSH1 0x40 MSTORE DUP1 SWAP3 SWAP2 SWAP1 DUP2 DUP2 MSTORE PUSH1 0x20 ADD DUP3 DUP1 SLOAD PUSH2 0x105E SWAP1 PUSH2 0x4396 JUMP JUMPDEST DUP1 ISZERO PUSH2 0x10AB JUMPI DUP1 PUSH1 0x1F LT PUSH2 0x1080 JUMPI PUSH2 0x100 DUP1 DUP4 SLOAD DIV MUL DUP4 MSTORE SWAP2 PUSH1 0x20 ADD SWAP2 PUSH2 0x10AB JUMP JUMPDEST DUP3 ADD SWAP2 SWAP1 PUSH1 0x0 MSTORE PUSH1 0x20 PUSH1 0x0 KECCAK256 SWAP1 JUMPDEST DUP2 SLOAD DUP2 MSTORE SWAP1 PUSH1 0x1 ADD SWAP1 PUSH1 0x20 ADD DUP1 DUP4 GT PUSH2 0x108E JUMPI DUP3 SWAP1 SUB PUSH1 0x1F AND DUP3 ADD SWAP2 JUMPDEST POP POP POP POP POP DUP2 MSTORE PUSH1 0x20 ADD DUP4 PUSH1 0xB ADD DUP1 SLOAD PUSH2 0x10C4 SWAP1 PUSH2 0x4396 JUMP JUMPDEST DUP1 PUSH1 0x1F ADD PUSH1 0x20 DUP1 SWAP2 DIV MUL PUSH1 0x20 ADD PUSH1 0x40 MLOAD SWAP1 DUP2 ADD PUSH1 0x40 MSTORE DUP1 SWAP3 SWAP2 SWAP1 DUP2 DUP2 MSTORE PUSH1 0x20 ADD DUP3 DUP1 SLOAD PUSH2 0x10F0 SWAP1 PUSH2 0x4396 JUMP JUMPDEST DUP1 ISZERO PUSH2 0x113D JUMPI DUP1 PUSH1 0x1F LT PUSH2 0x1112 JUMPI PUSH2 0x100 DUP1 DUP4 SLOAD DIV MUL DUP4 MSTORE SWAP2 PUSH1 0x20 ADD SWAP2 PUSH2 0x113D JUMP JUMPDEST DUP3 ADD SWAP2 SWAP1 PUSH1 0x0 MSTORE PUSH1 0x20 PUSH1 0x0 KECCAK256 SWAP1 JUMPDEST DUP2 SLOAD DUP2 MSTORE SWAP1 PUSH1 0x1 ADD SWAP1 PUSH1 0x20 ADD DUP1 DUP4 GT PUSH2 0x1120 JUMPI DUP3 SWAP1 SUB PUSH1 0x1F AND DUP3 ADD SWAP2 JUMPDEST POP POP POP POP POP DUP2 MSTORE PUSH1 0x20 ADD DUP4 PUSH1 0xC ADD DUP1 SLOAD PUSH2 0x1156 SWAP1 PUSH2 0x4396 JUMP JUMPDEST DUP1 PUSH1 0x1F ADD PUSH1 0x20 DUP1 SWAP2 DIV MUL PUSH1 0x20 ADD PUSH1 0x40 MLOAD SWAP1 DUP2 ADD PUSH1 0x40 MSTORE DUP1 SWAP3 SWAP2 SWAP1 DUP2 DUP2 MSTORE PUSH1 0x20 ADD DUP3 DUP1 SLOAD PUSH2 0x1182 SWAP1 PUSH2 0x4396 JUMP JUMPDEST DUP1 ISZERO PUSH2 0x11CF JUMPI DUP1 PUSH1 0x1F LT PUSH2 0x11A4 JUMPI PUSH2 0x100 DUP1 DUP4 SLOAD DIV MUL DUP4 MSTORE SWAP2 PUSH1 0x20 ADD SWAP2 PUSH2 0x11CF JUMP JUMPDEST DUP3 ADD SWAP2 SWAP1 PUSH1 0x0 MSTORE PUSH1 0x20 PUSH1 0x0 KECCAK256 SWAP1 JUMPDEST DUP2 SLOAD DUP2 MSTORE SWAP1 PUSH1 0x1 ADD SWAP1 PUSH1 0x20 ADD DUP1 DUP4 GT PUSH2 0x11B2 JUMPI DUP3 SWAP1 SUB PUSH1 0x1F AND DUP3 ADD SWAP2 JUMPDEST POP POP POP POP POP DUP2 MSTORE PUSH1 0x20 ADD DUP4 PUSH1 0xD ADD DUP1 SLOAD PUSH2 0x11E8 SWAP1 PUSH2 0x4396 JUMP JUMPDEST DUP1 PUSH1 0x1F ADD PUSH1 0x20 DUP1 SWAP2 DIV MUL PUSH1 0x20 ADD PUSH1 0x40 MLOAD SWAP1 DUP2 ADD PUSH1 0x40 MSTORE DUP1 SWAP3 SWAP2 SWAP1 DUP2 DUP2 MSTORE PUSH1 0x20 ADD DUP3 DUP1 SLOAD PUSH2 0x1214 SWAP1 PUSH2 0x4396 JUMP JUMPDEST DUP1 ISZERO PUSH2 0x1261 JUMPI DUP1 PUSH1 0x1F LT PUSH2 0x1236 JUMPI PUSH2 0x100 DUP1 DUP4 SLOAD DIV MUL DUP4 MSTORE SWAP2 PUSH1 0x20 ADD SWAP2 PUSH2 0x1261 JUMP JUMPDEST DUP3 ADD SWAP2 SWAP1 PUSH1 0x0 MSTORE PUSH1 0x20 PUSH1 0x0 KECCAK256 SWAP1 JUMPDEST DUP2 SLOAD DUP2 MSTORE SWAP1 PUSH1 0x1 ADD SWAP1 PUSH1 0x20 ADD DUP1 DUP4 GT PUSH2 0x1244 JUMPI DUP3 SWAP1 SUB PUSH1 0x1F AND DUP3 ADD SWAP2 JUMPDEST POP POP POP POP POP DUP2 MSTORE PUSH1 0x20 ADD DUP4 PUSH1 0xE ADD DUP1 SLOAD PUSH2 0x127A SWAP1 PUSH2 0x4396 JUMP JUMPDEST DUP1 PUSH1 0x1F ADD PUSH1 0x20 DUP1 SWAP2 DIV MUL PUSH1 0x20 ADD PUSH1 0x40 MLOAD SWAP1 DUP2 ADD PUSH1 0x40 MSTORE DUP1 SWAP3 SWAP2 SWAP1 DUP2 DUP2 MSTORE PUSH1 0x20 ADD DUP3 DUP1 SLOAD PUSH2 0x12A6 SWAP1 PUSH2 0x4396 JUMP JUMPDEST DUP1 ISZERO PUSH2 0x12F3 JUMPI DUP1 PUSH1 0x1F LT PUSH2 0x12C8 JUMPI PUSH2 0x100 DUP1 DUP4 SLOAD DIV MUL DUP4 MSTORE SWAP2 PUSH1 0x20 ADD SWAP2 PUSH2 0x12F3 JUMP JUMPDEST DUP3 ADD SWAP2 SWAP1 PUSH1 0x0 MSTORE PUSH1 0x20 PUSH1 0x0 KECCAK256 SWAP1 JUMPDEST DUP2 SLOAD DUP2 MSTORE SWAP1 PUSH1 0x1 ADD SWAP1 PUSH1 0x20 ADD DUP1 DUP4 GT PUSH2 0x12D6 JUMPI DUP3 SWAP1 SUB PUSH1 0x1F AND DUP3 ADD SWAP2 JUMPDEST POP POP POP POP POP DUP2 MSTORE PUSH1 0x20 ADD DUP4 PUSH1 0xF ADD SLOAD DUP2 MSTORE POP SWAP1 POP DUP1 SWAP3 POP POP POP SWAP3 SWAP2 POP POP JUMP JUMPDEST PUSH1 0x0 DUP1 PUSH1 0x0 DUP5 DUP2 MSTORE PUSH1 0x20 ADD SWAP1 DUP2 MSTORE PUSH1 0x20 ADD PUSH1 0x0 KECCAK256 SWAP1 POP PUSH1 0x0 DUP2 PUSH1 0x7 ADD PUSH1 0x0 DUP5 DUP2 MSTORE PUSH1 0x20 ADD SWAP1 DUP2 MSTORE PUSH1 0x20 ADD PUSH1 0x0 KECCAK256 SWAP1 POP PUSH2 0x134A DUP5 PUSH2 0x2619 JUMP JUMPDEST PUSH2 0x1389 JUMPI PUSH1 0x40 MLOAD PUSH32 0x8C379A000000000000000000000000000000000000000000000000000000000 DUP2 MSTORE PUSH1 0x4 ADD PUSH2 0x1380 SWAP1 PUSH2 0x44BB JUMP JUMPDEST PUSH1 0x40 MLOAD DUP1 SWAP2 SUB SWAP1 REVERT JUMPDEST PUSH2 0x1393 CALLER DUP6 PUSH2 0x197E JUMP JUMPDEST PUSH2 0x13D2 JUMPI PUSH1 0x40 MLOAD PUSH32 0x8C379A000000000000000000000000000000000000000000000000000000000 DUP2 MSTORE PUSH1 0x4 ADD PUSH2 0x13C9 SWAP1 PUSH2 0x4593 JUMP JUMPDEST PUSH1 0x40 MLOAD DUP1 SWAP2 SUB SWAP1 REVERT JUMPDEST PUSH2 0x13DC DUP4 DUP6 PUSH2 0x3281 JUMP JUMPDEST PUSH2 0x141B JUMPI PUSH1 0x40 MLOAD PUSH32 0x8C379A000000000000000000000000000000000000000000000000000000000 DUP2 MSTORE PUSH1 0x4 ADD PUSH2 0x1412 SWAP1 PUSH2 0x4527 JUMP JUMPDEST PUSH1 0x40 MLOAD DUP1 SWAP2 SUB SWAP1 REVERT JUMPDEST PUSH2 0x1425 DUP5 DUP5 PUSH2 0x32DE JUMP JUMPDEST PUSH2 0x1464 JUMPI PUSH1 0x40 MLOAD PUSH32 0x8C379A000000000000000000000000000000000000000000000000000000000 DUP2 MSTORE PUSH1 0x4 ADD PUSH2 0x145B SWAP1 PUSH2 0x4625 JUMP JUMPDEST PUSH1 0x40 MLOAD DUP1 SWAP2 SUB SWAP1 REVERT JUMPDEST DUP1 PUSH1 0x2 ADD SLOAD DUP3 PUSH1 0x4 ADD SLOAD LT ISZERO PUSH2 0x14AF JUMPI PUSH1 0x40 MLOAD PUSH32 0x8C379A000000000000000000000000000000000000000000000000000000000 DUP2 MSTORE PUSH1 0x4 ADD PUSH2 0x14A6 SWAP1 PUSH2 0x46B7 JUMP JUMPDEST PUSH1 0x40 MLOAD DUP1 SWAP2 SUB SWAP1 REVERT JUMPDEST DUP1 PUSH1 0x7 ADD SLOAD DUP2 PUSH1 0x6 ADD SLOAD GT PUSH2 0x14F9 JUMPI PUSH1 0x40 MLOAD PUSH32 0x8C379A000000000000000000000000000000000000000000000000000000000 DUP2 MSTORE PUSH1 0x4 ADD PUSH2 0x14F0 SWAP1 PUSH2 0x4749 JUMP JUMPDEST PUSH1 0x40 MLOAD DUP1 SWAP2 SUB SWAP1 REVERT JUMPDEST PUSH2 0x1503 DUP5 DUP5 PUSH2 0x2B9C JUMP JUMPDEST ISZERO PUSH2 0x1543 JUMPI PUSH1 0x40 MLOAD PUSH32 0x8C379A000000000000000000000000000000000000000000000000000000000 DUP2 MSTORE PUSH1 0x4 ADD PUSH2 0x153A SWAP1 PUSH2 0x47DB JUMP JUMPDEST PUSH1 0x40 MLOAD DUP1 SWAP2 SUB SWAP1 REVERT JUMPDEST PUSH1 0x40 MLOAD DUP1 PUSH1 0x40 ADD PUSH1 0x40 MSTORE DUP1 PUSH1 0x8 DUP2 MSTORE PUSH1 0x20 ADD PUSH32 0x4578656375746564000000000000000000000000000000000000000000000000 DUP2 MSTORE POP DUP2 PUSH1 0x4 ADD SWAP1 DUP1 MLOAD SWAP1 PUSH1 0x20 ADD SWAP1 PUSH2 0x1590 SWAP3 SWAP2 SWAP1 PUSH2 0x3414 JUMP JUMPDEST POP DUP1 PUSH1 0x2 ADD SLOAD DUP3 PUSH1 0x4 ADD PUSH1 0x0 DUP3 DUP3 SLOAD PUSH2 0x15A9 SWAP2 SWAP1 PUSH2 0x47FB JUMP JUMPDEST SWAP3 POP POP DUP2 SWAP1 SSTORE POP DUP1 PUSH1 0x3 ADD PUSH1 0x0 SWAP1 SLOAD SWAP1 PUSH2 0x100 EXP SWAP1 DIV PUSH20 0xFFFFFFFFFFFFFFFFFFFFFFFFFFFFFFFFFFFFFFFF AND PUSH20 0xFFFFFFFFFFFFFFFFFFFFFFFFFFFFFFFFFFFFFFFF AND PUSH2 0x8FC DUP3 PUSH1 0x2 ADD SLOAD SWAP1 DUP2 ISZERO MUL SWAP1 PUSH1 0x40 MLOAD PUSH1 0x0 PUSH1 0x40 MLOAD DUP1 DUP4 SUB DUP2 DUP6 DUP9 DUP9 CALL SWAP4 POP POP POP POP ISZERO DUP1 ISZERO PUSH2 0x161E JUMPI RETURNDATASIZE PUSH1 0x0 DUP1 RETURNDATACOPY RETURNDATASIZE PUSH1 0x0 REVERT JUMPDEST POP POP POP POP POP JUMP JUMPDEST PUSH1 0x0 DUP1 PUSH1 0x0 DUP5 DUP2 MSTORE PUSH1 0x20 ADD SWAP1 DUP2 MSTORE PUSH1 0x20 ADD PUSH1 0x0 KECCAK256 PUSH1 0xC ADD PUSH1 0x0 DUP4 PUSH20 0xFFFFFFFFFFFFFFFFFFFFFFFFFFFFFFFFFFFFFFFF AND PUSH20 0xFFFFFFFFFFFFFFFFFFFFFFFFFFFFFFFFFFFFFFFF AND DUP2 MSTORE PUSH1 0x20 ADD SWAP1 DUP2 MSTORE PUSH1 0x20 ADD PUSH1 0x0 KECCAK256 PUSH1 0x0 SWAP1 SLOAD SWAP1 PUSH2 0x100 EXP SWAP1 DIV PUSH1 0xFF AND SWAP1 POP SWAP3 SWAP2 POP POP JUMP JUMPDEST PUSH2 0x1698 DUP2 PUSH2 0x2619 JUMP JUMPDEST PUSH2 0x16D7 JUMPI PUSH1 0x40 MLOAD PUSH32 0x8C379A000000000000000000000000000000000000000000000000000000000 DUP2 MSTORE PUSH1 0x4 ADD PUSH2 0x16CE SWAP1 PUSH2 0x44BB JUMP JUMPDEST PUSH1 0x40 MLOAD DUP1 SWAP2 SUB SWAP1 REVERT JUMPDEST PUSH1 0x0 DUP1 PUSH1 0x0 DUP4 DUP2 MSTORE PUSH1 0x20 ADD SWAP1 DUP2 MSTORE PUSH1 0x20 ADD PUSH1 0x0 KECCAK256 SWAP1 POP PUSH2 0x16F7 CALLER DUP4 PUSH2 0x197E JUMP JUMPDEST PUSH2 0x1736 JUMPI PUSH1 0x40 MLOAD PUSH32 0x8C379A000000000000000000000000000000000000000000000000000000000 DUP2 MSTORE PUSH1 0x4 ADD PUSH2 0x172D SWAP1 PUSH2 0x4593 JUMP JUMPDEST PUSH1 0x40 MLOAD DUP1 SWAP2 SUB SWAP1 REVERT JUMPDEST PUSH1 0x0 CALLVALUE GT PUSH2 0x1779 JUMPI PUSH1 0x40 MLOAD PUSH32 0x8C379A000000000000000000000000000000000000000000000000000000000 DUP2 MSTORE PUSH1 0x4 ADD PUSH2 0x1770 SWAP1 PUSH2 0x48A1 JUMP JUMPDEST PUSH1 0x40 MLOAD DUP1 SWAP2 SUB SWAP1 REVERT JUMPDEST PUSH2 0x1782 DUP3 PUSH2 0x32B8 JUMP JUMPDEST PUSH2 0x17C1 JUMPI PUSH1 0x40 MLOAD PUSH32 0x8C379A000000000000000000000000000000000000000000000000000000000 DUP2 MSTORE PUSH1 0x4 ADD PUSH2 0x17B8 SWAP1 PUSH2 0x490D JUMP JUMPDEST PUSH1 0x40 MLOAD DUP1 SWAP2 SUB SWAP1 REVERT JUMPDEST PUSH1 0x0 DUP2 PUSH1 0x2 ADD PUSH1 0x0 CALLER PUSH20 0xFFFFFFFFFFFFFFFFFFFFFFFFFFFFFFFFFFFFFFFF AND PUSH20 0xFFFFFFFFFFFFFFFFFFFFFFFFFFFFFFFFFFFFFFFF AND DUP2 MSTORE PUSH1 0x20 ADD SWAP1 DUP2 MSTORE PUSH1 0x20 ADD PUSH1 0x0 KECCAK256 SWAP1 POP CALLVALUE DUP2 PUSH1 0x1 ADD PUSH1 0x0 DUP3 DUP3 SLOAD PUSH2 0x181A SWAP2 SWAP1 PUSH2 0x492D JUMP JUMPDEST SWAP3 POP POP DUP2 SWAP1 SSTORE POP PUSH1 0x0 PUSH1 0x40 MLOAD DUP1 PUSH1 0x40 ADD PUSH1 0x40 MSTORE DUP1 CALLER PUSH20 0xFFFFFFFFFFFFFFFFFFFFFFFFFFFFFFFFFFFFFFFF AND DUP2 MSTORE PUSH1 0x20 ADD PUSH1 0x0 DUP2 MSTORE POP SWAP1 POP PUSH1 0x1 DUP4 PUSH1 0xC ADD PUSH1 0x0 CALLER PUSH20 0xFFFFFFFFFFFFFFFFFFFFFFFFFFFFFFFFFFFFFFFF AND PUSH20 0xFFFFFFFFFFFFFFFFFFFFFFFFFFFFFFFFFFFFFFFF AND DUP2 MSTORE PUSH1 0x20 ADD SWAP1 DUP2 MSTORE PUSH1 0x20 ADD PUSH1 0x0 KECCAK256 PUSH1 0x0 PUSH2 0x100 EXP DUP2 SLOAD DUP2 PUSH1 0xFF MUL NOT AND SWAP1 DUP4 ISZERO ISZERO MUL OR SWAP1 SSTORE POP DUP1 DUP4 PUSH1 0x2 ADD PUSH1 0x0 CALLER PUSH20 0xFFFFFFFFFFFFFFFFFFFFFFFFFFFFFFFFFFFFFFFF AND PUSH20 0xFFFFFFFFFFFFFFFFFFFFFFFFFFFFFFFFFFFFFFFF AND DUP2 MSTORE PUSH1 0x20 ADD SWAP1 DUP2 MSTORE PUSH1 0x20 ADD PUSH1 0x0 KECCAK256 PUSH1 0x0 DUP3 ADD MLOAD DUP2 PUSH1 0x0 ADD PUSH1 0x0 PUSH2 0x100 EXP DUP2 SLOAD DUP2 PUSH20 0xFFFFFFFFFFFFFFFFFFFFFFFFFFFFFFFFFFFFFFFF MUL NOT AND SWAP1 DUP4 PUSH20 0xFFFFFFFFFFFFFFFFFFFFFFFFFFFFFFFFFFFFFFFF AND MUL OR SWAP1 SSTORE POP PUSH1 0x20 DUP3 ADD MLOAD DUP2 PUSH1 0x1 ADD SSTORE SWAP1 POP POP PUSH1 0x1 DUP4 PUSH1 0x3 ADD PUSH1 0x0 DUP3 DUP3 SLOAD PUSH2 0x1956 SWAP2 SWAP1 PUSH2 0x492D JUMP JUMPDEST SWAP3 POP POP DUP2 SWAP1 SSTORE POP CALLVALUE DUP4 PUSH1 0x4 ADD PUSH1 0x0 DUP3 DUP3 SLOAD PUSH2 0x1971 SWAP2 SWAP1 PUSH2 0x492D JUMP JUMPDEST SWAP3 POP POP DUP2 SWAP1 SSTORE POP POP POP POP POP JUMP JUMPDEST PUSH1 0x0 DUP1 PUSH20 0xFFFFFFFFFFFFFFFFFFFFFFFFFFFFFFFFFFFFFFFF AND PUSH1 0x0 DUP1 DUP5 DUP2 MSTORE PUSH1 0x20 ADD SWAP1 DUP2 MSTORE PUSH1 0x20 ADD PUSH1 0x0 KECCAK256 PUSH1 0x2 ADD PUSH1 0x0 DUP6 PUSH20 0xFFFFFFFFFFFFFFFFFFFFFFFFFFFFFFFFFFFFFFFF AND PUSH20 0xFFFFFFFFFFFFFFFFFFFFFFFFFFFFFFFFFFFFFFFF AND DUP2 MSTORE PUSH1 0x20 ADD SWAP1 DUP2 MSTORE PUSH1 0x20 ADD PUSH1 0x0 KECCAK256 PUSH1 0x0 ADD PUSH1 0x0 SWAP1 SLOAD SWAP1 PUSH2 0x100 EXP SWAP1 DIV PUSH20 0xFFFFFFFFFFFFFFFFFFFFFFFFFFFFFFFFFFFFFFFF AND PUSH20 0xFFFFFFFFFFFFFFFFFFFFFFFFFFFFFFFFFFFFFFFF AND EQ ISZERO SWAP1 POP SWAP3 SWAP2 POP POP JUMP JUMPDEST PUSH1 0x0 DUP1 PUSH1 0x1 DUP1 SLOAD PUSH2 0x1A3E SWAP2 SWAP1 PUSH2 0x492D JUMP JUMPDEST SWAP1 POP PUSH1 0x0 DUP1 PUSH1 0x0 DUP4 DUP2 MSTORE PUSH1 0x20 ADD SWAP1 DUP2 MSTORE PUSH1 0x20 ADD PUSH1 0x0 KECCAK256 SWAP1 POP DUP2 DUP2 PUSH1 0x0 ADD DUP2 SWAP1 SSTORE POP DUP5 DUP2 PUSH1 0x1 ADD SWAP1 DUP1 MLOAD SWAP1 PUSH1 0x20 ADD SWAP1 PUSH2 0x1A77 SWAP3 SWAP2 SWAP1 PUSH2 0x3414 JUMP JUMPDEST POP PUSH1 0x0 DUP2 PUSH1 0x4 ADD DUP2 SWAP1 SSTORE POP PUSH1 0x0 DUP2 PUSH1 0x8 ADD DUP2 SWAP1 SSTORE POP PUSH1 0x1 DUP2 PUSH1 0x3 ADD DUP2 SWAP1 SSTORE POP TIMESTAMP DUP2 PUSH1 0x5 ADD DUP2 SWAP1 SSTORE POP PUSH1 0xB4 TIMESTAMP PUSH2 0x1AAC SWAP2 SWAP1 PUSH2 0x492D JUMP JUMPDEST DUP2 PUSH1 0x6 ADD DUP2 SWAP1 SSTORE POP DUP4 DUP2 PUSH1 0x9 ADD SWAP1 DUP1 MLOAD SWAP1 PUSH1 0x20 ADD SWAP1 PUSH2 0x1ACC SWAP3 SWAP2 SWAP1 PUSH2 0x3414 JUMP JUMPDEST POP PUSH1 0x40 MLOAD DUP1 PUSH1 0x40 ADD PUSH1 0x40 MSTORE DUP1 PUSH1 0xB DUP2 MSTORE PUSH1 0x20 ADD PUSH32 0x556E2D5665726966696564000000000000000000000000000000000000000000 DUP2 MSTORE POP DUP2 PUSH1 0xA ADD SWAP1 DUP1 MLOAD SWAP1 PUSH1 0x20 ADD SWAP1 PUSH2 0x1B1A SWAP3 SWAP2 SWAP1 PUSH2 0x3414 JUMP JUMPDEST POP PUSH1 0x0 PUSH1 0x40 MLOAD DUP1 PUSH1 0x40 ADD PUSH1 0x40 MSTORE DUP1 CALLER PUSH20 0xFFFFFFFFFFFFFFFFFFFFFFFFFFFFFFFFFFFFFFFF AND DUP2 MSTORE PUSH1 0x20 ADD PUSH1 0x0 DUP2 MSTORE POP SWAP1 POP DUP1 DUP3 PUSH1 0x2 ADD PUSH1 0x0 CALLER PUSH20 0xFFFFFFFFFFFFFFFFFFFFFFFFFFFFFFFFFFFFFFFF AND PUSH20 0xFFFFFFFFFFFFFFFFFFFFFFFFFFFFFFFFFFFFFFFF AND DUP2 MSTORE PUSH1 0x20 ADD SWAP1 DUP2 MSTORE PUSH1 0x20 ADD PUSH1 0x0 KECCAK256 PUSH1 0x0 DUP3 ADD MLOAD DUP2 PUSH1 0x0 ADD PUSH1 0x0 PUSH2 0x100 EXP DUP2 SLOAD DUP2 PUSH20 0xFFFFFFFFFFFFFFFFFFFFFFFFFFFFFFFFFFFFFFFF MUL NOT AND SWAP1 DUP4 PUSH20 0xFFFFFFFFFFFFFFFFFFFFFFFFFFFFFFFFFFFFFFFF AND MUL OR SWAP1 SSTORE POP PUSH1 0x20 DUP3 ADD MLOAD DUP2 PUSH1 0x1 ADD SSTORE SWAP1 POP POP DUP3 PUSH1 0x1 DUP2 SWAP1 SSTORE POP DUP3 SWAP4 POP POP POP POP SWAP3 SWAP2 POP POP JUMP JUMPDEST PUSH2 0x1BFD DUP2 PUSH2 0x2619 JUMP JUMPDEST PUSH2 0x1C3C JUMPI PUSH1 0x40 MLOAD PUSH32 0x8C379A000000000000000000000000000000000000000000000000000000000 DUP2 MSTORE PUSH1 0x4 ADD PUSH2 0x1C33 SWAP1 PUSH2 0x44BB JUMP JUMPDEST PUSH1 0x40 MLOAD DUP1 SWAP2 SUB SWAP1 REVERT JUMPDEST PUSH1 0x0 DUP1 PUSH1 0x0 DUP4 DUP2 MSTORE PUSH1 0x20 ADD SWAP1 DUP2 MSTORE PUSH1 0x20 ADD PUSH1 0x0 KECCAK256 SWAP1 POP PUSH2 0x1C5C CALLER DUP4 PUSH2 0x197E JUMP JUMPDEST PUSH2 0x1C9B JUMPI PUSH1 0x40 MLOAD PUSH32 0x8C379A000000000000000000000000000000000000000000000000000000000 DUP2 MSTORE PUSH1 0x4 ADD PUSH2 0x1C92 SWAP1 PUSH2 0x4593 JUMP JUMPDEST PUSH1 0x40 MLOAD DUP1 SWAP2 SUB SWAP1 REVERT JUMPDEST PUSH1 0x1 DUP2 PUSH1 0x3 ADD PUSH1 0x0 DUP3 DUP3 SLOAD PUSH2 0x1CB0 SWAP2 SWAP1 PUSH2 0x47FB JUMP JUMPDEST SWAP3 POP POP DUP2 SWAP1 SSTORE POP DUP1 PUSH1 0x2 ADD PUSH1 0x0 CALLER PUSH20 0xFFFFFFFFFFFFFFFFFFFFFFFFFFFFFFFFFFFFFFFF AND PUSH20 0xFFFFFFFFFFFFFFFFFFFFFFFFFFFFFFFFFFFFFFFF AND DUP2 MSTORE PUSH1 0x20 ADD SWAP1 DUP2 MSTORE PUSH1 0x20 ADD PUSH1 0x0 KECCAK256 PUSH1 0x0 DUP1 DUP3 ADD PUSH1 0x0 PUSH2 0x100 EXP DUP2 SLOAD SWAP1 PUSH20 0xFFFFFFFFFFFFFFFFFFFFFFFFFFFFFFFFFFFFFFFF MUL NOT AND SWAP1 SSTORE PUSH1 0x1 DUP3 ADD PUSH1 0x0 SWAP1 SSTORE POP POP POP POP JUMP JUMPDEST PUSH1 0x60 PUSH1 0x0 PUSH1 0x1 SLOAD PUSH8 0xFFFFFFFFFFFFFFFF DUP2 GT ISZERO PUSH2 0x1D4E JUMPI PUSH2 0x1D4D PUSH2 0x398F JUMP JUMPDEST JUMPDEST PUSH1 0x40 MLOAD SWAP1 DUP1 DUP3 MSTORE DUP1 PUSH1 0x20 MUL PUSH1 0x20 ADD DUP3 ADD PUSH1 0x40 MSTORE DUP1 ISZERO PUSH2 0x1D87 JUMPI DUP2 PUSH1 0x20 ADD JUMPDEST PUSH2 0x1D74 PUSH2 0x349A JUMP JUMPDEST DUP2 MSTORE PUSH1 0x20 ADD SWAP1 PUSH1 0x1 SWAP1 SUB SWAP1 DUP2 PUSH2 0x1D6C JUMPI SWAP1 POP JUMPDEST POP SWAP1 POP PUSH1 0x0 DUP1 PUSH1 0x1 SWAP1 POP JUMPDEST PUSH1 0x1 SLOAD DUP2 GT PUSH2 0x200B JUMPI PUSH1 0x0 DUP1 PUSH1 0x0 DUP4 DUP2 MSTORE PUSH1 0x20 ADD SWAP1 DUP2 MSTORE PUSH1 0x20 ADD PUSH1 0x0 KECCAK256 SWAP1 POP PUSH2 0x1DBF CALLER DUP3 PUSH1 0x0 ADD SLOAD PUSH2 0x197E JUMP JUMPDEST ISZERO PUSH2 0x1FF7 JUMPI PUSH1 0x40 MLOAD DUP1 PUSH2 0x140 ADD PUSH1 0x40 MSTORE DUP1 DUP3 PUSH1 0x0 ADD SLOAD DUP2 MSTORE PUSH1 0x20 ADD DUP3 PUSH1 0x1 ADD DUP1 SLOAD PUSH2 0x1DE9 SWAP1 PUSH2 0x4396 JUMP JUMPDEST DUP1 PUSH1 0x1F ADD PUSH1 0x20 DUP1 SWAP2 DIV MUL PUSH1 0x20 ADD PUSH1 0x40 MLOAD SWAP1 DUP2 ADD PUSH1 0x40 MSTORE DUP1 SWAP3 SWAP2 SWAP1 DUP2 DUP2 MSTORE PUSH1 0x20 ADD DUP3 DUP1 SLOAD PUSH2 0x1E15 SWAP1 PUSH2 0x4396 JUMP JUMPDEST DUP1 ISZERO PUSH2 0x1E62 JUMPI DUP1 PUSH1 0x1F LT PUSH2 0x1E37 JUMPI PUSH2 0x100 DUP1 DUP4 SLOAD DIV MUL DUP4 MSTORE SWAP2 PUSH1 0x20 ADD SWAP2 PUSH2 0x1E62 JUMP JUMPDEST DUP3 ADD SWAP2 SWAP1 PUSH1 0x0 MSTORE PUSH1 0x20 PUSH1 0x0 KECCAK256 SWAP1 JUMPDEST DUP2 SLOAD DUP2 MSTORE SWAP1 PUSH1 0x1 ADD SWAP1 PUSH1 0x20 ADD DUP1 DUP4 GT PUSH2 0x1E45 JUMPI DUP3 SWAP1 SUB PUSH1 0x1F AND DUP3 ADD SWAP2 JUMPDEST POP POP POP POP POP DUP2 MSTORE PUSH1 0x20 ADD DUP3 PUSH1 0x3 ADD SLOAD DUP2 MSTORE PUSH1 0x20 ADD DUP3 PUSH1 0x8 ADD SLOAD DUP2 MSTORE PUSH1 0x20 ADD DUP3 PUSH1 0x4 ADD SLOAD DUP2 MSTORE PUSH1 0x20 ADD DUP3 PUSH1 0x5 ADD SLOAD DUP2 MSTORE PUSH1 0x20 ADD DUP3 PUSH1 0x6 ADD SLOAD DUP2 MSTORE PUSH1 0x20 ADD DUP3 PUSH1 0x9 ADD DUP1 SLOAD PUSH2 0x1EAD SWAP1 PUSH2 0x4396 JUMP JUMPDEST DUP1 PUSH1 0x1F ADD PUSH1 0x20 DUP1 SWAP2 DIV MUL PUSH1 0x20 ADD PUSH1 0x40 MLOAD SWAP1 DUP2 ADD PUSH1 0x40 MSTORE DUP1 SWAP3 SWAP2 SWAP1 DUP2 DUP2 MSTORE PUSH1 0x20 ADD DUP3 DUP1 SLOAD PUSH2 0x1ED9 SWAP1 PUSH2 0x4396 JUMP JUMPDEST DUP1 ISZERO PUSH2 0x1F26 JUMPI DUP1 PUSH1 0x1F LT PUSH2 0x1EFB JUMPI PUSH2 0x100 DUP1 DUP4 SLOAD DIV MUL DUP4 MSTORE SWAP2 PUSH1 0x20 ADD SWAP2 PUSH2 0x1F26 JUMP JUMPDEST DUP3 ADD SWAP2 SWAP1 PUSH1 0x0 MSTORE PUSH1 0x20 PUSH1 0x0 KECCAK256 SWAP1 JUMPDEST DUP2 SLOAD DUP2 MSTORE SWAP1 PUSH1 0x1 ADD SWAP1 PUSH1 0x20 ADD DUP1 DUP4 GT PUSH2 0x1F09 JUMPI DUP3 SWAP1 SUB PUSH1 0x1F AND DUP3 ADD SWAP2 JUMPDEST POP POP POP POP POP DUP2 MSTORE PUSH1 0x20 ADD DUP3 PUSH1 0xA ADD DUP1 SLOAD PUSH2 0x1F3F SWAP1 PUSH2 0x4396 JUMP JUMPDEST DUP1 PUSH1 0x1F ADD PUSH1 0x20 DUP1 SWAP2 DIV MUL PUSH1 0x20 ADD PUSH1 0x40 MLOAD SWAP1 DUP2 ADD PUSH1 0x40 MSTORE DUP1 SWAP3 SWAP2 SWAP1 DUP2 DUP2 MSTORE PUSH1 0x20 ADD DUP3 DUP1 SLOAD PUSH2 0x1F6B SWAP1 PUSH2 0x4396 JUMP JUMPDEST DUP1 ISZERO PUSH2 0x1FB8 JUMPI DUP1 PUSH1 0x1F LT PUSH2 0x1F8D JUMPI PUSH2 0x100 DUP1 DUP4 SLOAD DIV MUL DUP4 MSTORE SWAP2 PUSH1 0x20 ADD SWAP2 PUSH2 0x1FB8 JUMP JUMPDEST DUP3 ADD SWAP2 SWAP1 PUSH1 0x0 MSTORE PUSH1 0x20 PUSH1 0x0 KECCAK256 SWAP1 JUMPDEST DUP2 SLOAD DUP2 MSTORE SWAP1 PUSH1 0x1 ADD SWAP1 PUSH1 0x20 ADD DUP1 DUP4 GT PUSH2 0x1F9B JUMPI DUP3 SWAP1 SUB PUSH1 0x1F AND DUP3 ADD SWAP2 JUMPDEST POP POP POP POP POP DUP2 MSTORE PUSH1 0x20 ADD DUP3 PUSH1 0xB ADD SLOAD DUP2 MSTORE POP DUP5 DUP5 DUP2 MLOAD DUP2 LT PUSH2 0x1FDD JUMPI PUSH2 0x1FDC PUSH2 0x43C8 JUMP JUMPDEST JUMPDEST PUSH1 0x20 MUL PUSH1 0x20 ADD ADD DUP2 SWAP1 MSTORE POP DUP3 DUP1 PUSH2 0x1FF3 SWAP1 PUSH2 0x4426 JUMP JUMPDEST SWAP4 POP POP JUMPDEST POP DUP1 DUP1 PUSH2 0x2003 SWAP1 PUSH2 0x4426 JUMP JUMPDEST SWAP2 POP POP PUSH2 0x1D92 JUMP JUMPDEST POP DUP2 SWAP3 POP POP POP SWAP1 JUMP JUMPDEST PUSH2 0x201D DUP4 PUSH2 0x2619 JUMP JUMPDEST PUSH2 0x205C JUMPI PUSH1 0x40 MLOAD PUSH32 0x8C379A000000000000000000000000000000000000000000000000000000000 DUP2 MSTORE PUSH1 0x4 ADD PUSH2 0x2053 SWAP1 PUSH2 0x44BB JUMP JUMPDEST PUSH1 0x40 MLOAD DUP1 SWAP2 SUB SWAP1 REVERT JUMPDEST PUSH2 0x2066 DUP4 DUP4 PUSH2 0x2B9C JUMP JUMPDEST PUSH2 0x20A5 JUMPI PUSH1 0x40 MLOAD PUSH32 0x8C379A000000000000000000000000000000000000000000000000000000000 DUP2 MSTORE PUSH1 0x4 ADD PUSH2 0x209C SWAP1 PUSH2 0x49CF JUMP JUMPDEST PUSH1 0x40 MLOAD DUP1 SWAP2 SUB SWAP1 REVERT JUMPDEST PUSH1 0x0 DUP1 PUSH1 0x0 DUP6 DUP2 MSTORE PUSH1 0x20 ADD SWAP1 DUP2 MSTORE PUSH1 0x20 ADD PUSH1 0x0 KECCAK256 SWAP1 POP PUSH2 0x20C5 CALLER DUP6 PUSH2 0x197E JUMP JUMPDEST PUSH2 0x2104 JUMPI PUSH1 0x40 MLOAD PUSH32 0x8C379A000000000000000000000000000000000000000000000000000000000 DUP2 MSTORE PUSH1 0x4 ADD PUSH2 0x20FB SWAP1 PUSH2 0x4593 JUMP JUMPDEST PUSH1 0x40 MLOAD DUP1 SWAP2 SUB SWAP1 REVERT JUMPDEST PUSH2 0x210E DUP4 DUP6 PUSH2 0x3281 JUMP JUMPDEST PUSH2 0x214D JUMPI PUSH1 0x40 MLOAD PUSH32 0x8C379A000000000000000000000000000000000000000000000000000000000 DUP2 MSTORE PUSH1 0x4 ADD PUSH2 0x2144 SWAP1 PUSH2 0x4527 JUMP JUMPDEST PUSH1 0x40 MLOAD DUP1 SWAP2 SUB SWAP1 REVERT JUMPDEST PUSH1 0x0 DUP2 PUSH1 0x7 ADD PUSH1 0x0 DUP6 DUP2 MSTORE PUSH1 0x20 ADD SWAP1 DUP2 MSTORE PUSH1 0x20 ADD PUSH1 0x0 KECCAK256 SWAP1 POP PUSH2 0x2171 CALLER DUP6 DUP8 PUSH2 0xCA0 JUMP JUMPDEST ISZERO PUSH2 0x21B1 JUMPI PUSH1 0x40 MLOAD PUSH32 0x8C379A000000000000000000000000000000000000000000000000000000000 DUP2 MSTORE PUSH1 0x4 ADD PUSH2 0x21A8 SWAP1 PUSH2 0x4A61 JUMP JUMPDEST PUSH1 0x40 MLOAD DUP1 SWAP2 SUB SWAP1 REVERT JUMPDEST PUSH1 0x40 MLOAD DUP1 PUSH1 0x40 ADD PUSH1 0x40 MSTORE DUP1 PUSH1 0x7 DUP2 MSTORE PUSH1 0x20 ADD PUSH32 0x50656E64696E6700000000000000000000000000000000000000000000000000 DUP2 MSTORE POP DUP1 MLOAD SWAP1 PUSH1 0x20 ADD KECCAK256 DUP2 PUSH1 0x4 ADD PUSH1 0x40 MLOAD PUSH2 0x21FF SWAP2 SWAP1 PUSH2 0x4B20 JUMP JUMPDEST PUSH1 0x40 MLOAD DUP1 SWAP2 SUB SWAP1 KECCAK256 EQ PUSH2 0x2247 JUMPI PUSH1 0x40 MLOAD PUSH32 0x8C379A000000000000000000000000000000000000000000000000000000000 DUP2 MSTORE PUSH1 0x4 ADD PUSH2 0x223E SWAP1 PUSH2 0x4BA9 JUMP JUMPDEST PUSH1 0x40 MLOAD DUP1 SWAP2 SUB SWAP1 REVERT JUMPDEST DUP3 DUP2 PUSH1 0x10 ADD PUSH1 0x0 CALLER PUSH20 0xFFFFFFFFFFFFFFFFFFFFFFFFFFFFFFFFFFFFFFFF AND PUSH20 0xFFFFFFFFFFFFFFFFFFFFFFFFFFFFFFFFFFFFFFFF AND DUP2 MSTORE PUSH1 0x20 ADD SWAP1 DUP2 MSTORE PUSH1 0x20 ADD PUSH1 0x0 KECCAK256 PUSH1 0x0 PUSH2 0x100 EXP DUP2 SLOAD DUP2 PUSH1 0xFF MUL NOT AND SWAP1 DUP4 ISZERO ISZERO MUL OR SWAP1 SSTORE POP DUP3 ISZERO PUSH2 0x22C7 JUMPI PUSH1 0x1 DUP2 PUSH1 0x6 ADD PUSH1 0x0 DUP3 DUP3 SLOAD PUSH2 0x22BB SWAP2 SWAP1 PUSH2 0x492D JUMP JUMPDEST SWAP3 POP POP DUP2 SWAP1 SSTORE POP PUSH2 0x22E4 JUMP JUMPDEST PUSH1 0x1 DUP2 PUSH1 0x7 ADD PUSH1 0x0 DUP3 DUP3 SLOAD PUSH2 0x22DC SWAP2 SWAP1 PUSH2 0x492D JUMP JUMPDEST SWAP3 POP POP DUP2 SWAP1 SSTORE POP JUMPDEST POP POP POP POP POP JUMP JUMPDEST PUSH1 0x60 PUSH1 0x0 PUSH1 0x1 SLOAD PUSH8 0xFFFFFFFFFFFFFFFF DUP2 GT ISZERO PUSH2 0x230B JUMPI PUSH2 0x230A PUSH2 0x398F JUMP JUMPDEST JUMPDEST PUSH1 0x40 MLOAD SWAP1 DUP1 DUP3 MSTORE DUP1 PUSH1 0x20 MUL PUSH1 0x20 ADD DUP3 ADD PUSH1 0x40 MSTORE DUP1 ISZERO PUSH2 0x2344 JUMPI DUP2 PUSH1 0x20 ADD JUMPDEST PUSH2 0x2331 PUSH2 0x349A JUMP JUMPDEST DUP2 MSTORE PUSH1 0x20 ADD SWAP1 PUSH1 0x1 SWAP1 SUB SWAP1 DUP2 PUSH2 0x2329 JUMPI SWAP1 POP JUMPDEST POP SWAP1 POP PUSH1 0x0 JUMPDEST PUSH1 0x1 SLOAD DUP2 LT ISZERO PUSH2 0x25AE JUMPI PUSH1 0x0 DUP1 PUSH1 0x0 PUSH1 0x1 DUP5 PUSH2 0x2366 SWAP2 SWAP1 PUSH2 0x492D JUMP JUMPDEST DUP2 MSTORE PUSH1 0x20 ADD SWAP1 DUP2 MSTORE PUSH1 0x20 ADD PUSH1 0x0 KECCAK256 SWAP1 POP PUSH1 0x40 MLOAD DUP1 PUSH2 0x140 ADD PUSH1 0x40 MSTORE DUP1 DUP3 PUSH1 0x0 ADD SLOAD DUP2 MSTORE PUSH1 0x20 ADD DUP3 PUSH1 0x1 ADD DUP1 SLOAD PUSH2 0x239B SWAP1 PUSH2 0x4396 JUMP JUMPDEST DUP1 PUSH1 0x1F ADD PUSH1 0x20 DUP1 SWAP2 DIV MUL PUSH1 0x20 ADD PUSH1 0x40 MLOAD SWAP1 DUP2 ADD PUSH1 0x40 MSTORE DUP1 SWAP3 SWAP2 SWAP1 DUP2 DUP2 MSTORE PUSH1 0x20 ADD DUP3 DUP1 SLOAD PUSH2 0x23C7 SWAP1 PUSH2 0x4396 JUMP JUMPDEST DUP1 ISZERO PUSH2 0x2414 JUMPI DUP1 PUSH1 0x1F LT PUSH2 0x23E9 JUMPI PUSH2 0x100 DUP1 DUP4 SLOAD DIV MUL DUP4 MSTORE SWAP2 PUSH1 0x20 ADD SWAP2 PUSH2 0x2414 JUMP JUMPDEST DUP3 ADD SWAP2 SWAP1 PUSH1 0x0 MSTORE PUSH1 0x20 PUSH1 0x0 KECCAK256 SWAP1 JUMPDEST DUP2 SLOAD DUP2 MSTORE SWAP1 PUSH1 0x1 ADD SWAP1 PUSH1 0x20 ADD DUP1 DUP4 GT PUSH2 0x23F7 JUMPI DUP3 SWAP1 SUB PUSH1 0x1F AND DUP3 ADD SWAP2 JUMPDEST POP POP POP POP POP DUP2 MSTORE PUSH1 0x20 ADD DUP3 PUSH1 0x3 ADD SLOAD DUP2 MSTORE PUSH1 0x20 ADD DUP3 PUSH1 0x5 ADD SLOAD DUP2 MSTORE PUSH1 0x20 ADD DUP3 PUSH1 0x6 ADD SLOAD DUP2 MSTORE PUSH1 0x20 ADD DUP3 PUSH1 0x8 ADD SLOAD DUP2 MSTORE PUSH1 0x20 ADD DUP3 PUSH1 0x4 ADD SLOAD DUP2 MSTORE PUSH1 0x20 ADD DUP3 PUSH1 0x9 ADD DUP1 SLOAD PUSH2 0x245F SWAP1 PUSH2 0x4396 JUMP JUMPDEST DUP1 PUSH1 0x1F ADD PUSH1 0x20 DUP1 SWAP2 DIV MUL PUSH1 0x20 ADD PUSH1 0x40 MLOAD SWAP1 DUP2 ADD PUSH1 0x40 MSTORE DUP1 SWAP3 SWAP2 SWAP1 DUP2 DUP2 MSTORE PUSH1 0x20 ADD DUP3 DUP1 SLOAD PUSH2 0x248B SWAP1 PUSH2 0x4396 JUMP JUMPDEST DUP1 ISZERO PUSH2 0x24D8 JUMPI DUP1 PUSH1 0x1F LT PUSH2 0x24AD JUMPI PUSH2 0x100 DUP1 DUP4 SLOAD DIV MUL DUP4 MSTORE SWAP2 PUSH1 0x20 ADD SWAP2 PUSH2 0x24D8 JUMP JUMPDEST DUP3 ADD SWAP2 SWAP1 PUSH1 0x0 MSTORE PUSH1 0x20 PUSH1 0x0 KECCAK256 SWAP1 JUMPDEST DUP2 SLOAD DUP2 MSTORE SWAP1 PUSH1 0x1 ADD SWAP1 PUSH1 0x20 ADD DUP1 DUP4 GT PUSH2 0x24BB JUMPI DUP3 SWAP1 SUB PUSH1 0x1F AND DUP3 ADD SWAP2 JUMPDEST POP POP POP POP POP DUP2 MSTORE PUSH1 0x20 ADD DUP3 PUSH1 0xA ADD DUP1 SLOAD PUSH2 0x24F1 SWAP1 PUSH2 0x4396 JUMP JUMPDEST DUP1 PUSH1 0x1F ADD PUSH1 0x20 DUP1 SWAP2 DIV MUL PUSH1 0x20 ADD PUSH1 0x40 MLOAD SWAP1 DUP2 ADD PUSH1 0x40 MSTORE DUP1 SWAP3 SWAP2 SWAP1 DUP2 DUP2 MSTORE PUSH1 0x20 ADD DUP3 DUP1 SLOAD PUSH2 0x251D SWAP1 PUSH2 0x4396 JUMP JUMPDEST DUP1 ISZERO PUSH2 0x256A JUMPI DUP1 PUSH1 0x1F LT PUSH2 0x253F JUMPI PUSH2 0x100 DUP1 DUP4 SLOAD DIV MUL DUP4 MSTORE SWAP2 PUSH1 0x20 ADD SWAP2 PUSH2 0x256A JUMP JUMPDEST DUP3 ADD SWAP2 SWAP1 PUSH1 0x0 MSTORE PUSH1 0x20 PUSH1 0x0 KECCAK256 SWAP1 JUMPDEST DUP2 SLOAD DUP2 MSTORE SWAP1 PUSH1 0x1 ADD SWAP1 PUSH1 0x20 ADD DUP1 DUP4 GT PUSH2 0x254D JUMPI DUP3 SWAP1 SUB PUSH1 0x1F AND DUP3 ADD SWAP2 JUMPDEST POP POP POP POP POP DUP2 MSTORE PUSH1 0x20 ADD DUP3 PUSH1 0xB ADD SLOAD DUP2 MSTORE POP DUP4 DUP4 DUP2 MLOAD DUP2 LT PUSH2 0x258F JUMPI PUSH2 0x258E PUSH2 0x43C8 JUMP JUMPDEST JUMPDEST PUSH1 0x20 MUL PUSH1 0x20 ADD ADD DUP2 SWAP1 MSTORE POP POP DUP1 DUP1 PUSH2 0x25A6 SWAP1 PUSH2 0x4426 JUMP JUMPDEST SWAP2 POP POP PUSH2 0x234A JUMP JUMPDEST POP DUP1 SWAP2 POP POP SWAP1 JUMP JUMPDEST PUSH1 0x0 DUP1 PUSH1 0x0 DUP7 DUP2 MSTORE PUSH1 0x20 ADD SWAP1 DUP2 MSTORE PUSH1 0x20 ADD PUSH1 0x0 KECCAK256 PUSH1 0x7 ADD PUSH1 0x0 DUP6 DUP2 MSTORE PUSH1 0x20 ADD SWAP1 DUP2 MSTORE PUSH1 0x20 ADD PUSH1 0x0 KECCAK256 SWAP1 POP DUP3 DUP2 PUSH1 0xB ADD SWAP1 DUP1 MLOAD SWAP1 PUSH1 0x20 ADD SWAP1 PUSH2 0x25F8 SWAP3 SWAP2 SWAP1 PUSH2 0x3414 JUMP JUMPDEST POP DUP2 DUP2 PUSH1 0xC ADD SWAP1 DUP1 MLOAD SWAP1 PUSH1 0x20 ADD SWAP1 PUSH2 0x2611 SWAP3 SWAP2 SWAP1 PUSH2 0x3414 JUMP JUMPDEST POP POP POP POP POP POP JUMP JUMPDEST PUSH1 0x0 DUP1 PUSH1 0x0 DUP1 DUP5 DUP2 MSTORE PUSH1 0x20 ADD SWAP1 DUP2 MSTORE PUSH1 0x20 ADD PUSH1 0x0 KECCAK256 PUSH1 0x0 ADD SLOAD EQ ISZERO SWAP1 POP SWAP2 SWAP1 POP JUMP JUMPDEST PUSH2 0x2644 DUP2 PUSH2 0x2619 JUMP JUMPDEST PUSH2 0x2683 JUMPI PUSH1 0x40 MLOAD PUSH32 0x8C379A000000000000000000000000000000000000000000000000000000000 DUP2 MSTORE PUSH1 0x4 ADD PUSH2 0x267A SWAP1 PUSH2 0x4C15 JUMP JUMPDEST PUSH1 0x40 MLOAD DUP1 SWAP2 SUB SWAP1 REVERT JUMPDEST PUSH1 0x0 DUP1 PUSH1 0x0 DUP4 DUP2 MSTORE PUSH1 0x20 ADD SWAP1 DUP2 MSTORE PUSH1 0x20 ADD PUSH1 0x0 KECCAK256 SWAP1 POP PUSH1 0x40 MLOAD DUP1 PUSH1 0x40 ADD PUSH1 0x40 MSTORE DUP1 PUSH1 0x8 DUP2 MSTORE PUSH1 0x20 ADD PUSH32 0x5665726966696564000000000000000000000000000000000000000000000000 DUP2 MSTORE POP DUP2 PUSH1 0xA ADD SWAP1 DUP1 MLOAD SWAP1 PUSH1 0x20 ADD SWAP1 PUSH2 0x26E6 SWAP3 SWAP2 SWAP1 PUSH2 0x3414 JUMP JUMPDEST POP POP POP JUMP JUMPDEST PUSH1 0x0 DUP1 PUSH1 0x0 DUP1 DUP5 DUP2 MSTORE PUSH1 0x20 ADD SWAP1 DUP2 MSTORE PUSH1 0x20 ADD PUSH1 0x0 KECCAK256 SWAP1 POP PUSH1 0x0 DUP2 PUSH1 0x2 ADD PUSH1 0x0 DUP7 PUSH20 0xFFFFFFFFFFFFFFFFFFFFFFFFFFFFFFFFFFFFFFFF AND PUSH20 0xFFFFFFFFFFFFFFFFFFFFFFFFFFFFFFFFFFFFFFFF AND DUP2 MSTORE PUSH1 0x20 ADD SWAP1 DUP2 MSTORE PUSH1 0x20 ADD PUSH1 0x0 KECCAK256 SWAP1 POP DUP1 PUSH1 0x1 ADD SLOAD SWAP3 POP POP POP SWAP3 SWAP2 POP POP JUMP JUMPDEST PUSH2 0x275F DUP6 PUSH2 0x2619 JUMP JUMPDEST PUSH2 0x279E JUMPI PUSH1 0x40 MLOAD PUSH32 0x8C379A000000000000000000000000000000000000000000000000000000000 DUP2 MSTORE PUSH1 0x4 ADD PUSH2 0x2795 SWAP1 PUSH2 0x44BB JUMP JUMPDEST PUSH1 0x40 MLOAD DUP1 SWAP2 SUB SWAP1 REVERT JUMPDEST PUSH1 0x0 DUP1 PUSH1 0x0 DUP8 DUP2 MSTORE PUSH1 0x20 ADD SWAP1 DUP2 MSTORE PUSH1 0x20 ADD PUSH1 0x0 KECCAK256 SWAP1 POP PUSH2 0x27BE CALLER DUP8 PUSH2 0x197E JUMP JUMPDEST PUSH2 0x27FD JUMPI PUSH1 0x40 MLOAD PUSH32 0x8C379A000000000000000000000000000000000000000000000000000000000 DUP2 MSTORE PUSH1 0x4 ADD PUSH2 0x27F4 SWAP1 PUSH2 0x4593 JUMP JUMPDEST PUSH1 0x40 MLOAD DUP1 SWAP2 SUB SWAP1 REVERT JUMPDEST PUSH1 0x0 DUP6 GT PUSH2 0x2840 JUMPI PUSH1 0x40 MLOAD PUSH32 0x8C379A000000000000000000000000000000000000000000000000000000000 DUP2 MSTORE PUSH1 0x4 ADD PUSH2 0x2837 SWAP1 PUSH2 0x4CA7 JUMP JUMPDEST PUSH1 0x40 MLOAD DUP1 SWAP2 SUB SWAP1 REVERT JUMPDEST PUSH1 0x0 PUSH1 0x1 DUP3 PUSH1 0x8 ADD SLOAD PUSH2 0x2853 SWAP2 SWAP1 PUSH2 0x492D JUMP JUMPDEST SWAP1 POP PUSH1 0x0 DUP1 PUSH1 0x0 DUP10 DUP2 MSTORE PUSH1 0x20 ADD SWAP1 DUP2 MSTORE PUSH1 0x20 ADD PUSH1 0x0 KECCAK256 PUSH1 0x7 ADD PUSH1 0x0 DUP4 DUP2 MSTORE PUSH1 0x20 ADD SWAP1 DUP2 MSTORE PUSH1 0x20 ADD PUSH1 0x0 KECCAK256 SWAP1 POP DUP2 DUP2 PUSH1 0x0 ADD DUP2 SWAP1 SSTORE POP CALLER DUP2 PUSH1 0x1 ADD PUSH1 0x0 PUSH2 0x100 EXP DUP2 SLOAD DUP2 PUSH20 0xFFFFFFFFFFFFFFFFFFFFFFFFFFFFFFFFFFFFFFFF MUL NOT AND SWAP1 DUP4 PUSH20 0xFFFFFFFFFFFFFFFFFFFFFFFFFFFFFFFFFFFFFFFF AND MUL OR SWAP1 SSTORE POP DUP7 DUP2 PUSH1 0x2 ADD DUP2 SWAP1 SSTORE POP DUP6 DUP2 PUSH1 0x3 ADD PUSH1 0x0 PUSH2 0x100 EXP DUP2 SLOAD DUP2 PUSH20 0xFFFFFFFFFFFFFFFFFFFFFFFFFFFFFFFFFFFFFFFF MUL NOT AND SWAP1 DUP4 PUSH20 0xFFFFFFFFFFFFFFFFFFFFFFFFFFFFFFFFFFFFFFFF AND MUL OR SWAP1 SSTORE POP PUSH1 0x40 MLOAD DUP1 PUSH1 0x40 ADD PUSH1 0x40 MSTORE DUP1 PUSH1 0x7 DUP2 MSTORE PUSH1 0x20 ADD PUSH32 0x50656E64696E6700000000000000000000000000000000000000000000000000 DUP2 MSTORE POP DUP2 PUSH1 0x4 ADD SWAP1 DUP1 MLOAD SWAP1 PUSH1 0x20 ADD SWAP1 PUSH2 0x2964 SWAP3 SWAP2 SWAP1 PUSH2 0x3414 JUMP JUMPDEST POP DUP5 DUP2 PUSH1 0x5 ADD SWAP1 DUP1 MLOAD SWAP1 PUSH1 0x20 ADD SWAP1 PUSH2 0x297D SWAP3 SWAP2 SWAP1 PUSH2 0x3414 JUMP JUMPDEST POP PUSH1 0x0 DUP2 PUSH1 0x6 ADD DUP2 SWAP1 SSTORE POP PUSH1 0x0 DUP2 PUSH1 0x7 ADD DUP2 SWAP1 SSTORE POP TIMESTAMP DUP2 PUSH1 0x8 ADD DUP2 SWAP1 SSTORE POP PUSH2 0x12C TIMESTAMP PUSH2 0x29A9 SWAP2 SWAP1 PUSH2 0x492D JUMP JUMPDEST DUP2 PUSH1 0x9 ADD DUP2 SWAP1 SSTORE POP DUP4 DUP2 PUSH1 0xA ADD SWAP1 DUP1 MLOAD SWAP1 PUSH1 0x20 ADD SWAP1 PUSH2 0x29C9 SWAP3 SWAP2 SWAP1 PUSH2 0x3414 JUMP JUMPDEST POP PUSH1 0x40 MLOAD DUP1 PUSH1 0x40 ADD PUSH1 0x40 MSTORE DUP1 PUSH1 0xA DUP2 MSTORE PUSH1 0x20 ADD PUSH32 0x494E2050726F6365737300000000000000000000000000000000000000000000 DUP2 MSTORE POP DUP2 PUSH1 0xB ADD SWAP1 DUP1 MLOAD SWAP1 PUSH1 0x20 ADD SWAP1 PUSH2 0x2A17 SWAP3 SWAP2 SWAP1 PUSH2 0x3414 JUMP JUMPDEST POP PUSH1 0x40 MLOAD DUP1 PUSH1 0x40 ADD PUSH1 0x40 MSTORE DUP1 PUSH1 0xA DUP2 MSTORE PUSH1 0x20 ADD PUSH32 0x494E2D50726F6365737300000000000000000000000000000000000000000000 DUP2 MSTORE POP DUP2 PUSH1 0xC ADD SWAP1 DUP1 MLOAD SWAP1 PUSH1 0x20 ADD SWAP1 PUSH2 0x2A65 SWAP3 SWAP2 SWAP1 PUSH2 0x3414 JUMP JUMPDEST POP PUSH1 0x0 DUP2 PUSH1 0xF ADD DUP2 SWAP1 SSTORE POP PUSH1 0x40 MLOAD DUP1 PUSH1 0x40 ADD PUSH1 0x40 MSTORE DUP1 PUSH1 0xA DUP2 MSTORE PUSH1 0x20 ADD PUSH32 0x494E2D50726F6365737300000000000000000000000000000000000000000000 DUP2 MSTORE POP DUP2 PUSH1 0xE ADD SWAP1 DUP1 MLOAD SWAP1 PUSH1 0x20 ADD SWAP1 PUSH2 0x2ABD SWAP3 SWAP2 SWAP1 PUSH2 0x3414 JUMP JUMPDEST POP PUSH1 0x40 MLOAD DUP1 PUSH1 0x40 ADD PUSH1 0x40 MSTORE DUP1 PUSH1 0xB DUP2 MSTORE PUSH1 0x20 ADD PUSH32 0x556E2D5665726966696564000000000000000000000000000000000000000000 DUP2 MSTORE POP DUP2 PUSH1 0xD ADD SWAP1 DUP1 MLOAD SWAP1 PUSH1 0x20 ADD SWAP1 PUSH2 0x2B0B SWAP3 SWAP2 SWAP1 PUSH2 0x3414 JUMP JUMPDEST POP DUP2 DUP4 PUSH1 0x8 ADD DUP2 SWAP1 SSTORE POP POP POP POP POP POP POP POP POP JUMP JUMPDEST PUSH1 0x0 DUP1 PUSH1 0x0 DUP5 DUP2 MSTORE PUSH1 0x20 ADD SWAP1 DUP2 MSTORE PUSH1 0x20 ADD PUSH1 0x0 KECCAK256 PUSH1 0x7 ADD PUSH1 0x0 DUP4 DUP2 MSTORE PUSH1 0x20 ADD SWAP1 DUP2 MSTORE PUSH1 0x20 ADD PUSH1 0x0 KECCAK256 SWAP1 POP PUSH1 0x40 MLOAD DUP1 PUSH1 0x40 ADD PUSH1 0x40 MSTORE DUP1 PUSH1 0x8 DUP2 MSTORE PUSH1 0x20 ADD PUSH32 0x5665726966696564000000000000000000000000000000000000000000000000 DUP2 MSTORE POP DUP2 PUSH1 0xD ADD SWAP1 DUP1 MLOAD SWAP1 PUSH1 0x20 ADD SWAP1 PUSH2 0x2B96 SWAP3 SWAP2 SWAP1 PUSH2 0x3414 JUMP JUMPDEST POP POP POP POP JUMP JUMPDEST PUSH1 0x0 DUP1 PUSH1 0x0 DUP1 DUP6 DUP2 MSTORE PUSH1 0x20 ADD SWAP1 DUP2 MSTORE PUSH1 0x20 ADD PUSH1 0x0 KECCAK256 PUSH1 0x7 ADD PUSH1 0x0 DUP5 DUP2 MSTORE PUSH1 0x20 ADD SWAP1 DUP2 MSTORE PUSH1 0x20 ADD PUSH1 0x0 KECCAK256 SWAP1 POP TIMESTAMP DUP2 PUSH1 0x9 ADD SLOAD GT SWAP2 POP POP SWAP3 SWAP2 POP POP JUMP JUMPDEST PUSH2 0x2BDF PUSH2 0x349A JUMP JUMPDEST PUSH2 0x2BE8 DUP3 PUSH2 0x2619 JUMP JUMPDEST PUSH2 0x2C27 JUMPI PUSH1 0x40 MLOAD PUSH32 0x8C379A000000000000000000000000000000000000000000000000000000000 DUP2 MSTORE PUSH1 0x4 ADD PUSH2 0x2C1E SWAP1 PUSH2 0x44BB JUMP JUMPDEST PUSH1 0x40 MLOAD DUP1 SWAP2 SUB SWAP1 REVERT JUMPDEST PUSH1 0x0 DUP1 PUSH1 0x0 DUP5 DUP2 MSTORE PUSH1 0x20 ADD SWAP1 DUP2 MSTORE PUSH1 0x20 ADD PUSH1 0x0 KECCAK256 SWAP1 POP PUSH1 0x0 PUSH1 0x40 MLOAD DUP1 PUSH2 0x140 ADD PUSH1 0x40 MSTORE DUP1 DUP4 PUSH1 0x0 ADD SLOAD DUP2 MSTORE PUSH1 0x20 ADD DUP4 PUSH1 0x1 ADD DUP1 SLOAD PUSH2 0x2C64 SWAP1 PUSH2 0x4396 JUMP JUMPDEST DUP1 PUSH1 0x1F ADD PUSH1 0x20 DUP1 SWAP2 DIV MUL PUSH1 0x20 ADD PUSH1 0x40 MLOAD SWAP1 DUP2 ADD PUSH1 0x40 MSTORE DUP1 SWAP3 SWAP2 SWAP1 DUP2 DUP2 MSTORE PUSH1 0x20 ADD DUP3 DUP1 SLOAD PUSH2 0x2C90 SWAP1 PUSH2 0x4396 JUMP JUMPDEST DUP1 ISZERO PUSH2 0x2CDD JUMPI DUP1 PUSH1 0x1F LT PUSH2 0x2CB2 JUMPI PUSH2 0x100 DUP1 DUP4 SLOAD DIV MUL DUP4 MSTORE SWAP2 PUSH1 0x20 ADD SWAP2 PUSH2 0x2CDD JUMP JUMPDEST DUP3 ADD SWAP2 SWAP1 PUSH1 0x0 MSTORE PUSH1 0x20 PUSH1 0x0 KECCAK256 SWAP1 JUMPDEST DUP2 SLOAD DUP2 MSTORE SWAP1 PUSH1 0x1 ADD SWAP1 PUSH1 0x20 ADD DUP1 DUP4 GT PUSH2 0x2CC0 JUMPI DUP3 SWAP1 SUB PUSH1 0x1F AND DUP3 ADD SWAP2 JUMPDEST POP POP POP POP POP DUP2 MSTORE PUSH1 0x20 ADD DUP4 PUSH1 0x3 ADD SLOAD DUP2 MSTORE PUSH1 0x20 ADD DUP4 PUSH1 0x8 ADD SLOAD DUP2 MSTORE PUSH1 0x20 ADD DUP4 PUSH1 0x4 ADD SLOAD DUP2 MSTORE PUSH1 0x20 ADD DUP4 PUSH1 0x5 ADD SLOAD DUP2 MSTORE PUSH1 0x20 ADD DUP4 PUSH1 0x6 ADD SLOAD DUP2 MSTORE PUSH1 0x20 ADD DUP4 PUSH1 0x9 ADD DUP1 SLOAD PUSH2 0x2D28 SWAP1 PUSH2 0x4396 JUMP JUMPDEST DUP1 PUSH1 0x1F ADD PUSH1 0x20 DUP1 SWAP2 DIV MUL PUSH1 0x20 ADD PUSH1 0x40 MLOAD SWAP1 DUP2 ADD PUSH1 0x40 MSTORE DUP1 SWAP3 SWAP2 SWAP1 DUP2 DUP2 MSTORE PUSH1 0x20 ADD DUP3 DUP1 SLOAD PUSH2 0x2D54 SWAP1 PUSH2 0x4396 JUMP JUMPDEST DUP1 ISZERO PUSH2 0x2DA1 JUMPI DUP1 PUSH1 0x1F LT PUSH2 0x2D76 JUMPI PUSH2 0x100 DUP1 DUP4 SLOAD DIV MUL DUP4 MSTORE SWAP2 PUSH1 0x20 ADD SWAP2 PUSH2 0x2DA1 JUMP JUMPDEST DUP3 ADD SWAP2 SWAP1 PUSH1 0x0 MSTORE PUSH1 0x20 PUSH1 0x0 KECCAK256 SWAP1 JUMPDEST DUP2 SLOAD DUP2 MSTORE SWAP1 PUSH1 0x1 ADD SWAP1 PUSH1 0x20 ADD DUP1 DUP4 GT PUSH2 0x2D84 JUMPI DUP3 SWAP1 SUB PUSH1 0x1F AND DUP3 ADD SWAP2 JUMPDEST POP POP POP POP POP DUP2 MSTORE PUSH1 0x20 ADD DUP4 PUSH1 0xA ADD DUP1 SLOAD PUSH2 0x2DBA SWAP1 PUSH2 0x4396 JUMP JUMPDEST DUP1 PUSH1 0x1F ADD PUSH1 0x20 DUP1 SWAP2 DIV MUL PUSH1 0x20 ADD PUSH1 0x40 MLOAD SWAP1 DUP2 ADD PUSH1 0x40 MSTORE DUP1 SWAP3 SWAP2 SWAP1 DUP2 DUP2 MSTORE PUSH1 0x20 ADD DUP3 DUP1 SLOAD PUSH2 0x2DE6 SWAP1 PUSH2 0x4396 JUMP JUMPDEST DUP1 ISZERO PUSH2 0x2E33 JUMPI DUP1 PUSH1 0x1F LT PUSH2 0x2E08 JUMPI PUSH2 0x100 DUP1 DUP4 SLOAD DIV MUL DUP4 MSTORE SWAP2 PUSH1 0x20 ADD SWAP2 PUSH2 0x2E33 JUMP JUMPDEST DUP3 ADD SWAP2 SWAP1 PUSH1 0x0 MSTORE PUSH1 0x20 PUSH1 0x0 KECCAK256 SWAP1 JUMPDEST DUP2 SLOAD DUP2 MSTORE SWAP1 PUSH1 0x1 ADD SWAP1 PUSH1 0x20 ADD DUP1 DUP4 GT PUSH2 0x2E16 JUMPI DUP3 SWAP1 SUB PUSH1 0x1F AND DUP3 ADD SWAP2 JUMPDEST POP POP POP POP POP DUP2 MSTORE PUSH1 0x20 ADD DUP4 PUSH1 0xB ADD SLOAD DUP2 MSTORE POP SWAP1 POP DUP1 SWAP3 POP POP POP SWAP2 SWAP1 POP JUMP JUMPDEST PUSH1 0x0 PUSH1 0x63 PUSH1 0x0 DUP1 DUP5 DUP2 MSTORE PUSH1 0x20 ADD SWAP1 DUP2 MSTORE PUSH1 0x20 ADD PUSH1 0x0 KECCAK256 PUSH1 0x3 ADD SLOAD LT SWAP1 POP SWAP2 SWAP1 POP JUMP JUMPDEST PUSH2 0x2E7C DUP2 PUSH2 0x2619 JUMP JUMPDEST PUSH2 0x2EBB JUMPI PUSH1 0x40 MLOAD PUSH32 0x8C379A000000000000000000000000000000000000000000000000000000000 DUP2 MSTORE PUSH1 0x4 ADD PUSH2 0x2EB2 SWAP1 PUSH2 0x4C15 JUMP JUMPDEST PUSH1 0x40 MLOAD DUP1 SWAP2 SUB SWAP1 REVERT JUMPDEST PUSH1 0x0 DUP1 PUSH1 0x0 DUP4 DUP2 MSTORE PUSH1 0x20 ADD SWAP1 DUP2 MSTORE PUSH1 0x20 ADD PUSH1 0x0 KECCAK256 SWAP1 POP PUSH2 0x2EDA DUP3 PUSH2 0x2E51 JUMP JUMPDEST PUSH2 0x2F19 JUMPI PUSH1 0x40 MLOAD PUSH32 0x8C379A000000000000000000000000000000000000000000000000000000000 DUP2 MSTORE PUSH1 0x4 ADD PUSH2 0x2F10 SWAP1 PUSH2 0x4D39 JUMP JUMPDEST PUSH1 0x40 MLOAD DUP1 SWAP2 SUB SWAP1 REVERT JUMPDEST PUSH2 0x2F23 CALLER DUP4 PUSH2 0x197E JUMP JUMPDEST ISZERO PUSH2 0x2F63 JUMPI PUSH1 0x40 MLOAD PUSH32 0x8C379A000000000000000000000000000000000000000000000000000000000 DUP2 MSTORE PUSH1 0x4 ADD PUSH2 0x2F5A SWAP1 PUSH2 0x4DCB JUMP JUMPDEST PUSH1 0x40 MLOAD DUP1 SWAP2 SUB SWAP1 REVERT JUMPDEST PUSH1 0x0 PUSH1 0x40 MLOAD DUP1 PUSH1 0x40 ADD PUSH1 0x40 MSTORE DUP1 CALLER PUSH20 0xFFFFFFFFFFFFFFFFFFFFFFFFFFFFFFFFFFFFFFFF AND DUP2 MSTORE PUSH1 0x20 ADD PUSH1 0x0 DUP2 MSTORE POP SWAP1 POP DUP1 DUP3 PUSH1 0x2 ADD PUSH1 0x0 CALLER PUSH20 0xFFFFFFFFFFFFFFFFFFFFFFFFFFFFFFFFFFFFFFFF AND PUSH20 0xFFFFFFFFFFFFFFFFFFFFFFFFFFFFFFFFFFFFFFFF AND DUP2 MSTORE PUSH1 0x20 ADD SWAP1 DUP2 MSTORE PUSH1 0x20 ADD PUSH1 0x0 KECCAK256 PUSH1 0x0 DUP3 ADD MLOAD DUP2 PUSH1 0x0 ADD PUSH1 0x0 PUSH2 0x100 EXP DUP2 SLOAD DUP2 PUSH20 0xFFFFFFFFFFFFFFFFFFFFFFFFFFFFFFFFFFFFFFFF MUL NOT AND SWAP1 DUP4 PUSH20 0xFFFFFFFFFFFFFFFFFFFFFFFFFFFFFFFFFFFFFFFF AND MUL OR SWAP1 SSTORE POP PUSH1 0x20 DUP3 ADD MLOAD DUP2 PUSH1 0x1 ADD SSTORE SWAP1 POP POP PUSH1 0x1 DUP3 PUSH1 0x3 ADD PUSH1 0x0 DUP3 DUP3 SLOAD PUSH2 0x303E SWAP2 SWAP1 PUSH2 0x492D JUMP JUMPDEST SWAP3 POP POP DUP2 SWAP1 SSTORE POP POP POP POP JUMP JUMPDEST PUSH2 0x3053 DUP3 PUSH2 0x2619 JUMP JUMPDEST PUSH2 0x3092 JUMPI PUSH1 0x40 MLOAD PUSH32 0x8C379A000000000000000000000000000000000000000000000000000000000 DUP2 MSTORE PUSH1 0x4 ADD PUSH2 0x3089 SWAP1 PUSH2 0x44BB JUMP JUMPDEST PUSH1 0x40 MLOAD DUP1 SWAP2 SUB SWAP1 REVERT JUMPDEST PUSH2 0x309C DUP2 DUP4 PUSH2 0x3281 JUMP JUMPDEST PUSH2 0x30DB JUMPI PUSH1 0x40 MLOAD PUSH32 0x8C379A000000000000000000000000000000000000000000000000000000000 DUP2 MSTORE PUSH1 0x4 ADD PUSH2 0x30D2 SWAP1 PUSH2 0x4527 JUMP JUMPDEST PUSH1 0x40 MLOAD DUP1 SWAP2 SUB SWAP1 REVERT JUMPDEST PUSH2 0x30E5 DUP3 DUP3 PUSH2 0x2B9C JUMP JUMPDEST ISZERO PUSH2 0x3125 JUMPI PUSH1 0x40 MLOAD PUSH32 0x8C379A000000000000000000000000000000000000000000000000000000000 DUP2 MSTORE PUSH1 0x4 ADD PUSH2 0x311C SWAP1 PUSH2 0x47DB JUMP JUMPDEST PUSH1 0x40 MLOAD DUP1 SWAP2 SUB SWAP1 REVERT JUMPDEST PUSH1 0x0 DUP1 PUSH1 0x0 DUP5 DUP2 MSTORE PUSH1 0x20 ADD SWAP1 DUP2 MSTORE PUSH1 0x20 ADD PUSH1 0x0 KECCAK256 PUSH1 0x7 ADD PUSH1 0x0 DUP4 DUP2 MSTORE PUSH1 0x20 ADD SWAP1 DUP2 MSTORE PUSH1 0x20 ADD PUSH1 0x0 KECCAK256 SWAP1 POP PUSH1 0x40 MLOAD DUP1 PUSH1 0x40 ADD PUSH1 0x40 MSTORE DUP1 PUSH1 0x7 DUP2 MSTORE PUSH1 0x20 ADD PUSH32 0x50656E64696E6700000000000000000000000000000000000000000000000000 DUP2 MSTORE POP DUP1 MLOAD SWAP1 PUSH1 0x20 ADD KECCAK256 DUP2 PUSH1 0x4 ADD PUSH1 0x40 MLOAD PUSH2 0x319D SWAP2 SWAP1 PUSH2 0x4B20 JUMP JUMPDEST PUSH1 0x40 MLOAD DUP1 SWAP2 SUB SWAP1 KECCAK256 EQ PUSH2 0x31E5 JUMPI PUSH1 0x40 MLOAD PUSH32 0x8C379A000000000000000000000000000000000000000000000000000000000 DUP2 MSTORE PUSH1 0x4 ADD PUSH2 0x31DC SWAP1 PUSH2 0x4E5D JUMP JUMPDEST PUSH1 0x40 MLOAD DUP1 SWAP2 SUB SWAP1 REVERT JUMPDEST PUSH2 0x31EF DUP4 DUP4 PUSH2 0x32DE JUMP JUMPDEST PUSH2 0x322E JUMPI PUSH1 0x40 MLOAD PUSH32 0x8C379A000000000000000000000000000000000000000000000000000000000 DUP2 MSTORE PUSH1 0x4 ADD PUSH2 0x3225 SWAP1 PUSH2 0x4EEF JUMP JUMPDEST PUSH1 0x40 MLOAD DUP1 SWAP2 SUB SWAP1 REVERT JUMPDEST PUSH1 0x40 MLOAD DUP1 PUSH1 0x40 ADD PUSH1 0x40 MSTORE DUP1 PUSH1 0x6 DUP2 MSTORE PUSH1 0x20 ADD PUSH32 0x436C6F7365640000000000000000000000000000000000000000000000000000 DUP2 MSTORE POP DUP2 PUSH1 0x4 ADD SWAP1 DUP1 MLOAD SWAP1 PUSH1 0x20 ADD SWAP1 PUSH2 0x327B SWAP3 SWAP2 SWAP1 PUSH2 0x3414 JUMP JUMPDEST POP POP POP POP JUMP JUMPDEST PUSH1 0x0 DUP1 PUSH1 0x0 DUP1 DUP5 DUP2 MSTORE PUSH1 0x20 ADD SWAP1 DUP2 MSTORE PUSH1 0x20 ADD PUSH1 0x0 KECCAK256 PUSH1 0x7 ADD PUSH1 0x0 DUP6 DUP2 MSTORE PUSH1 0x20 ADD SWAP1 DUP2 MSTORE PUSH1 0x20 ADD PUSH1 0x0 KECCAK256 PUSH1 0x0 ADD SLOAD EQ ISZERO SWAP1 POP SWAP3 SWAP2 POP POP JUMP JUMPDEST PUSH1 0x0 DUP1 PUSH1 0x0 DUP1 DUP5 DUP2 MSTORE PUSH1 0x20 ADD SWAP1 DUP2 MSTORE PUSH1 0x20 ADD PUSH1 0x0 KECCAK256 SWAP1 POP TIMESTAMP DUP2 PUSH1 0x6 ADD SLOAD GT SWAP2 POP POP SWAP2 SWAP1 POP JUMP JUMPDEST PUSH1 0x0 DUP1 PUSH1 0x0 DUP1 DUP6 DUP2 MSTORE PUSH1 0x20 ADD SWAP1 DUP2 MSTORE PUSH1 0x20 ADD PUSH1 0x0 KECCAK256 SWAP1 POP PUSH1 0x0 DUP2 PUSH1 0x7 ADD PUSH1 0x0 DUP6 DUP2 MSTORE PUSH1 0x20 ADD SWAP1 DUP2 MSTORE PUSH1 0x20 ADD PUSH1 0x0 KECCAK256 SWAP1 POP DUP1 PUSH1 0x1 ADD PUSH1 0x0 SWAP1 SLOAD SWAP1 PUSH2 0x100 EXP SWAP1 DIV PUSH20 0xFFFFFFFFFFFFFFFFFFFFFFFFFFFFFFFFFFFFFFFF AND PUSH20 0xFFFFFFFFFFFFFFFFFFFFFFFFFFFFFFFFFFFFFFFF AND CALLER PUSH20 0xFFFFFFFFFFFFFFFFFFFFFFFFFFFFFFFFFFFFFFFF AND EQ SWAP3 POP POP POP SWAP3 SWAP2 POP POP JUMP JUMPDEST PUSH1 0x40 MLOAD DUP1 PUSH2 0x200 ADD PUSH1 0x40 MSTORE DUP1 PUSH1 0x0 DUP2 MSTORE PUSH1 0x20 ADD PUSH1 0x0 PUSH20 0xFFFFFFFFFFFFFFFFFFFFFFFFFFFFFFFFFFFFFFFF AND DUP2 MSTORE PUSH1 0x20 ADD PUSH1 0x0 DUP2 MSTORE PUSH1 0x20 ADD PUSH1 0x0 PUSH20 0xFFFFFFFFFFFFFFFFFFFFFFFFFFFFFFFFFFFFFFFF AND DUP2 MSTORE PUSH1 0x20 ADD PUSH1 0x60 DUP2 MSTORE PUSH1 0x20 ADD PUSH1 0x60 DUP2 MSTORE PUSH1 0x20 ADD PUSH1 0x0 DUP2 MSTORE PUSH1 0x20 ADD PUSH1 0x0 DUP2 MSTORE PUSH1 0x20 ADD PUSH1 0x0 DUP2 MSTORE PUSH1 0x20 ADD PUSH1 0x0 DUP2 MSTORE PUSH1 0x20 ADD PUSH1 0x60 DUP2 MSTORE PUSH1 0x20 ADD PUSH1 0x60 DUP2 MSTORE PUSH1 0x20 ADD PUSH1 0x60 DUP2 MSTORE PUSH1 0x20 ADD PUSH1 0x60 DUP2 MSTORE PUSH1 0x20 ADD PUSH1 0x60 DUP2 MSTORE PUSH1 0x20 ADD PUSH1 0x0 DUP2 MSTORE POP SWAP1 JUMP JUMPDEST DUP3 DUP1 SLOAD PUSH2 0x3420 SWAP1 PUSH2 0x4396 JUMP JUMPDEST SWAP1 PUSH1 0x0 MSTORE PUSH1 0x20 PUSH1 0x0 KECCAK256 SWAP1 PUSH1 0x1F ADD PUSH1 0x20 SWAP1 DIV DUP2 ADD SWAP3 DUP3 PUSH2 0x3442 JUMPI PUSH1 0x0 DUP6 SSTORE PUSH2 0x3489 JUMP JUMPDEST DUP3 PUSH1 0x1F LT PUSH2 0x345B JUMPI DUP1 MLOAD PUSH1 0xFF NOT AND DUP4 DUP1 ADD OR DUP6 SSTORE PUSH2 0x3489 JUMP JUMPDEST DUP3 DUP1 ADD PUSH1 0x1 ADD DUP6 SSTORE DUP3 ISZERO PUSH2 0x3489 JUMPI SWAP2 DUP3 ADD JUMPDEST DUP3 DUP2 GT ISZERO PUSH2 0x3488 JUMPI DUP3 MLOAD DUP3 SSTORE SWAP2 PUSH1 0x20 ADD SWAP2 SWAP1 PUSH1 0x1 ADD SWAP1 PUSH2 0x346D JUMP JUMPDEST JUMPDEST POP SWAP1 POP PUSH2 0x3496 SWAP2 SWAP1 PUSH2 0x34ED JUMP JUMPDEST POP SWAP1 JUMP JUMPDEST PUSH1 0x40 MLOAD DUP1 PUSH2 0x140 ADD PUSH1 0x40 MSTORE DUP1 PUSH1 0x0 DUP2 MSTORE PUSH1 0x20 ADD PUSH1 0x60 DUP2 MSTORE PUSH1 0x20 ADD PUSH1 0x0 DUP2 MSTORE PUSH1 0x20 ADD PUSH1 0x0 DUP2 MSTORE PUSH1 0x20 ADD PUSH1 0x0 DUP2 MSTORE PUSH1 0x20 ADD PUSH1 0x0 DUP2 MSTORE PUSH1 0x20 ADD PUSH1 0x0 DUP2 MSTORE PUSH1 0x20 ADD PUSH1 0x60 DUP2 MSTORE PUSH1 0x20 ADD PUSH1 0x60 DUP2 MSTORE PUSH1 0x20 ADD PUSH1 0x0 DUP2 MSTORE POP SWAP1 JUMP JUMPDEST JUMPDEST DUP1 DUP3 GT ISZERO PUSH2 0x3506 JUMPI PUSH1 0x0 DUP2 PUSH1 0x0 SWAP1 SSTORE POP PUSH1 0x1 ADD PUSH2 0x34EE JUMP JUMPDEST POP SWAP1 JUMP JUMPDEST PUSH1 0x0 PUSH1 0x40 MLOAD SWAP1 POP SWAP1 JUMP JUMPDEST PUSH1 0x0 DUP1 REVERT JUMPDEST PUSH1 0x0 DUP1 REVERT JUMPDEST PUSH1 0x0 DUP2 SWAP1 POP SWAP2 SWAP1 POP JUMP JUMPDEST PUSH2 0x3531 DUP2 PUSH2 0x351E JUMP JUMPDEST DUP2 EQ PUSH2 0x353C JUMPI PUSH1 0x0 DUP1 REVERT JUMPDEST POP JUMP JUMPDEST PUSH1 0x0 DUP2 CALLDATALOAD SWAP1 POP PUSH2 0x354E DUP2 PUSH2 0x3528 JUMP JUMPDEST SWAP3 SWAP2 POP POP JUMP JUMPDEST PUSH1 0x0 PUSH1 0x20 DUP3 DUP5 SUB SLT ISZERO PUSH2 0x356A JUMPI PUSH2 0x3569 PUSH2 0x3514 JUMP JUMPDEST JUMPDEST PUSH1 0x0 PUSH2 0x3578 DUP5 DUP3 DUP6 ADD PUSH2 0x353F JUMP JUMPDEST SWAP2 POP POP SWAP3 SWAP2 POP POP JUMP JUMPDEST PUSH1 0x0 DUP2 MLOAD SWAP1 POP SWAP2 SWAP1 POP JUMP JUMPDEST PUSH1 0x0 DUP3 DUP3 MSTORE PUSH1 0x20 DUP3 ADD SWAP1 POP SWAP3 SWAP2 POP POP JUMP JUMPDEST PUSH1 0x0 DUP2 SWAP1 POP PUSH1 0x20 DUP3 ADD SWAP1 POP SWAP2 SWAP1 POP JUMP JUMPDEST PUSH2 0x35B6 DUP2 PUSH2 0x351E JUMP JUMPDEST DUP3 MSTORE POP POP JUMP JUMPDEST PUSH1 0x0 PUSH20 0xFFFFFFFFFFFFFFFFFFFFFFFFFFFFFFFFFFFFFFFF DUP3 AND SWAP1 POP SWAP2 SWAP1 POP JUMP JUMPDEST PUSH1 0x0 PUSH2 0x35E7 DUP3 PUSH2 0x35BC JUMP JUMPDEST SWAP1 POP SWAP2 SWAP1 POP JUMP JUMPDEST PUSH2 0x35F7 DUP2 PUSH2 0x35DC JUMP JUMPDEST DUP3 MSTORE POP POP JUMP JUMPDEST PUSH1 0x0 DUP2 MLOAD SWAP1 POP SWAP2 SWAP1 POP JUMP JUMPDEST PUSH1 0x0 DUP3 DUP3 MSTORE PUSH1 0x20 DUP3 ADD SWAP1 POP SWAP3 SWAP2 POP POP JUMP JUMPDEST PUSH1 0x0 JUMPDEST DUP4 DUP2 LT ISZERO PUSH2 0x3637 JUMPI DUP1 DUP3 ADD MLOAD DUP2 DUP5 ADD MSTORE PUSH1 0x20 DUP2 ADD SWAP1 POP PUSH2 0x361C JUMP JUMPDEST DUP4 DUP2 GT ISZERO PUSH2 0x3646 JUMPI PUSH1 0x0 DUP5 DUP5 ADD MSTORE JUMPDEST POP POP POP POP JUMP JUMPDEST PUSH1 0x0 PUSH1 0x1F NOT PUSH1 0x1F DUP4 ADD AND SWAP1 POP SWAP2 SWAP1 POP JUMP JUMPDEST PUSH1 0x0 PUSH2 0x3668 DUP3 PUSH2 0x35FD JUMP JUMPDEST PUSH2 0x3672 DUP2 DUP6 PUSH2 0x3608 JUMP JUMPDEST SWAP4 POP PUSH2 0x3682 DUP2 DUP6 PUSH1 0x20 DUP7 ADD PUSH2 0x3619 JUMP JUMPDEST PUSH2 0x368B DUP2 PUSH2 0x364C JUMP JUMPDEST DUP5 ADD SWAP2 POP POP SWAP3 SWAP2 POP POP JUMP JUMPDEST PUSH1 0x0 PUSH2 0x200 DUP4 ADD PUSH1 0x0 DUP4 ADD MLOAD PUSH2 0x36AF PUSH1 0x0 DUP7 ADD DUP3 PUSH2 0x35AD JUMP JUMPDEST POP PUSH1 0x20 DUP4 ADD MLOAD PUSH2 0x36C2 PUSH1 0x20 DUP7 ADD DUP3 PUSH2 0x35EE JUMP JUMPDEST POP PUSH1 0x40 DUP4 ADD MLOAD PUSH2 0x36D5 PUSH1 0x40 DUP7 ADD DUP3 PUSH2 0x35AD JUMP JUMPDEST POP PUSH1 0x60 DUP4 ADD MLOAD PUSH2 0x36E8 PUSH1 0x60 DUP7 ADD DUP3 PUSH2 0x35EE JUMP JUMPDEST POP PUSH1 0x80 DUP4 ADD MLOAD DUP5 DUP3 SUB PUSH1 0x80 DUP7 ADD MSTORE PUSH2 0x3700 DUP3 DUP3 PUSH2 0x365D JUMP JUMPDEST SWAP2 POP POP PUSH1 0xA0 DUP4 ADD MLOAD DUP5 DUP3 SUB PUSH1 0xA0 DUP7 ADD MSTORE PUSH2 0x371A DUP3 DUP3 PUSH2 0x365D JUMP JUMPDEST SWAP2 POP POP PUSH1 0xC0 DUP4 ADD MLOAD PUSH2 0x372F PUSH1 0xC0 DUP7 ADD DUP3 PUSH2 0x35AD JUMP JUMPDEST POP PUSH1 0xE0 DUP4 ADD MLOAD PUSH2 0x3742 PUSH1 0xE0 DUP7 ADD DUP3 PUSH2 0x35AD JUMP JUMPDEST POP PUSH2 0x100 DUP4 ADD MLOAD PUSH2 0x3757 PUSH2 0x100 DUP7 ADD DUP3 PUSH2 0x35AD JUMP JUMPDEST POP PUSH2 0x120 DUP4 ADD MLOAD PUSH2 0x376C PUSH2 0x120 DUP7 ADD DUP3 PUSH2 0x35AD JUMP JUMPDEST POP PUSH2 0x140 DUP4 ADD MLOAD DUP5 DUP3 SUB PUSH2 0x140 DUP7 ADD MSTORE PUSH2 0x3786 DUP3 DUP3 PUSH2 0x365D JUMP JUMPDEST SWAP2 POP POP PUSH2 0x160 DUP4 ADD MLOAD DUP5 DUP3 SUB PUSH2 0x160 DUP7 ADD MSTORE PUSH2 0x37A2 DUP3 DUP3 PUSH2 0x365D JUMP JUMPDEST SWAP2 POP POP PUSH2 0x180 DUP4 ADD MLOAD DUP5 DUP3 SUB PUSH2 0x180 DUP7 ADD MSTORE PUSH2 0x37BE DUP3 DUP3 PUSH2 0x365D JUMP JUMPDEST SWAP2 POP POP PUSH2 0x1A0 DUP4 ADD MLOAD DUP5 DUP3 SUB PUSH2 0x1A0 DUP7 ADD MSTORE PUSH2 0x37DA DUP3 DUP3 PUSH2 0x365D JUMP JUMPDEST SWAP2 POP POP PUSH2 0x1C0 DUP4 ADD MLOAD DUP5 DUP3 SUB PUSH2 0x1C0 DUP7 ADD MSTORE PUSH2 0x37F6 DUP3 DUP3 PUSH2 0x365D JUMP JUMPDEST SWAP2 POP POP PUSH2 0x1E0 DUP4 ADD MLOAD PUSH2 0x380D PUSH2 0x1E0 DUP7 ADD DUP3 PUSH2 0x35AD JUMP JUMPDEST POP DUP1 SWAP2 POP POP SWAP3 SWAP2 POP POP JUMP JUMPDEST PUSH1 0x0 PUSH2 0x3824 DUP4 DUP4 PUSH2 0x3696 JUMP JUMPDEST SWAP1 POP SWAP3 SWAP2 POP POP JUMP JUMPDEST PUSH1 0x0 PUSH1 0x20 DUP3 ADD SWAP1 POP SWAP2 SWAP1 POP JUMP JUMPDEST PUSH1 0x0 PUSH2 0x3844 DUP3 PUSH2 0x3581 JUMP JUMPDEST PUSH2 0x384E DUP2 DUP6 PUSH2 0x358C JUMP JUMPDEST SWAP4 POP DUP4 PUSH1 0x20 DUP3 MUL DUP6 ADD PUSH2 0x3860 DUP6 PUSH2 0x359D JUMP JUMPDEST DUP1 PUSH1 0x0 JUMPDEST DUP6 DUP2 LT ISZERO PUSH2 0x389C JUMPI DUP5 DUP5 SUB DUP10 MSTORE DUP2 MLOAD PUSH2 0x387D DUP6 DUP3 PUSH2 0x3818 JUMP JUMPDEST SWAP5 POP PUSH2 0x3888 DUP4 PUSH2 0x382C JUMP JUMPDEST SWAP3 POP PUSH1 0x20 DUP11 ADD SWAP10 POP POP PUSH1 0x1 DUP2 ADD SWAP1 POP PUSH2 0x3864 JUMP JUMPDEST POP DUP3 SWAP8 POP DUP8 SWAP6 POP POP POP POP POP POP SWAP3 SWAP2 POP POP JUMP JUMPDEST PUSH1 0x0 PUSH1 0x20 DUP3 ADD SWAP1 POP DUP2 DUP2 SUB PUSH1 0x0 DUP4 ADD MSTORE PUSH2 0x38C8 DUP2 DUP5 PUSH2 0x3839 JUMP JUMPDEST SWAP1 POP SWAP3 SWAP2 POP POP JUMP JUMPDEST PUSH2 0x38D9 DUP2 PUSH2 0x35DC JUMP JUMPDEST DUP2 EQ PUSH2 0x38E4 JUMPI PUSH1 0x0 DUP1 REVERT JUMPDEST POP JUMP JUMPDEST PUSH1 0x0 DUP2 CALLDATALOAD SWAP1 POP PUSH2 0x38F6 DUP2 PUSH2 0x38D0 JUMP JUMPDEST SWAP3 SWAP2 POP POP JUMP JUMPDEST PUSH1 0x0 DUP1 PUSH1 0x0 PUSH1 0x60 DUP5 DUP7 SUB SLT ISZERO PUSH2 0x3915 JUMPI PUSH2 0x3914 PUSH2 0x3514 JUMP JUMPDEST JUMPDEST PUSH1 0x0 PUSH2 0x3923 DUP7 DUP3 DUP8 ADD PUSH2 0x38E7 JUMP JUMPDEST SWAP4 POP POP PUSH1 0x20 PUSH2 0x3934 DUP7 DUP3 DUP8 ADD PUSH2 0x353F JUMP JUMPDEST SWAP3 POP POP PUSH1 0x40 PUSH2 0x3945 DUP7 DUP3 DUP8 ADD PUSH2 0x353F JUMP JUMPDEST SWAP2 POP POP SWAP3 POP SWAP3 POP SWAP3 JUMP JUMPDEST PUSH1 0x0 DUP2 ISZERO ISZERO SWAP1 POP SWAP2 SWAP1 POP JUMP JUMPDEST PUSH2 0x3964 DUP2 PUSH2 0x394F JUMP JUMPDEST DUP3 MSTORE POP POP JUMP JUMPDEST PUSH1 0x0 PUSH1 0x20 DUP3 ADD SWAP1 POP PUSH2 0x397F PUSH1 0x0 DUP4 ADD DUP5 PUSH2 0x395B JUMP JUMPDEST SWAP3 SWAP2 POP POP JUMP JUMPDEST PUSH1 0x0 DUP1 REVERT JUMPDEST PUSH1 0x0 DUP1 REVERT JUMPDEST PUSH32 0x4E487B7100000000000000000000000000000000000000000000000000000000 PUSH1 0x0 MSTORE PUSH1 0x41 PUSH1 0x4 MSTORE PUSH1 0x24 PUSH1 0x0 REVERT JUMPDEST PUSH2 0x39C7 DUP3 PUSH2 0x364C JUMP JUMPDEST DUP2 ADD DUP2 DUP2 LT PUSH8 0xFFFFFFFFFFFFFFFF DUP3 GT OR ISZERO PUSH2 0x39E6 JUMPI PUSH2 0x39E5 PUSH2 0x398F JUMP JUMPDEST JUMPDEST DUP1 PUSH1 0x40 MSTORE POP POP POP JUMP JUMPDEST PUSH1 0x0 PUSH2 0x39F9 PUSH2 0x350A JUMP JUMPDEST SWAP1 POP PUSH2 0x3A05 DUP3 DUP3 PUSH2 0x39BE JUMP JUMPDEST SWAP2 SWAP1 POP JUMP JUMPDEST PUSH1 0x0 PUSH8 0xFFFFFFFFFFFFFFFF DUP3 GT ISZERO PUSH2 0x3A25 JUMPI PUSH2 0x3A24 PUSH2 0x398F JUMP JUMPDEST JUMPDEST PUSH2 0x3A2E DUP3 PUSH2 0x364C JUMP JUMPDEST SWAP1 POP PUSH1 0x20 DUP2 ADD SWAP1 POP SWAP2 SWAP1 POP JUMP JUMPDEST DUP3 DUP2 DUP4 CALLDATACOPY PUSH1 0x0 DUP4 DUP4 ADD MSTORE POP POP POP JUMP JUMPDEST PUSH1 0x0 PUSH2 0x3A5D PUSH2 0x3A58 DUP5 PUSH2 0x3A0A JUMP JUMPDEST PUSH2 0x39EF JUMP JUMPDEST SWAP1 POP DUP3 DUP2 MSTORE PUSH1 0x20 DUP2 ADD DUP5 DUP5 DUP5 ADD GT ISZERO PUSH2 0x3A79 JUMPI PUSH2 0x3A78 PUSH2 0x398A JUMP JUMPDEST JUMPDEST PUSH2 0x3A84 DUP5 DUP3 DUP6 PUSH2 0x3A3B JUMP JUMPDEST POP SWAP4 SWAP3 POP POP POP JUMP JUMPDEST PUSH1 0x0 DUP3 PUSH1 0x1F DUP4 ADD SLT PUSH2 0x3AA1 JUMPI PUSH2 0x3AA0 PUSH2 0x3985 JUMP JUMPDEST JUMPDEST DUP2 CALLDATALOAD PUSH2 0x3AB1 DUP5 DUP3 PUSH1 0x20 DUP7 ADD PUSH2 0x3A4A JUMP JUMPDEST SWAP2 POP POP SWAP3 SWAP2 POP POP JUMP JUMPDEST PUSH1 0x0 DUP1 PUSH1 0x0 DUP1 PUSH1 0x80 DUP6 DUP8 SUB SLT ISZERO PUSH2 0x3AD4 JUMPI PUSH2 0x3AD3 PUSH2 0x3514 JUMP JUMPDEST JUMPDEST PUSH1 0x0 PUSH2 0x3AE2 DUP8 DUP3 DUP9 ADD PUSH2 0x353F JUMP JUMPDEST SWAP5 POP POP PUSH1 0x20 PUSH2 0x3AF3 DUP8 DUP3 DUP9 ADD PUSH2 0x353F JUMP JUMPDEST SWAP4 POP POP PUSH1 0x40 PUSH2 0x3B04 DUP8 DUP3 DUP9 ADD PUSH2 0x353F JUMP JUMPDEST SWAP3 POP POP PUSH1 0x60 DUP6 ADD CALLDATALOAD PUSH8 0xFFFFFFFFFFFFFFFF DUP2 GT ISZERO PUSH2 0x3B25 JUMPI PUSH2 0x3B24 PUSH2 0x3519 JUMP JUMPDEST JUMPDEST PUSH2 0x3B31 DUP8 DUP3 DUP9 ADD PUSH2 0x3A8C JUMP JUMPDEST SWAP2 POP POP SWAP3 SWAP6 SWAP2 SWAP5 POP SWAP3 POP JUMP JUMPDEST PUSH1 0x0 DUP1 PUSH1 0x40 DUP4 DUP6 SUB SLT ISZERO PUSH2 0x3B54 JUMPI PUSH2 0x3B53 PUSH2 0x3514 JUMP JUMPDEST JUMPDEST PUSH1 0x0 PUSH2 0x3B62 DUP6 DUP3 DUP7 ADD PUSH2 0x353F JUMP JUMPDEST SWAP3 POP POP PUSH1 0x20 PUSH2 0x3B73 DUP6 DUP3 DUP7 ADD PUSH2 0x353F JUMP JUMPDEST SWAP2 POP POP SWAP3 POP SWAP3 SWAP1 POP JUMP JUMPDEST PUSH1 0x0 PUSH2 0x200 DUP4 ADD PUSH1 0x0 DUP4 ADD MLOAD PUSH2 0x3B96 PUSH1 0x0 DUP7 ADD DUP3 PUSH2 0x35AD JUMP JUMPDEST POP PUSH1 0x20 DUP4 ADD MLOAD PUSH2 0x3BA9 PUSH1 0x20 DUP7 ADD DUP3 PUSH2 0x35EE JUMP JUMPDEST POP PUSH1 0x40 DUP4 ADD MLOAD PUSH2 0x3BBC PUSH1 0x40 DUP7 ADD DUP3 PUSH2 0x35AD JUMP JUMPDEST POP PUSH1 0x60 DUP4 ADD MLOAD PUSH2 0x3BCF PUSH1 0x60 DUP7 ADD DUP3 PUSH2 0x35EE JUMP JUMPDEST POP PUSH1 0x80 DUP4 ADD MLOAD DUP5 DUP3 SUB PUSH1 0x80 DUP7 ADD MSTORE PUSH2 0x3BE7 DUP3 DUP3 PUSH2 0x365D JUMP JUMPDEST SWAP2 POP POP PUSH1 0xA0 DUP4 ADD MLOAD DUP5 DUP3 SUB PUSH1 0xA0 DUP7 ADD MSTORE PUSH2 0x3C01 DUP3 DUP3 PUSH2 0x365D JUMP JUMPDEST SWAP2 POP POP PUSH1 0xC0 DUP4 ADD MLOAD PUSH2 0x3C16 PUSH1 0xC0 DUP7 ADD DUP3 PUSH2 0x35AD JUMP JUMPDEST POP PUSH1 0xE0 DUP4 ADD MLOAD PUSH2 0x3C29 PUSH1 0xE0 DUP7 ADD DUP3 PUSH2 0x35AD JUMP JUMPDEST POP PUSH2 0x100 DUP4 ADD MLOAD PUSH2 0x3C3E PUSH2 0x100 DUP7 ADD DUP3 PUSH2 0x35AD JUMP JUMPDEST POP PUSH2 0x120 DUP4 ADD MLOAD PUSH2 0x3C53 PUSH2 0x120 DUP7 ADD DUP3 PUSH2 0x35AD JUMP JUMPDEST POP PUSH2 0x140 DUP4 ADD MLOAD DUP5 DUP3 SUB PUSH2 0x140 DUP7 ADD MSTORE PUSH2 0x3C6D DUP3 DUP3 PUSH2 0x365D JUMP JUMPDEST SWAP2 POP POP PUSH2 0x160 DUP4 ADD MLOAD DUP5 DUP3 SUB PUSH2 0x160 DUP7 ADD MSTORE PUSH2 0x3C89 DUP3 DUP3 PUSH2 0x365D JUMP JUMPDEST SWAP2 POP POP PUSH2 0x180 DUP4 ADD MLOAD DUP5 DUP3 SUB PUSH2 0x180 DUP7 ADD MSTORE PUSH2 0x3CA5 DUP3 DUP3 PUSH2 0x365D JUMP JUMPDEST SWAP2 POP POP PUSH2 0x1A0 DUP4 ADD MLOAD DUP5 DUP3 SUB PUSH2 0x1A0 DUP7 ADD MSTORE PUSH2 0x3CC1 DUP3 DUP3 PUSH2 0x365D JUMP JUMPDEST SWAP2 POP POP PUSH2 0x1C0 DUP4 ADD MLOAD DUP5 DUP3 SUB PUSH2 0x1C0 DUP7 ADD MSTORE PUSH2 0x3CDD DUP3 DUP3 PUSH2 0x365D JUMP JUMPDEST SWAP2 POP POP PUSH2 0x1E0 DUP4 ADD MLOAD PUSH2 0x3CF4 PUSH2 0x1E0 DUP7 ADD DUP3 PUSH2 0x35AD JUMP JUMPDEST POP DUP1 SWAP2 POP POP SWAP3 SWAP2 POP POP JUMP JUMPDEST PUSH1 0x0 PUSH1 0x20 DUP3 ADD SWAP1 POP DUP2 DUP2 SUB PUSH1 0x0 DUP4 ADD MSTORE PUSH2 0x3D19 DUP2 DUP5 PUSH2 0x3B7D JUMP JUMPDEST SWAP1 POP SWAP3 SWAP2 POP POP JUMP JUMPDEST PUSH1 0x0 DUP1 PUSH1 0x40 DUP4 DUP6 SUB SLT ISZERO PUSH2 0x3D38 JUMPI PUSH2 0x3D37 PUSH2 0x3514 JUMP JUMPDEST JUMPDEST PUSH1 0x0 PUSH2 0x3D46 DUP6 DUP3 DUP7 ADD PUSH2 0x353F JUMP JUMPDEST SWAP3 POP POP PUSH1 0x20 PUSH2 0x3D57 DUP6 DUP3 DUP7 ADD PUSH2 0x38E7 JUMP JUMPDEST SWAP2 POP POP SWAP3 POP SWAP3 SWAP1 POP JUMP JUMPDEST PUSH1 0x0 DUP1 PUSH1 0x40 DUP4 DUP6 SUB SLT ISZERO PUSH2 0x3D78 JUMPI PUSH2 0x3D77 PUSH2 0x3514 JUMP JUMPDEST JUMPDEST PUSH1 0x0 PUSH2 0x3D86 DUP6 DUP3 DUP7 ADD PUSH2 0x38E7 JUMP JUMPDEST SWAP3 POP POP PUSH1 0x20 PUSH2 0x3D97 DUP6 DUP3 DUP7 ADD PUSH2 0x353F JUMP JUMPDEST SWAP2 POP POP SWAP3 POP SWAP3 SWAP1 POP JUMP JUMPDEST PUSH1 0x0 DUP1 PUSH1 0x40 DUP4 DUP6 SUB SLT ISZERO PUSH2 0x3DB8 JUMPI PUSH2 0x3DB7 PUSH2 0x3514 JUMP JUMPDEST JUMPDEST PUSH1 0x0 DUP4 ADD CALLDATALOAD PUSH8 0xFFFFFFFFFFFFFFFF DUP2 GT ISZERO PUSH2 0x3DD6 JUMPI PUSH2 0x3DD5 PUSH2 0x3519 JUMP JUMPDEST JUMPDEST PUSH2 0x3DE2 DUP6 DUP3 DUP7 ADD PUSH2 0x3A8C JUMP JUMPDEST SWAP3 POP POP PUSH1 0x20 DUP4 ADD CALLDATALOAD PUSH8 0xFFFFFFFFFFFFFFFF DUP2 GT ISZERO PUSH2 0x3E03 JUMPI PUSH2 0x3E02 PUSH2 0x3519 JUMP JUMPDEST JUMPDEST PUSH2 0x3E0F DUP6 DUP3 DUP7 ADD PUSH2 0x3A8C JUMP JUMPDEST SWAP2 POP POP SWAP3 POP SWAP3 SWAP1 POP JUMP JUMPDEST PUSH2 0x3E22 DUP2 PUSH2 0x351E JUMP JUMPDEST DUP3 MSTORE POP POP JUMP JUMPDEST PUSH1 0x0 PUSH1 0x20 DUP3 ADD SWAP1 POP PUSH2 0x3E3D PUSH1 0x0 DUP4 ADD DUP5 PUSH2 0x3E19 JUMP JUMPDEST SWAP3 SWAP2 POP POP JUMP JUMPDEST PUSH1 0x0 DUP2 MLOAD SWAP1 POP SWAP2 SWAP1 POP JUMP JUMPDEST PUSH1 0x0 DUP3 DUP3 MSTORE PUSH1 0x20 DUP3 ADD SWAP1 POP SWAP3 SWAP2 POP POP JUMP JUMPDEST PUSH1 0x0 DUP2 SWAP1 POP PUSH1 0x20 DUP3 ADD SWAP1 POP SWAP2 SWAP1 POP JUMP JUMPDEST PUSH1 0x0 PUSH2 0x140 DUP4 ADD PUSH1 0x0 DUP4 ADD MLOAD PUSH2 0x3E88 PUSH1 0x0 DUP7 ADD DUP3 PUSH2 0x35AD JUMP JUMPDEST POP PUSH1 0x20 DUP4 ADD MLOAD DUP5 DUP3 SUB PUSH1 0x20 DUP7 ADD MSTORE PUSH2 0x3EA0 DUP3 DUP3 PUSH2 0x365D JUMP JUMPDEST SWAP2 POP POP PUSH1 0x40 DUP4 ADD MLOAD PUSH2 0x3EB5 PUSH1 0x40 DUP7 ADD DUP3 PUSH2 0x35AD JUMP JUMPDEST POP PUSH1 0x60 DUP4 ADD MLOAD PUSH2 0x3EC8 PUSH1 0x60 DUP7 ADD DUP3 PUSH2 0x35AD JUMP JUMPDEST POP PUSH1 0x80 DUP4 ADD MLOAD PUSH2 0x3EDB PUSH1 0x80 DUP7 ADD DUP3 PUSH2 0x35AD JUMP JUMPDEST POP PUSH1 0xA0 DUP4 ADD MLOAD PUSH2 0x3EEE PUSH1 0xA0 DUP7 ADD DUP3 PUSH2 0x35AD JUMP JUMPDEST POP PUSH1 0xC0 DUP4 ADD MLOAD PUSH2 0x3F01 PUSH1 0xC0 DUP7 ADD DUP3 PUSH2 0x35AD JUMP JUMPDEST POP PUSH1 0xE0 DUP4 ADD MLOAD DUP5 DUP3 SUB PUSH1 0xE0 DUP7 ADD MSTORE PUSH2 0x3F19 DUP3 DUP3 PUSH2 0x365D JUMP JUMPDEST SWAP2 POP POP PUSH2 0x100 DUP4 ADD MLOAD DUP5 DUP3 SUB PUSH2 0x100 DUP7 ADD MSTORE PUSH2 0x3F35 DUP3 DUP3 PUSH2 0x365D JUMP JUMPDEST SWAP2 POP POP PUSH2 0x120 DUP4 ADD MLOAD PUSH2 0x3F4C PUSH2 0x120 DUP7 ADD DUP3 PUSH2 0x35AD JUMP JUMPDEST POP DUP1 SWAP2 POP POP SWAP3 SWAP2 POP POP JUMP JUMPDEST PUSH1 0x0 PUSH2 0x3F63 DUP4 DUP4 PUSH2 0x3E6F JUMP JUMPDEST SWAP1 POP SWAP3 SWAP2 POP POP JUMP JUMPDEST PUSH1 0x0 PUSH1 0x20 DUP3 ADD SWAP1 POP SWAP2 SWAP1 POP JUMP JUMPDEST PUSH1 0x0 PUSH2 0x3F83 DUP3 PUSH2 0x3E43 JUMP JUMPDEST PUSH2 0x3F8D DUP2 DUP6 PUSH2 0x3E4E JUMP JUMPDEST SWAP4 POP DUP4 PUSH1 0x20 DUP3 MUL DUP6 ADD PUSH2 0x3F9F DUP6 PUSH2 0x3E5F JUMP JUMPDEST DUP1 PUSH1 0x0 JUMPDEST DUP6 DUP2 LT ISZERO PUSH2 0x3FDB JUMPI DUP5 DUP5 SUB DUP10 MSTORE DUP2 MLOAD PUSH2 0x3FBC DUP6 DUP3 PUSH2 0x3F57 JUMP JUMPDEST SWAP5 POP PUSH2 0x3FC7 DUP4 PUSH2 0x3F6B JUMP JUMPDEST SWAP3 POP PUSH1 0x20 DUP11 ADD SWAP10 POP POP PUSH1 0x1 DUP2 ADD SWAP1 POP PUSH2 0x3FA3 JUMP JUMPDEST POP DUP3 SWAP8 POP DUP8 SWAP6 POP POP POP POP POP POP SWAP3 SWAP2 POP POP JUMP JUMPDEST PUSH1 0x0 PUSH1 0x20 DUP3 ADD SWAP1 POP DUP2 DUP2 SUB PUSH1 0x0 DUP4 ADD MSTORE PUSH2 0x4007 DUP2 DUP5 PUSH2 0x3F78 JUMP JUMPDEST SWAP1 POP SWAP3 SWAP2 POP POP JUMP JUMPDEST PUSH2 0x4018 DUP2 PUSH2 0x394F JUMP JUMPDEST DUP2 EQ PUSH2 0x4023 JUMPI PUSH1 0x0 DUP1 REVERT JUMPDEST POP JUMP JUMPDEST PUSH1 0x0 DUP2 CALLDATALOAD SWAP1 POP PUSH2 0x4035 DUP2 PUSH2 0x400F JUMP JUMPDEST SWAP3 SWAP2 POP POP JUMP JUMPDEST PUSH1 0x0 DUP1 PUSH1 0x0 PUSH1 0x60 DUP5 DUP7 SUB SLT ISZERO PUSH2 0x4054 JUMPI PUSH2 0x4053 PUSH2 0x3514 JUMP JUMPDEST JUMPDEST PUSH1 0x0 PUSH2 0x4062 DUP7 DUP3 DUP8 ADD PUSH2 0x353F JUMP JUMPDEST SWAP4 POP POP PUSH1 0x20 PUSH2 0x4073 DUP7 DUP3 DUP8 ADD PUSH2 0x353F JUMP JUMPDEST SWAP3 POP POP PUSH1 0x40 PUSH2 0x4084 DUP7 DUP3 DUP8 ADD PUSH2 0x4026 JUMP JUMPDEST SWAP2 POP POP SWAP3 POP SWAP3 POP SWAP3 JUMP JUMPDEST PUSH1 0x0 DUP1 PUSH1 0x0 DUP1 PUSH1 0x80 DUP6 DUP8 SUB SLT ISZERO PUSH2 0x40A8 JUMPI PUSH2 0x40A7 PUSH2 0x3514 JUMP JUMPDEST JUMPDEST PUSH1 0x0 PUSH2 0x40B6 DUP8 DUP3 DUP9 ADD PUSH2 0x353F JUMP JUMPDEST SWAP5 POP POP PUSH1 0x20 PUSH2 0x40C7 DUP8 DUP3 DUP9 ADD PUSH2 0x353F JUMP JUMPDEST SWAP4 POP POP PUSH1 0x40 DUP6 ADD CALLDATALOAD PUSH8 0xFFFFFFFFFFFFFFFF DUP2 GT ISZERO PUSH2 0x40E8 JUMPI PUSH2 0x40E7 PUSH2 0x3519 JUMP JUMPDEST JUMPDEST PUSH2 0x40F4 DUP8 DUP3 DUP9 ADD PUSH2 0x3A8C JUMP JUMPDEST SWAP3 POP POP PUSH1 0x60 DUP6 ADD CALLDATALOAD PUSH8 0xFFFFFFFFFFFFFFFF DUP2 GT ISZERO PUSH2 0x4115 JUMPI PUSH2 0x4114 PUSH2 0x3519 JUMP JUMPDEST JUMPDEST PUSH2 0x4121 DUP8 DUP3 DUP9 ADD PUSH2 0x3A8C JUMP JUMPDEST SWAP2 POP POP SWAP3 SWAP6 SWAP2 SWAP5 POP SWAP3 POP JUMP JUMPDEST PUSH1 0x0 DUP1 PUSH1 0x0 DUP1 PUSH1 0x0 PUSH1 0xA0 DUP7 DUP9 SUB SLT ISZERO PUSH2 0x4149 JUMPI PUSH2 0x4148 PUSH2 0x3514 JUMP JUMPDEST JUMPDEST PUSH1 0x0 PUSH2 0x4157 DUP9 DUP3 DUP10 ADD PUSH2 0x353F JUMP JUMPDEST SWAP6 POP POP PUSH1 0x20 PUSH2 0x4168 DUP9 DUP3 DUP10 ADD PUSH2 0x353F JUMP JUMPDEST SWAP5 POP POP PUSH1 0x40 PUSH2 0x4179 DUP9 DUP3 DUP10 ADD PUSH2 0x38E7 JUMP JUMPDEST SWAP4 POP POP PUSH1 0x60 DUP7 ADD CALLDATALOAD PUSH8 0xFFFFFFFFFFFFFFFF DUP2 GT ISZERO PUSH2 0x419A JUMPI PUSH2 0x4199 PUSH2 0x3519 JUMP JUMPDEST JUMPDEST PUSH2 0x41A6 DUP9 DUP3 DUP10 ADD PUSH2 0x3A8C JUMP JUMPDEST SWAP3 POP POP PUSH1 0x80 DUP7 ADD CALLDATALOAD PUSH8 0xFFFFFFFFFFFFFFFF DUP2 GT ISZERO PUSH2 0x41C7 JUMPI PUSH2 0x41C6 PUSH2 0x3519 JUMP JUMPDEST JUMPDEST PUSH2 0x41D3 DUP9 DUP3 DUP10 ADD PUSH2 0x3A8C JUMP JUMPDEST SWAP2 POP POP SWAP3 SWAP6 POP SWAP3 SWAP6 SWAP1 SWAP4 POP JUMP JUMPDEST PUSH1 0x0 PUSH2 0x140 DUP4 ADD PUSH1 0x0 DUP4 ADD MLOAD PUSH2 0x41F9 PUSH1 0x0 DUP7 ADD DUP3 PUSH2 0x35AD JUMP JUMPDEST POP PUSH1 0x20 DUP4 ADD MLOAD DUP5 DUP3 SUB PUSH1 0x20 DUP7 ADD MSTORE PUSH2 0x4211 DUP3 DUP3 PUSH2 0x365D JUMP JUMPDEST SWAP2 POP POP PUSH1 0x40 DUP4 ADD MLOAD PUSH2 0x4226 PUSH1 0x40 DUP7 ADD DUP3 PUSH2 0x35AD JUMP JUMPDEST POP PUSH1 0x60 DUP4 ADD MLOAD PUSH2 0x4239 PUSH1 0x60 DUP7 ADD DUP3 PUSH2 0x35AD JUMP JUMPDEST POP PUSH1 0x80 DUP4 ADD MLOAD PUSH2 0x424C PUSH1 0x80 DUP7 ADD DUP3 PUSH2 0x35AD JUMP JUMPDEST POP PUSH1 0xA0 DUP4 ADD MLOAD PUSH2 0x425F PUSH1 0xA0 DUP7 ADD DUP3 PUSH2 0x35AD JUMP JUMPDEST POP PUSH1 0xC0 DUP4 ADD MLOAD PUSH2 0x4272 PUSH1 0xC0 DUP7 ADD DUP3 PUSH2 0x35AD JUMP JUMPDEST POP PUSH1 0xE0 DUP4 ADD MLOAD DUP5 DUP3 SUB PUSH1 0xE0 DUP7 ADD MSTORE PUSH2 0x428A DUP3 DUP3 PUSH2 0x365D JUMP JUMPDEST SWAP2 POP POP PUSH2 0x100 DUP4 ADD MLOAD DUP5 DUP3 SUB PUSH2 0x100 DUP7 ADD MSTORE PUSH2 0x42A6 DUP3 DUP3 PUSH2 0x365D JUMP JUMPDEST SWAP2 POP POP PUSH2 0x120 DUP4 ADD MLOAD PUSH2 0x42BD PUSH2 0x120 DUP7 ADD DUP3 PUSH2 0x35AD JUMP JUMPDEST POP DUP1 SWAP2 POP POP SWAP3 SWAP2 POP POP JUMP JUMPDEST PUSH1 0x0 PUSH1 0x20 DUP3 ADD SWAP1 POP DUP2 DUP2 SUB PUSH1 0x0 DUP4 ADD MSTORE PUSH2 0x42E2 DUP2 DUP5 PUSH2 0x41E0 JUMP JUMPDEST SWAP1 POP SWAP3 SWAP2 POP POP JUMP JUMPDEST PUSH1 0x0 DUP3 DUP3 MSTORE PUSH1 0x20 DUP3 ADD SWAP1 POP SWAP3 SWAP2 POP POP JUMP JUMPDEST PUSH32 0x436C756220646F6573206E6F7420657869737400000000000000000000000000 PUSH1 0x0 DUP3 ADD MSTORE POP JUMP JUMPDEST PUSH1 0x0 PUSH2 0x4331 PUSH1 0x13 DUP4 PUSH2 0x42EA JUMP JUMPDEST SWAP2 POP PUSH2 0x433C DUP3 PUSH2 0x42FB JUMP JUMPDEST PUSH1 0x20 DUP3 ADD SWAP1 POP SWAP2 SWAP1 POP JUMP JUMPDEST PUSH1 0x0 PUSH1 0x20 DUP3 ADD SWAP1 POP DUP2 DUP2 SUB PUSH1 0x0 DUP4 ADD MSTORE PUSH2 0x4360 DUP2 PUSH2 0x4324 JUMP JUMPDEST SWAP1 POP SWAP2 SWAP1 POP JUMP JUMPDEST PUSH32 0x4E487B7100000000000000000000000000000000000000000000000000000000 PUSH1 0x0 MSTORE PUSH1 0x22 PUSH1 0x4 MSTORE PUSH1 0x24 PUSH1 0x0 REVERT JUMPDEST PUSH1 0x0 PUSH1 0x2 DUP3 DIV SWAP1 POP PUSH1 0x1 DUP3 AND DUP1 PUSH2 0x43AE JUMPI PUSH1 0x7F DUP3 AND SWAP2 POP JUMPDEST PUSH1 0x20 DUP3 LT DUP2 EQ ISZERO PUSH2 0x43C2 JUMPI PUSH2 0x43C1 PUSH2 0x4367 JUMP JUMPDEST JUMPDEST POP SWAP2 SWAP1 POP JUMP JUMPDEST PUSH32 0x4E487B7100000000000000000000000000000000000000000000000000000000 PUSH1 0x0 MSTORE PUSH1 0x32 PUSH1 0x4 MSTORE PUSH1 0x24 PUSH1 0x0 REVERT JUMPDEST PUSH32 0x4E487B7100000000000000000000000000000000000000000000000000000000 PUSH1 0x0 MSTORE PUSH1 0x11 PUSH1 0x4 MSTORE PUSH1 0x24 PUSH1 0x0 REVERT JUMPDEST PUSH1 0x0 PUSH2 0x4431 DUP3 PUSH2 0x351E JUMP JUMPDEST SWAP2 POP PUSH32 0xFFFFFFFFFFFFFFFFFFFFFFFFFFFFFFFFFFFFFFFFFFFFFFFFFFFFFFFFFFFFFFFF DUP3 EQ ISZERO PUSH2 0x4464 JUMPI PUSH2 0x4463 PUSH2 0x43F7 JUMP JUMPDEST JUMPDEST PUSH1 0x1 DUP3 ADD SWAP1 POP SWAP2 SWAP1 POP JUMP JUMPDEST PUSH32 0x74686520636C756220646F6573206E6F74206578697374000000000000000000 PUSH1 0x0 DUP3 ADD MSTORE POP JUMP JUMPDEST PUSH1 0x0 PUSH2 0x44A5 PUSH1 0x17 DUP4 PUSH2 0x42EA JUMP JUMPDEST SWAP2 POP PUSH2 0x44B0 DUP3 PUSH2 0x446F JUMP JUMPDEST PUSH1 0x20 DUP3 ADD SWAP1 POP SWAP2 SWAP1 POP JUMP JUMPDEST PUSH1 0x0 PUSH1 0x20 DUP3 ADD SWAP1 POP DUP2 DUP2 SUB PUSH1 0x0 DUP4 ADD MSTORE PUSH2 0x44D4 DUP2 PUSH2 0x4498 JUMP JUMPDEST SWAP1 POP SWAP2 SWAP1 POP JUMP JUMPDEST PUSH32 0x5468652070726F706F73616C20646F6573206E6F742065786973740000000000 PUSH1 0x0 DUP3 ADD MSTORE POP JUMP JUMPDEST PUSH1 0x0 PUSH2 0x4511 PUSH1 0x1B DUP4 PUSH2 0x42EA JUMP JUMPDEST SWAP2 POP PUSH2 0x451C DUP3 PUSH2 0x44DB JUMP JUMPDEST PUSH1 0x20 DUP3 ADD SWAP1 POP SWAP2 SWAP1 POP JUMP JUMPDEST PUSH1 0x0 PUSH1 0x20 DUP3 ADD SWAP1 POP DUP2 DUP2 SUB PUSH1 0x0 DUP4 ADD MSTORE PUSH2 0x4540 DUP2 PUSH2 0x4504 JUMP JUMPDEST SWAP1 POP SWAP2 SWAP1 POP JUMP JUMPDEST PUSH32 0x596F7520617265206E6F742061206D656D626572206F662074686520636C7562 PUSH1 0x0 DUP3 ADD MSTORE POP JUMP JUMPDEST PUSH1 0x0 PUSH2 0x457D PUSH1 0x20 DUP4 PUSH2 0x42EA JUMP JUMPDEST SWAP2 POP PUSH2 0x4588 DUP3 PUSH2 0x4547 JUMP JUMPDEST PUSH1 0x20 DUP3 ADD SWAP1 POP SWAP2 SWAP1 POP JUMP JUMPDEST PUSH1 0x0 PUSH1 0x20 DUP3 ADD SWAP1 POP DUP2 DUP2 SUB PUSH1 0x0 DUP4 ADD MSTORE PUSH2 0x45AC DUP2 PUSH2 0x4570 JUMP JUMPDEST SWAP1 POP SWAP2 SWAP1 POP JUMP JUMPDEST PUSH32 0x4F6E6C79207468652063726561746F72206F66207468652070726F706F73616C PUSH1 0x0 DUP3 ADD MSTORE PUSH32 0x2063616E20657865637574652069740000000000000000000000000000000000 PUSH1 0x20 DUP3 ADD MSTORE POP JUMP JUMPDEST PUSH1 0x0 PUSH2 0x460F PUSH1 0x2F DUP4 PUSH2 0x42EA JUMP JUMPDEST SWAP2 POP PUSH2 0x461A DUP3 PUSH2 0x45B3 JUMP JUMPDEST PUSH1 0x40 DUP3 ADD SWAP1 POP SWAP2 SWAP1 POP JUMP JUMPDEST PUSH1 0x0 PUSH1 0x20 DUP3 ADD SWAP1 POP DUP2 DUP2 SUB PUSH1 0x0 DUP4 ADD MSTORE PUSH2 0x463E DUP2 PUSH2 0x4602 JUMP JUMPDEST SWAP1 POP SWAP2 SWAP1 POP JUMP JUMPDEST PUSH32 0x54686520616D6F756E7420657863656564732074686520706F6F6C206F662074 PUSH1 0x0 DUP3 ADD MSTORE PUSH32 0x686520636C756200000000000000000000000000000000000000000000000000 PUSH1 0x20 DUP3 ADD MSTORE POP JUMP JUMPDEST PUSH1 0x0 PUSH2 0x46A1 PUSH1 0x27 DUP4 PUSH2 0x42EA JUMP JUMPDEST SWAP2 POP PUSH2 0x46AC DUP3 PUSH2 0x4645 JUMP JUMPDEST PUSH1 0x40 DUP3 ADD SWAP1 POP SWAP2 SWAP1 POP JUMP JUMPDEST PUSH1 0x0 PUSH1 0x20 DUP3 ADD SWAP1 POP DUP2 DUP2 SUB PUSH1 0x0 DUP4 ADD MSTORE PUSH2 0x46D0 DUP2 PUSH2 0x4694 JUMP JUMPDEST SWAP1 POP SWAP2 SWAP1 POP JUMP JUMPDEST PUSH32 0x5468652070726F706F73616C20686173206E6F74206265656E20617070726F76 PUSH1 0x0 DUP3 ADD MSTORE PUSH32 0x6564000000000000000000000000000000000000000000000000000000000000 PUSH1 0x20 DUP3 ADD MSTORE POP JUMP JUMPDEST PUSH1 0x0 PUSH2 0x4733 PUSH1 0x22 DUP4 PUSH2 0x42EA JUMP JUMPDEST SWAP2 POP PUSH2 0x473E DUP3 PUSH2 0x46D7 JUMP JUMPDEST PUSH1 0x40 DUP3 ADD SWAP1 POP SWAP2 SWAP1 POP JUMP JUMPDEST PUSH1 0x0 PUSH1 0x20 DUP3 ADD SWAP1 POP DUP2 DUP2 SUB PUSH1 0x0 DUP4 ADD MSTORE PUSH2 0x4762 DUP2 PUSH2 0x4726 JUMP JUMPDEST SWAP1 POP SWAP2 SWAP1 POP JUMP JUMPDEST PUSH32 0x596F752063616E2774206265666F72652074686520566F74696E672064656164 PUSH1 0x0 DUP3 ADD MSTORE PUSH32 0x6C696E6500000000000000000000000000000000000000000000000000000000 PUSH1 0x20 DUP3 ADD MSTORE POP JUMP JUMPDEST PUSH1 0x0 PUSH2 0x47C5 PUSH1 0x24 DUP4 PUSH2 0x42EA JUMP JUMPDEST SWAP2 POP PUSH2 0x47D0 DUP3 PUSH2 0x4769 JUMP JUMPDEST PUSH1 0x40 DUP3 ADD SWAP1 POP SWAP2 SWAP1 POP JUMP JUMPDEST PUSH1 0x0 PUSH1 0x20 DUP3 ADD SWAP1 POP DUP2 DUP2 SUB PUSH1 0x0 DUP4 ADD MSTORE PUSH2 0x47F4 DUP2 PUSH2 0x47B8 JUMP JUMPDEST SWAP1 POP SWAP2 SWAP1 POP JUMP JUMPDEST PUSH1 0x0 PUSH2 0x4806 DUP3 PUSH2 0x351E JUMP JUMPDEST SWAP2 POP PUSH2 0x4811 DUP4 PUSH2 0x351E JUMP JUMPDEST SWAP3 POP DUP3 DUP3 LT ISZERO PUSH2 0x4824 JUMPI PUSH2 0x4823 PUSH2 0x43F7 JUMP JUMPDEST JUMPDEST DUP3 DUP3 SUB SWAP1 POP SWAP3 SWAP2 POP POP JUMP JUMPDEST PUSH32 0x596F75206D7573742073656E642045564D4F5320746F20636F6E747269627574 PUSH1 0x0 DUP3 ADD MSTORE PUSH32 0x6500000000000000000000000000000000000000000000000000000000000000 PUSH1 0x20 DUP3 ADD MSTORE POP JUMP JUMPDEST PUSH1 0x0 PUSH2 0x488B PUSH1 0x21 DUP4 PUSH2 0x42EA JUMP JUMPDEST SWAP2 POP PUSH2 0x4896 DUP3 PUSH2 0x482F JUMP JUMPDEST PUSH1 0x40 DUP3 ADD SWAP1 POP SWAP2 SWAP1 POP JUMP JUMPDEST PUSH1 0x0 PUSH1 0x20 DUP3 ADD SWAP1 POP DUP2 DUP2 SUB PUSH1 0x0 DUP4 ADD MSTORE PUSH2 0x48BA DUP2 PUSH2 0x487E JUMP JUMPDEST SWAP1 POP SWAP2 SWAP1 POP JUMP JUMPDEST PUSH32 0x436C756220697320636C6F736564000000000000000000000000000000000000 PUSH1 0x0 DUP3 ADD MSTORE POP JUMP JUMPDEST PUSH1 0x0 PUSH2 0x48F7 PUSH1 0xE DUP4 PUSH2 0x42EA JUMP JUMPDEST SWAP2 POP PUSH2 0x4902 DUP3 PUSH2 0x48C1 JUMP JUMPDEST PUSH1 0x20 DUP3 ADD SWAP1 POP SWAP2 SWAP1 POP JUMP JUMPDEST PUSH1 0x0 PUSH1 0x20 DUP3 ADD SWAP1 POP DUP2 DUP2 SUB PUSH1 0x0 DUP4 ADD MSTORE PUSH2 0x4926 DUP2 PUSH2 0x48EA JUMP JUMPDEST SWAP1 POP SWAP2 SWAP1 POP JUMP JUMPDEST PUSH1 0x0 PUSH2 0x4938 DUP3 PUSH2 0x351E JUMP JUMPDEST SWAP2 POP PUSH2 0x4943 DUP4 PUSH2 0x351E JUMP JUMPDEST SWAP3 POP DUP3 PUSH32 0xFFFFFFFFFFFFFFFFFFFFFFFFFFFFFFFFFFFFFFFFFFFFFFFFFFFFFFFFFFFFFFFF SUB DUP3 GT ISZERO PUSH2 0x4978 JUMPI PUSH2 0x4977 PUSH2 0x43F7 JUMP JUMPDEST JUMPDEST DUP3 DUP3 ADD SWAP1 POP SWAP3 SWAP2 POP POP JUMP JUMPDEST PUSH32 0x566F74696E6720506572696F642046696E697368656400000000000000000000 PUSH1 0x0 DUP3 ADD MSTORE POP JUMP JUMPDEST PUSH1 0x0 PUSH2 0x49B9 PUSH1 0x16 DUP4 PUSH2 0x42EA JUMP JUMPDEST SWAP2 POP PUSH2 0x49C4 DUP3 PUSH2 0x4983 JUMP JUMPDEST PUSH1 0x20 DUP3 ADD SWAP1 POP SWAP2 SWAP1 POP JUMP JUMPDEST PUSH1 0x0 PUSH1 0x20 DUP3 ADD SWAP1 POP DUP2 DUP2 SUB PUSH1 0x0 DUP4 ADD MSTORE PUSH2 0x49E8 DUP2 PUSH2 0x49AC JUMP JUMPDEST SWAP1 POP SWAP2 SWAP1 POP JUMP JUMPDEST PUSH32 0x596F75206861766520616C726561647920766F746564206F6E20746869732070 PUSH1 0x0 DUP3 ADD MSTORE PUSH32 0x726F706F73616C00000000000000000000000000000000000000000000000000 PUSH1 0x20 DUP3 ADD MSTORE POP JUMP JUMPDEST PUSH1 0x0 PUSH2 0x4A4B PUSH1 0x27 DUP4 PUSH2 0x42EA JUMP JUMPDEST SWAP2 POP PUSH2 0x4A56 DUP3 PUSH2 0x49EF JUMP JUMPDEST PUSH1 0x40 DUP3 ADD SWAP1 POP SWAP2 SWAP1 POP JUMP JUMPDEST PUSH1 0x0 PUSH1 0x20 DUP3 ADD SWAP1 POP DUP2 DUP2 SUB PUSH1 0x0 DUP4 ADD MSTORE PUSH2 0x4A7A DUP2 PUSH2 0x4A3E JUMP JUMPDEST SWAP1 POP SWAP2 SWAP1 POP JUMP JUMPDEST PUSH1 0x0 DUP2 SWAP1 POP SWAP3 SWAP2 POP POP JUMP JUMPDEST PUSH1 0x0 DUP2 SWAP1 POP DUP2 PUSH1 0x0 MSTORE PUSH1 0x20 PUSH1 0x0 KECCAK256 SWAP1 POP SWAP2 SWAP1 POP JUMP JUMPDEST PUSH1 0x0 DUP2 SLOAD PUSH2 0x4AAE DUP2 PUSH2 0x4396 JUMP JUMPDEST PUSH2 0x4AB8 DUP2 DUP7 PUSH2 0x4A81 JUMP JUMPDEST SWAP5 POP PUSH1 0x1 DUP3 AND PUSH1 0x0 DUP2 EQ PUSH2 0x4AD3 JUMPI PUSH1 0x1 DUP2 EQ PUSH2 0x4AE4 JUMPI PUSH2 0x4B17 JUMP JUMPDEST PUSH1 0xFF NOT DUP4 AND DUP7 MSTORE DUP2 DUP7 ADD SWAP4 POP PUSH2 0x4B17 JUMP JUMPDEST PUSH2 0x4AED DUP6 PUSH2 0x4A8C JUMP JUMPDEST PUSH1 0x0 JUMPDEST DUP4 DUP2 LT ISZERO PUSH2 0x4B0F JUMPI DUP2 SLOAD DUP2 DUP10 ADD MSTORE PUSH1 0x1 DUP3 ADD SWAP2 POP PUSH1 0x20 DUP2 ADD SWAP1 POP PUSH2 0x4AF0 JUMP JUMPDEST DUP4 DUP9 ADD SWAP6 POP POP POP JUMPDEST POP POP POP SWAP3 SWAP2 POP POP JUMP JUMPDEST PUSH1 0x0 PUSH2 0x4B2C DUP3 DUP5 PUSH2 0x4AA1 JUMP JUMPDEST SWAP2 POP DUP2 SWAP1 POP SWAP3 SWAP2 POP POP JUMP JUMPDEST PUSH32 0x5468652070726F706F73616C206973206E6F206C6F6E6765722070656E64696E PUSH1 0x0 DUP3 ADD MSTORE PUSH32 0x6700000000000000000000000000000000000000000000000000000000000000 PUSH1 0x20 DUP3 ADD MSTORE POP JUMP JUMPDEST PUSH1 0x0 PUSH2 0x4B93 PUSH1 0x21 DUP4 PUSH2 0x42EA JUMP JUMPDEST SWAP2 POP PUSH2 0x4B9E DUP3 PUSH2 0x4B37 JUMP JUMPDEST PUSH1 0x40 DUP3 ADD SWAP1 POP SWAP2 SWAP1 POP JUMP JUMPDEST PUSH1 0x0 PUSH1 0x20 DUP3 ADD SWAP1 POP DUP2 DUP2 SUB PUSH1 0x0 DUP4 ADD MSTORE PUSH2 0x4BC2 DUP2 PUSH2 0x4B86 JUMP JUMPDEST SWAP1 POP SWAP2 SWAP1 POP JUMP JUMPDEST PUSH32 0x54686520636C756220646F6573206E6F74206578697374000000000000000000 PUSH1 0x0 DUP3 ADD MSTORE POP JUMP JUMPDEST PUSH1 0x0 PUSH2 0x4BFF PUSH1 0x17 DUP4 PUSH2 0x42EA JUMP JUMPDEST SWAP2 POP PUSH2 0x4C0A DUP3 PUSH2 0x4BC9 JUMP JUMPDEST PUSH1 0x20 DUP3 ADD SWAP1 POP SWAP2 SWAP1 POP JUMP JUMPDEST PUSH1 0x0 PUSH1 0x20 DUP3 ADD SWAP1 POP DUP2 DUP2 SUB PUSH1 0x0 DUP4 ADD MSTORE PUSH2 0x4C2E DUP2 PUSH2 0x4BF2 JUMP JUMPDEST SWAP1 POP SWAP2 SWAP1 POP JUMP JUMPDEST PUSH32 0x54686520616D6F756E74206F66207468652070726F706F73616C206D75737420 PUSH1 0x0 DUP3 ADD MSTORE PUSH32 0x62652067726561746572207468616E2030000000000000000000000000000000 PUSH1 0x20 DUP3 ADD MSTORE POP JUMP JUMPDEST PUSH1 0x0 PUSH2 0x4C91 PUSH1 0x31 DUP4 PUSH2 0x42EA JUMP JUMPDEST SWAP2 POP PUSH2 0x4C9C DUP3 PUSH2 0x4C35 JUMP JUMPDEST PUSH1 0x40 DUP3 ADD SWAP1 POP SWAP2 SWAP1 POP JUMP JUMPDEST PUSH1 0x0 PUSH1 0x20 DUP3 ADD SWAP1 POP DUP2 DUP2 SUB PUSH1 0x0 DUP4 ADD MSTORE PUSH2 0x4CC0 DUP2 PUSH2 0x4C84 JUMP JUMPDEST SWAP1 POP SWAP2 SWAP1 POP JUMP JUMPDEST PUSH32 0x54686520636C75622069732066756C6C2C206E6F206D6F7265206D656D626572 PUSH1 0x0 DUP3 ADD MSTORE PUSH32 0x732063616E206265206164646564000000000000000000000000000000000000 PUSH1 0x20 DUP3 ADD MSTORE POP JUMP JUMPDEST PUSH1 0x0 PUSH2 0x4D23 PUSH1 0x2E DUP4 PUSH2 0x42EA JUMP JUMPDEST SWAP2 POP PUSH2 0x4D2E DUP3 PUSH2 0x4CC7 JUMP JUMPDEST PUSH1 0x40 DUP3 ADD SWAP1 POP SWAP2 SWAP1 POP JUMP JUMPDEST PUSH1 0x0 PUSH1 0x20 DUP3 ADD SWAP1 POP DUP2 DUP2 SUB PUSH1 0x0 DUP4 ADD MSTORE PUSH2 0x4D52 DUP2 PUSH2 0x4D16 JUMP JUMPDEST SWAP1 POP SWAP2 SWAP1 POP JUMP JUMPDEST PUSH32 0x596F752061726520616C72656164792061206D656D626572206F662074686520 PUSH1 0x0 DUP3 ADD MSTORE PUSH32 0x636C756200000000000000000000000000000000000000000000000000000000 PUSH1 0x20 DUP3 ADD MSTORE POP JUMP JUMPDEST PUSH1 0x0 PUSH2 0x4DB5 PUSH1 0x24 DUP4 PUSH2 0x42EA JUMP JUMPDEST SWAP2 POP PUSH2 0x4DC0 DUP3 PUSH2 0x4D59 JUMP JUMPDEST PUSH1 0x40 DUP3 ADD SWAP1 POP SWAP2 SWAP1 POP JUMP JUMPDEST PUSH1 0x0 PUSH1 0x20 DUP3 ADD SWAP1 POP DUP2 DUP2 SUB PUSH1 0x0 DUP4 ADD MSTORE PUSH2 0x4DE4 DUP2 PUSH2 0x4DA8 JUMP JUMPDEST SWAP1 POP SWAP2 SWAP1 POP JUMP JUMPDEST PUSH32 0x5468652070726F706F73616C206973206E6F7420696E2070656E64696E672073 PUSH1 0x0 DUP3 ADD MSTORE PUSH32 0x7461747573000000000000000000000000000000000000000000000000000000 PUSH1 0x20 DUP3 ADD MSTORE POP JUMP JUMPDEST PUSH1 0x0 PUSH2 0x4E47 PUSH1 0x25 DUP4 PUSH2 0x42EA JUMP JUMPDEST SWAP2 POP PUSH2 0x4E52 DUP3 PUSH2 0x4DEB JUMP JUMPDEST PUSH1 0x40 DUP3 ADD SWAP1 POP SWAP2 SWAP1 POP JUMP JUMPDEST PUSH1 0x0 PUSH1 0x20 DUP3 ADD SWAP1 POP DUP2 DUP2 SUB PUSH1 0x0 DUP4 ADD MSTORE PUSH2 0x4E76 DUP2 PUSH2 0x4E3A JUMP JUMPDEST SWAP1 POP SWAP2 SWAP1 POP JUMP JUMPDEST PUSH32 0x4F6E6C79207468652070726F706F73616C2063726561746F722063616E20636C PUSH1 0x0 DUP3 ADD MSTORE PUSH32 0x6F7365207468652070726F706F73616C00000000000000000000000000000000 PUSH1 0x20 DUP3 ADD MSTORE POP JUMP JUMPDEST PUSH1 0x0 PUSH2 0x4ED9 PUSH1 0x30 DUP4 PUSH2 0x42EA JUMP JUMPDEST SWAP2 POP PUSH2 0x4EE4 DUP3 PUSH2 0x4E7D JUMP JUMPDEST PUSH1 0x40 DUP3 ADD SWAP1 POP SWAP2 SWAP1 POP JUMP JUMPDEST PUSH1 0x0 PUSH1 0x20 DUP3 ADD SWAP1 POP DUP2 DUP2 SUB PUSH1 0x0 DUP4 ADD MSTORE PUSH2 0x4F08 DUP2 PUSH2 0x4ECC JUMP JUMPDEST SWAP1 POP SWAP2 SWAP1 POP JUMP INVALID LOG2 PUSH5 0x6970667358 0x22 SLT KECCAK256 XOR MSIZE CALLER PUSH9 0xA6C42034203FF92449 SIGNEXTEND PUSH5 0x59C138F99C SWAP12 PUSH12 0x2302749103AEF426B2D76473 PUSH16 0x6C634300080A00330000000000000000 "},"methodIdentifiers":{"checkContri(uint256,address)":"2443c344","closeProposal(uint256,uint256)":"e7613ea8","contributeToClub(uint256)":"288509b4","createClub(string,string)":"35a1930f","createProposal(uint256,uint256,address,string,string)":"89972a32","executeProposal(uint256,uint256)":"1ab76712","getBalanceByClub(address,uint256)":"890e2456","getCarpiece(uint256,uint256,string,string)":"647e598b","getClubById(uint256)":"c3741fed","getMyClubs()":"549710be","getProposalById(uint256,uint256)":"14204fc6","getProposalsByClub(uint256)":"058694a9","getdelandstorgae(uint256,uint256,uint256,string)":"1063fd19","hasVoted(address,uint256,uint256)":"0ee29404","isClubFull(uint256)":"c4670878","isClubIdExist(uint256)":"6764fd48","isMemberOfClub(address,uint256)":"34fa3d83","isProposalIdExist(uint256,uint256)":"eec8e0db","isVotingOn(uint256,uint256)":"ab7ca348","isclubopen(uint256)":"f9f2bb3c","joinClub(uint256)":"e1542742","leaveClub(uint256)":"4d7f75c3","listClubs()":"5ff847fb","proverifiydocs(uint256,uint256)":"9d9087b9","verifiydocs(uint256)":"82b7661b","voteOnProposal(uint256,uint256,bool)":"54a2e233"}}}}}