{
  "_format": "hh-sol-artifact-1",
  "contractName": "InvestmentClub",
  "sourceName": "contracts/InvestmentClub.sol",
  "abi": [
    {
      "inputs": [],
      "stateMutability": "nonpayable",
      "type": "constructor"
    },
    {
      "inputs": [
        {
          "internalType": "uint256",
          "name": "clubId",
          "type": "uint256"
        },
        {
          "internalType": "address",
          "name": "_address",
          "type": "address"
        }
      ],
      "name": "checkContri",
      "outputs": [
        {
          "internalType": "bool",
          "name": "",
          "type": "bool"
        }
      ],
      "stateMutability": "view",
      "type": "function"
    },
    {
      "inputs": [
        {
          "internalType": "uint256",
          "name": "clubId",
          "type": "uint256"
        },
        {
          "internalType": "uint256",
          "name": "proposalId",
          "type": "uint256"
        }
      ],
      "name": "closeProposal",
      "outputs": [],
      "stateMutability": "nonpayable",
      "type": "function"
    },
    {
      "inputs": [
        {
          "internalType": "uint256",
          "name": "clubId",
          "type": "uint256"
        }
      ],
      "name": "contributeToClub",
      "outputs": [],
      "stateMutability": "payable",
      "type": "function"
    },
    {
      "inputs": [
        {
          "internalType": "string",
          "name": "name",
          "type": "string"
        },
        {
          "internalType": "string",
          "name": "Cid",
          "type": "string"
        }
      ],
      "name": "createClub",
      "outputs": [
        {
          "internalType": "uint256",
          "name": "",
          "type": "uint256"
        }
      ],
      "stateMutability": "nonpayable",
      "type": "function"
    },
    {
      "inputs": [
        {
          "internalType": "uint256",
          "name": "clubId",
          "type": "uint256"
        },
        {
          "internalType": "uint256",
          "name": "amount",
          "type": "uint256"
        },
        {
          "internalType": "address",
          "name": "destination",
          "type": "address"
        },
        {
          "internalType": "string",
          "name": "description",
          "type": "string"
        },
        {
          "internalType": "string",
          "name": "Cid",
          "type": "string"
        }
      ],
      "name": "createProposal",
      "outputs": [],
      "stateMutability": "nonpayable",
      "type": "function"
    },
    {
      "inputs": [
        {
          "internalType": "uint256",
          "name": "clubId",
          "type": "uint256"
        },
        {
          "internalType": "uint256",
          "name": "proposalId",
          "type": "uint256"
        }
      ],
      "name": "executeProposal",
      "outputs": [],
      "stateMutability": "payable",
      "type": "function"
    },
    {
      "inputs": [
        {
          "internalType": "address",
          "name": "userAddress",
          "type": "address"
        },
        {
          "internalType": "uint256",
          "name": "clubId",
          "type": "uint256"
        }
      ],
      "name": "getBalanceByClub",
      "outputs": [
        {
          "internalType": "uint256",
          "name": "",
          "type": "uint256"
        }
      ],
      "stateMutability": "view",
      "type": "function"
    },
    {
      "inputs": [
        {
          "internalType": "uint256",
          "name": "clubId",
          "type": "uint256"
        },
        {
          "internalType": "uint256",
          "name": "proposalId",
          "type": "uint256"
        },
        {
          "internalType": "string",
          "name": "_Piece",
          "type": "string"
        },
        {
          "internalType": "string",
          "name": "_carsize",
          "type": "string"
        }
      ],
      "name": "getCarpiece",
      "outputs": [],
      "stateMutability": "nonpayable",
      "type": "function"
    },
    {
      "inputs": [
        {
          "internalType": "uint256",
          "name": "clubId",
          "type": "uint256"
        }
      ],
      "name": "getClubById",
      "outputs": [
        {
          "components": [
            {
              "internalType": "uint256",
              "name": "clubId",
              "type": "uint256"
            },
            {
              "internalType": "string",
              "name": "name",
              "type": "string"
            },
            {
              "internalType": "uint256",
              "name": "memberCount",
              "type": "uint256"
            },
            {
              "internalType": "uint256",
              "name": "proposalCount",
              "type": "uint256"
            },
            {
              "internalType": "uint256",
              "name": "pool",
              "type": "uint256"
            },
            {
              "internalType": "uint256",
              "name": "clubcreatedAt",
              "type": "uint256"
            },
            {
              "internalType": "uint256",
              "name": "clubexpireAt",
              "type": "uint256"
            },
            {
              "internalType": "string",
              "name": "CID",
              "type": "string"
            },
            {
              "internalType": "string",
              "name": "posdiverification",
              "type": "string"
            },
            {
              "internalType": "uint256",
              "name": "DealId",
              "type": "uint256"
            }
          ],
          "internalType": "struct InvestmentClub.ClubInfo",
          "name": "",
          "type": "tuple"
        }
      ],
      "stateMutability": "view",
      "type": "function"
    },
    {
      "inputs": [],
      "name": "getMyClubs",
      "outputs": [
        {
          "components": [
            {
              "internalType": "uint256",
              "name": "clubId",
              "type": "uint256"
            },
            {
              "internalType": "string",
              "name": "name",
              "type": "string"
            },
            {
              "internalType": "uint256",
              "name": "memberCount",
              "type": "uint256"
            },
            {
              "internalType": "uint256",
              "name": "proposalCount",
              "type": "uint256"
            },
            {
              "internalType": "uint256",
              "name": "pool",
              "type": "uint256"
            },
            {
              "internalType": "uint256",
              "name": "clubcreatedAt",
              "type": "uint256"
            },
            {
              "internalType": "uint256",
              "name": "clubexpireAt",
              "type": "uint256"
            },
            {
              "internalType": "string",
              "name": "CID",
              "type": "string"
            },
            {
              "internalType": "string",
              "name": "posdiverification",
              "type": "string"
            },
            {
              "internalType": "uint256",
              "name": "DealId",
              "type": "uint256"
            }
          ],
          "internalType": "struct InvestmentClub.ClubInfo[]",
          "name": "",
          "type": "tuple[]"
        }
      ],
      "stateMutability": "view",
      "type": "function"
    },
    {
      "inputs": [
        {
          "internalType": "uint256",
          "name": "clubId",
          "type": "uint256"
        },
        {
          "internalType": "uint256",
          "name": "proposalId",
          "type": "uint256"
        }
      ],
      "name": "getProposalById",
      "outputs": [
        {
          "components": [
            {
              "internalType": "uint256",
              "name": "id",
              "type": "uint256"
            },
            {
              "internalType": "address",
              "name": "creator",
              "type": "address"
            },
            {
              "internalType": "uint256",
              "name": "amount",
              "type": "uint256"
            },
            {
              "internalType": "address",
              "name": "destination",
              "type": "address"
            },
            {
              "internalType": "string",
              "name": "status",
              "type": "string"
            },
            {
              "internalType": "string",
              "name": "description",
              "type": "string"
            },
            {
              "internalType": "uint256",
              "name": "votesFor",
              "type": "uint256"
            },
            {
              "internalType": "uint256",
              "name": "votesAgainst",
              "type": "uint256"
            },
            {
              "internalType": "uint256",
              "name": "proposedAt",
              "type": "uint256"
            },
            {
              "internalType": "uint256",
              "name": "proposalExpireAt",
              "type": "uint256"
            },
            {
              "internalType": "string",
              "name": "Cid",
              "type": "string"
            },
            {
              "internalType": "string",
              "name": "PieceCid",
              "type": "string"
            },
            {
              "internalType": "string",
              "name": "carsize",
              "type": "string"
            },
            {
              "internalType": "string",
              "name": "posdiverification",
              "type": "string"
            },
            {
              "internalType": "string",
              "name": "storageProvider",
              "type": "string"
            },
            {
              "internalType": "uint256",
              "name": "DealId",
              "type": "uint256"
            }
          ],
          "internalType": "struct InvestmentClub.ProposalInfo",
          "name": "",
          "type": "tuple"
        }
      ],
      "stateMutability": "view",
      "type": "function"
    },
    {
      "inputs": [
        {
          "internalType": "uint256",
          "name": "clubId",
          "type": "uint256"
        }
      ],
      "name": "getProposalsByClub",
      "outputs": [
        {
          "components": [
            {
              "internalType": "uint256",
              "name": "id",
              "type": "uint256"
            },
            {
              "internalType": "address",
              "name": "creator",
              "type": "address"
            },
            {
              "internalType": "uint256",
              "name": "amount",
              "type": "uint256"
            },
            {
              "internalType": "address",
              "name": "destination",
              "type": "address"
            },
            {
              "internalType": "string",
              "name": "status",
              "type": "string"
            },
            {
              "internalType": "string",
              "name": "description",
              "type": "string"
            },
            {
              "internalType": "uint256",
              "name": "votesFor",
              "type": "uint256"
            },
            {
              "internalType": "uint256",
              "name": "votesAgainst",
              "type": "uint256"
            },
            {
              "internalType": "uint256",
              "name": "proposedAt",
              "type": "uint256"
            },
            {
              "internalType": "uint256",
              "name": "proposalExpireAt",
              "type": "uint256"
            },
            {
              "internalType": "string",
              "name": "Cid",
              "type": "string"
            },
            {
              "internalType": "string",
              "name": "PieceCid",
              "type": "string"
            },
            {
              "internalType": "string",
              "name": "carsize",
              "type": "string"
            },
            {
              "internalType": "string",
              "name": "posdiverification",
              "type": "string"
            },
            {
              "internalType": "string",
              "name": "storageProvider",
              "type": "string"
            },
            {
              "internalType": "uint256",
              "name": "DealId",
              "type": "uint256"
            }
          ],
          "internalType": "struct InvestmentClub.ProposalInfo[]",
          "name": "",
          "type": "tuple[]"
        }
      ],
      "stateMutability": "view",
      "type": "function"
    },
    {
      "inputs": [
        {
          "internalType": "uint256",
          "name": "clubId",
          "type": "uint256"
        },
        {
          "internalType": "uint256",
          "name": "proposalId",
          "type": "uint256"
        },
        {
          "internalType": "uint256",
          "name": "_dealId",
          "type": "uint256"
        },
        {
          "internalType": "string",
          "name": "_storage",
          "type": "string"
        }
      ],
      "name": "getdelandstorgae",
      "outputs": [],
      "stateMutability": "nonpayable",
      "type": "function"
    },
    {
      "inputs": [
        {
          "internalType": "address",
          "name": "sender",
          "type": "address"
        },
        {
          "internalType": "uint256",
          "name": "proposalId",
          "type": "uint256"
        },
        {
          "internalType": "uint256",
          "name": "clubId",
          "type": "uint256"
        }
      ],
      "name": "hasVoted",
      "outputs": [
        {
          "internalType": "bool",
          "name": "",
          "type": "bool"
        }
      ],
      "stateMutability": "view",
      "type": "function"
    },
    {
      "inputs": [
        {
          "internalType": "uint256",
          "name": "clubId",
          "type": "uint256"
        }
      ],
      "name": "isClubFull",
      "outputs": [
        {
          "internalType": "bool",
          "name": "",
          "type": "bool"
        }
      ],
      "stateMutability": "view",
      "type": "function"
    },
    {
      "inputs": [
        {
          "internalType": "uint256",
          "name": "clubId",
          "type": "uint256"
        }
      ],
      "name": "isClubIdExist",
      "outputs": [
        {
          "internalType": "bool",
          "name": "",
          "type": "bool"
        }
      ],
      "stateMutability": "view",
      "type": "function"
    },
    {
      "inputs": [
        {
          "internalType": "address",
          "name": "memberAddress",
          "type": "address"
        },
        {
          "internalType": "uint256",
          "name": "clubId",
          "type": "uint256"
        }
      ],
      "name": "isMemberOfClub",
      "outputs": [
        {
          "internalType": "bool",
          "name": "",
          "type": "bool"
        }
      ],
      "stateMutability": "view",
      "type": "function"
    },
    {
      "inputs": [
        {
          "internalType": "uint256",
          "name": "proposalId",
          "type": "uint256"
        },
        {
          "internalType": "uint256",
          "name": "clubId",
          "type": "uint256"
        }
      ],
      "name": "isProposalIdExist",
      "outputs": [
        {
          "internalType": "bool",
          "name": "",
          "type": "bool"
        }
      ],
      "stateMutability": "view",
      "type": "function"
    },
    {
      "inputs": [
        {
          "internalType": "uint256",
          "name": "clubId",
          "type": "uint256"
        },
        {
          "internalType": "uint256",
          "name": "proposalId",
          "type": "uint256"
        }
      ],
      "name": "isVotingOn",
      "outputs": [
        {
          "internalType": "bool",
          "name": "",
          "type": "bool"
        }
      ],
      "stateMutability": "view",
      "type": "function"
    },
    {
      "inputs": [
        {
          "internalType": "uint256",
          "name": "clubId",
          "type": "uint256"
        }
      ],
      "name": "isclubopen",
      "outputs": [
        {
          "internalType": "bool",
          "name": "",
          "type": "bool"
        }
      ],
      "stateMutability": "view",
      "type": "function"
    },
    {
      "inputs": [
        {
          "internalType": "uint256",
          "name": "clubId",
          "type": "uint256"
        }
      ],
      "name": "joinClub",
      "outputs": [],
      "stateMutability": "nonpayable",
      "type": "function"
    },
    {
      "inputs": [
        {
          "internalType": "uint256",
          "name": "clubId",
          "type": "uint256"
        }
      ],
      "name": "leaveClub",
      "outputs": [],
      "stateMutability": "nonpayable",
      "type": "function"
    },
    {
      "inputs": [],
      "name": "listClubs",
      "outputs": [
        {
          "components": [
            {
              "internalType": "uint256",
              "name": "clubId",
              "type": "uint256"
            },
            {
              "internalType": "string",
              "name": "name",
              "type": "string"
            },
            {
              "internalType": "uint256",
              "name": "memberCount",
              "type": "uint256"
            },
            {
              "internalType": "uint256",
              "name": "proposalCount",
              "type": "uint256"
            },
            {
              "internalType": "uint256",
              "name": "pool",
              "type": "uint256"
            },
            {
              "internalType": "uint256",
              "name": "clubcreatedAt",
              "type": "uint256"
            },
            {
              "internalType": "uint256",
              "name": "clubexpireAt",
              "type": "uint256"
            },
            {
              "internalType": "string",
              "name": "CID",
              "type": "string"
            },
            {
              "internalType": "string",
              "name": "posdiverification",
              "type": "string"
            },
            {
              "internalType": "uint256",
              "name": "DealId",
              "type": "uint256"
            }
          ],
          "internalType": "struct InvestmentClub.ClubInfo[]",
          "name": "",
          "type": "tuple[]"
        }
      ],
      "stateMutability": "view",
      "type": "function"
    },
    {
      "inputs": [
        {
          "internalType": "uint256",
          "name": "clubId",
          "type": "uint256"
        },
        {
          "internalType": "uint256",
          "name": "proposalId",
          "type": "uint256"
        }
      ],
      "name": "proverifiydocs",
      "outputs": [],
      "stateMutability": "nonpayable",
      "type": "function"
    },
    {
      "inputs": [
        {
          "internalType": "uint256",
          "name": "clubId",
          "type": "uint256"
        }
      ],
      "name": "verifiydocs",
      "outputs": [],
      "stateMutability": "nonpayable",
      "type": "function"
    },
    {
      "inputs": [
        {
          "internalType": "uint256",
          "name": "clubId",
          "type": "uint256"
        },
        {
          "internalType": "uint256",
          "name": "proposalId",
          "type": "uint256"
        },
        {
          "internalType": "bool",
          "name": "vote",
          "type": "bool"
        }
      ],
      "name": "voteOnProposal",
      "outputs": [],
      "stateMutability": "nonpayable",
      "type": "function"
    }
  ],
  "bytecode": "0x608060405234801561001057600080fd5b506000600181905550614f45806100286000396000f3fe6080604052600436106101815760003560e01c8063647e598b116100d1578063ab7ca3481161008a578063e154274211610064578063e1542742146105d2578063e7613ea8146105fb578063eec8e0db14610624578063f9f2bb3c1461066157610181565b8063ab7ca3481461051b578063c3741fed14610558578063c46708781461059557610181565b8063647e598b146103fd5780636764fd481461042657806382b7661b14610463578063890e24561461048c57806389972a32146104c95780639d9087b9146104f257610181565b8063288509b41161013e5780634d7f75c3116101185780634d7f75c314610355578063549710be1461037e57806354a2e233146103a95780635ff847fb146103d257610181565b8063288509b4146102bf57806334fa3d83146102db57806335a1930f1461031857610181565b8063058694a9146101865780630ee29404146101c35780631063fd191461020057806314204fc6146102295780631ab76712146102665780632443c34414610282575b600080fd5b34801561019257600080fd5b506101ad60048036038101906101a89190613554565b61069e565b6040516101ba91906138ae565b60405180910390f35b3480156101cf57600080fd5b506101ea60048036038101906101e591906138fc565b610ca0565b6040516101f7919061396a565b60405180910390f35b34801561020c57600080fd5b5061022760048036038101906102229190613aba565b610d1f565b005b34801561023557600080fd5b50610250600480360381019061024b9190613b3d565b610d72565b60405161025d9190613cff565b60405180910390f35b610280600480360381019061027b9190613b3d565b611312565b005b34801561028e57600080fd5b506102a960048036038101906102a49190613d21565b611625565b6040516102b6919061396a565b60405180910390f35b6102d960048036038101906102d49190613554565b61168f565b005b3480156102e757600080fd5b5061030260048036038101906102fd9190613d61565b61197e565b60405161030f919061396a565b60405180910390f35b34801561032457600080fd5b5061033f600480360381019061033a9190613da1565b611a2d565b60405161034c9190613e28565b60405180910390f35b34801561036157600080fd5b5061037c60048036038101906103779190613554565b611bf4565b005b34801561038a57600080fd5b50610393611d2e565b6040516103a09190613fed565b60405180910390f35b3480156103b557600080fd5b506103d060048036038101906103cb919061403b565b612014565b005b3480156103de57600080fd5b506103e76122eb565b6040516103f49190613fed565b60405180910390f35b34801561040957600080fd5b50610424600480360381019061041f919061408e565b6125b6565b005b34801561043257600080fd5b5061044d60048036038101906104489190613554565b612619565b60405161045a919061396a565b60405180910390f35b34801561046f57600080fd5b5061048a60048036038101906104859190613554565b61263b565b005b34801561049857600080fd5b506104b360048036038101906104ae9190613d61565b6126eb565b6040516104c09190613e28565b60405180910390f35b3480156104d557600080fd5b506104f060048036038101906104eb919061412d565b612756565b005b3480156104fe57600080fd5b5061051960048036038101906105149190613b3d565b612b1f565b005b34801561052757600080fd5b50610542600480360381019061053d9190613b3d565b612b9c565b60405161054f919061396a565b60405180910390f35b34801561056457600080fd5b5061057f600480360381019061057a9190613554565b612bd7565b60405161058c91906142c8565b60405180910390f35b3480156105a157600080fd5b506105bc60048036038101906105b79190613554565b612e51565b6040516105c9919061396a565b60405180910390f35b3480156105de57600080fd5b506105f960048036038101906105f49190613554565b612e73565b005b34801561060757600080fd5b50610622600480360381019061061d9190613b3d565b61304a565b005b34801561063057600080fd5b5061064b60048036038101906106469190613b3d565b613281565b604051610658919061396a565b60405180910390f35b34801561066d57600080fd5b5061068860048036038101906106839190613554565b6132b8565b604051610695919061396a565b60405180910390f35b60606106a982612619565b6106e8576040517f08c379a00000000000000000000000000000000000000000000000000000000081526004016106df90614347565b60405180910390fd5b600080600084815260200190815260200160002090506000816008015467ffffffffffffffff81111561071e5761071d61398f565b5b60405190808252806020026020018201604052801561075757816020015b61074461336b565b81526020019060019003908161073c5790505b509050600080600190505b83600801548111610c945760008460070160008381526020019081526020016000209050604051806102000160405280826000015481526020018260010160009054906101000a900473ffffffffffffffffffffffffffffffffffffffff1673ffffffffffffffffffffffffffffffffffffffff168152602001826002015481526020018260030160009054906101000a900473ffffffffffffffffffffffffffffffffffffffff1673ffffffffffffffffffffffffffffffffffffffff16815260200182600401805461083590614396565b80601f016020809104026020016040519081016040528092919081815260200182805461086190614396565b80156108ae5780601f10610883576101008083540402835291602001916108ae565b820191906000526020600020905b81548152906001019060200180831161089157829003601f168201915b505050505081526020018260050180546108c790614396565b80601f01602080910402602001604051908101604052809291908181526020018280546108f390614396565b80156109405780601f1061091557610100808354040283529160200191610940565b820191906000526020600020905b81548152906001019060200180831161092357829003601f168201915b505050505081526020018260060154815260200182600701548152602001826008015481526020018260090154815260200182600a01805461098190614396565b80601f01602080910402602001604051908101604052809291908181526020018280546109ad90614396565b80156109fa5780601f106109cf576101008083540402835291602001916109fa565b820191906000526020600020905b8154815290600101906020018083116109dd57829003601f168201915b5050505050815260200182600b018054610a1390614396565b80601f0160208091040260200160405190810160405280929190818152602001828054610a3f90614396565b8015610a8c5780601f10610a6157610100808354040283529160200191610a8c565b820191906000526020600020905b815481529060010190602001808311610a6f57829003601f168201915b5050505050815260200182600c018054610aa590614396565b80601f0160208091040260200160405190810160405280929190818152602001828054610ad190614396565b8015610b1e5780601f10610af357610100808354040283529160200191610b1e565b820191906000526020600020905b815481529060010190602001808311610b0157829003601f168201915b5050505050815260200182600d018054610b3790614396565b80601f0160208091040260200160405190810160405280929190818152602001828054610b6390614396565b8015610bb05780601f10610b8557610100808354040283529160200191610bb0565b820191906000526020600020905b815481529060010190602001808311610b9357829003601f168201915b5050505050815260200182600e018054610bc990614396565b80601f0160208091040260200160405190810160405280929190818152602001828054610bf590614396565b8015610c425780601f10610c1757610100808354040283529160200191610c42565b820191906000526020600020905b815481529060010190602001808311610c2557829003601f168201915b5050505050815260200182600f0154815250848481518110610c6757610c666143c8565b5b60200260200101819052508280610c7d90614426565b935050508080610c8c90614426565b915050610762565b50819350505050919050565b6000806000838152602001908152602001600020600701600084815260200190815260200160002060100160008573ffffffffffffffffffffffffffffffffffffffff1673ffffffffffffffffffffffffffffffffffffffff16815260200190815260200160002060009054906101000a900460ff1690509392505050565b6000806000868152602001908152602001600020600701600085815260200190815260200160002090508281600f01819055508181600e019080519060200190610d6a929190613414565b505050505050565b610d7a61336b565b610d8383612619565b610dc2576040517f08c379a0000000000000000000000000000000000000000000000000000000008152600401610db9906144bb565b60405180910390fd5b610dcc8284613281565b610e0b576040517f08c379a0000000000000000000000000000000000000000000000000000000008152600401610e0290614527565b60405180910390fd5b6000806000858152602001908152602001600020600701600084815260200190815260200160002090506000604051806102000160405280836000015481526020018360010160009054906101000a900473ffffffffffffffffffffffffffffffffffffffff1673ffffffffffffffffffffffffffffffffffffffff168152602001836002015481526020018360030160009054906101000a900473ffffffffffffffffffffffffffffffffffffffff1673ffffffffffffffffffffffffffffffffffffffff168152602001836004018054610ee690614396565b80601f0160208091040260200160405190810160405280929190818152602001828054610f1290614396565b8015610f5f5780601f10610f3457610100808354040283529160200191610f5f565b820191906000526020600020905b815481529060010190602001808311610f4257829003601f168201915b50505050508152602001836005018054610f7890614396565b80601f0160208091040260200160405190810160405280929190818152602001828054610fa490614396565b8015610ff15780601f10610fc657610100808354040283529160200191610ff1565b820191906000526020600020905b815481529060010190602001808311610fd457829003601f168201915b505050505081526020018360060154815260200183600701548152602001836008015481526020018360090154815260200183600a01805461103290614396565b80601f016020809104026020016040519081016040528092919081815260200182805461105e90614396565b80156110ab5780601f10611080576101008083540402835291602001916110ab565b820191906000526020600020905b81548152906001019060200180831161108e57829003601f168201915b5050505050815260200183600b0180546110c490614396565b80601f01602080910402602001604051908101604052809291908181526020018280546110f090614396565b801561113d5780601f106111125761010080835404028352916020019161113d565b820191906000526020600020905b81548152906001019060200180831161112057829003601f168201915b5050505050815260200183600c01805461115690614396565b80601f016020809104026020016040519081016040528092919081815260200182805461118290614396565b80156111cf5780601f106111a4576101008083540402835291602001916111cf565b820191906000526020600020905b8154815290600101906020018083116111b257829003601f168201915b5050505050815260200183600d0180546111e890614396565b80601f016020809104026020016040519081016040528092919081815260200182805461121490614396565b80156112615780601f1061123657610100808354040283529160200191611261565b820191906000526020600020905b81548152906001019060200180831161124457829003601f168201915b5050505050815260200183600e01805461127a90614396565b80601f01602080910402602001604051908101604052809291908181526020018280546112a690614396565b80156112f35780601f106112c8576101008083540402835291602001916112f3565b820191906000526020600020905b8154815290600101906020018083116112d657829003601f168201915b5050505050815260200183600f01548152509050809250505092915050565b600080600084815260200190815260200160002090506000816007016000848152602001908152602001600020905061134a84612619565b611389576040517f08c379a0000000000000000000000000000000000000000000000000000000008152600401611380906144bb565b60405180910390fd5b611393338561197e565b6113d2576040517f08c379a00000000000000000000000000000000000000000000000000000000081526004016113c990614593565b60405180910390fd5b6113dc8385613281565b61141b576040517f08c379a000000000000000000000000000000000000000000000000000000000815260040161141290614527565b60405180910390fd5b61142584846132de565b611464576040517f08c379a000000000000000000000000000000000000000000000000000000000815260040161145b90614625565b60405180910390fd5b8060020154826004015410156114af576040517f08c379a00000000000000000000000000000000000000000000000000000000081526004016114a6906146b7565b60405180910390fd5b80600701548160060154116114f9576040517f08c379a00000000000000000000000000000000000000000000000000000000081526004016114f090614749565b60405180910390fd5b6115038484612b9c565b15611543576040517f08c379a000000000000000000000000000000000000000000000000000000000815260040161153a906147db565b60405180910390fd5b6040518060400160405280600881526020017f4578656375746564000000000000000000000000000000000000000000000000815250816004019080519060200190611590929190613414565b5080600201548260040160008282546115a991906147fb565b925050819055508060030160009054906101000a900473ffffffffffffffffffffffffffffffffffffffff1673ffffffffffffffffffffffffffffffffffffffff166108fc82600201549081150290604051600060405180830381858888f1935050505015801561161e573d6000803e3d6000fd5b5050505050565b6000806000848152602001908152602001600020600c0160008373ffffffffffffffffffffffffffffffffffffffff1673ffffffffffffffffffffffffffffffffffffffff16815260200190815260200160002060009054906101000a900460ff16905092915050565b61169881612619565b6116d7576040517f08c379a00000000000000000000000000000000000000000000000000000000081526004016116ce906144bb565b60405180910390fd5b600080600083815260200190815260200160002090506116f7338361197e565b611736576040517f08c379a000000000000000000000000000000000000000000000000000000000815260040161172d90614593565b60405180910390fd5b60003411611779576040517f08c379a0000000000000000000000000000000000000000000000000000000008152600401611770906148a1565b60405180910390fd5b611782826132b8565b6117c1576040517f08c379a00000000000000000000000000000000000000000000000000000000081526004016117b89061490d565b60405180910390fd5b60008160020160003373ffffffffffffffffffffffffffffffffffffffff1673ffffffffffffffffffffffffffffffffffffffff16815260200190815260200160002090503481600101600082825461181a919061492d565b92505081905550600060405180604001604052803373ffffffffffffffffffffffffffffffffffffffff16815260200160008152509050600183600c0160003373ffffffffffffffffffffffffffffffffffffffff1673ffffffffffffffffffffffffffffffffffffffff16815260200190815260200160002060006101000a81548160ff021916908315150217905550808360020160003373ffffffffffffffffffffffffffffffffffffffff1673ffffffffffffffffffffffffffffffffffffffff16815260200190815260200160002060008201518160000160006101000a81548173ffffffffffffffffffffffffffffffffffffffff021916908373ffffffffffffffffffffffffffffffffffffffff160217905550602082015181600101559050506001836003016000828254611956919061492d565b9250508190555034836004016000828254611971919061492d565b9250508190555050505050565b60008073ffffffffffffffffffffffffffffffffffffffff1660008084815260200190815260200160002060020160008573ffffffffffffffffffffffffffffffffffffffff1673ffffffffffffffffffffffffffffffffffffffff16815260200190815260200160002060000160009054906101000a900473ffffffffffffffffffffffffffffffffffffffff1673ffffffffffffffffffffffffffffffffffffffff161415905092915050565b60008060018054611a3e919061492d565b90506000806000838152602001908152602001600020905081816000018190555084816001019080519060200190611a77929190613414565b5060008160040181905550600081600801819055506001816003018190555042816005018190555060b442611aac919061492d565b816006018190555083816009019080519060200190611acc929190613414565b506040518060400160405280600b81526020017f556e2d566572696669656400000000000000000000000000000000000000000081525081600a019080519060200190611b1a929190613414565b50600060405180604001604052803373ffffffffffffffffffffffffffffffffffffffff16815260200160008152509050808260020160003373ffffffffffffffffffffffffffffffffffffffff1673ffffffffffffffffffffffffffffffffffffffff16815260200190815260200160002060008201518160000160006101000a81548173ffffffffffffffffffffffffffffffffffffffff021916908373ffffffffffffffffffffffffffffffffffffffff160217905550602082015181600101559050508260018190555082935050505092915050565b611bfd81612619565b611c3c576040517f08c379a0000000000000000000000000000000000000000000000000000000008152600401611c33906144bb565b60405180910390fd5b60008060008381526020019081526020016000209050611c5c338361197e565b611c9b576040517f08c379a0000000000000000000000000000000000000000000000000000000008152600401611c9290614593565b60405180910390fd5b6001816003016000828254611cb091906147fb565b925050819055508060020160003373ffffffffffffffffffffffffffffffffffffffff1673ffffffffffffffffffffffffffffffffffffffff168152602001908152602001600020600080820160006101000a81549073ffffffffffffffffffffffffffffffffffffffff0219169055600182016000905550505050565b6060600060015467ffffffffffffffff811115611d4e57611d4d61398f565b5b604051908082528060200260200182016040528015611d8757816020015b611d7461349a565b815260200190600190039081611d6c5790505b509050600080600190505b600154811161200b5760008060008381526020019081526020016000209050611dbf33826000015461197e565b15611ff75760405180610140016040528082600001548152602001826001018054611de990614396565b80601f0160208091040260200160405190810160405280929190818152602001828054611e1590614396565b8015611e625780601f10611e3757610100808354040283529160200191611e62565b820191906000526020600020905b815481529060010190602001808311611e4557829003601f168201915b505050505081526020018260030154815260200182600801548152602001826004015481526020018260050154815260200182600601548152602001826009018054611ead90614396565b80601f0160208091040260200160405190810160405280929190818152602001828054611ed990614396565b8015611f265780601f10611efb57610100808354040283529160200191611f26565b820191906000526020600020905b815481529060010190602001808311611f0957829003601f168201915b5050505050815260200182600a018054611f3f90614396565b80601f0160208091040260200160405190810160405280929190818152602001828054611f6b90614396565b8015611fb85780601f10611f8d57610100808354040283529160200191611fb8565b820191906000526020600020905b815481529060010190602001808311611f9b57829003601f168201915b5050505050815260200182600b0154815250848481518110611fdd57611fdc6143c8565b5b60200260200101819052508280611ff390614426565b9350505b50808061200390614426565b915050611d92565b50819250505090565b61201d83612619565b61205c576040517f08c379a0000000000000000000000000000000000000000000000000000000008152600401612053906144bb565b60405180910390fd5b6120668383612b9c565b6120a5576040517f08c379a000000000000000000000000000000000000000000000000000000000815260040161209c906149cf565b60405180910390fd5b600080600085815260200190815260200160002090506120c5338561197e565b612104576040517f08c379a00000000000000000000000000000000000000000000000000000000081526004016120fb90614593565b60405180910390fd5b61210e8385613281565b61214d576040517f08c379a000000000000000000000000000000000000000000000000000000000815260040161214490614527565b60405180910390fd5b60008160070160008581526020019081526020016000209050612171338587610ca0565b156121b1576040517f08c379a00000000000000000000000000000000000000000000000000000000081526004016121a890614a61565b60405180910390fd5b6040518060400160405280600781526020017f50656e64696e670000000000000000000000000000000000000000000000000081525080519060200120816004016040516121ff9190614b20565b604051809103902014612247576040517f08c379a000000000000000000000000000000000000000000000000000000000815260040161223e90614ba9565b60405180910390fd5b828160100160003373ffffffffffffffffffffffffffffffffffffffff1673ffffffffffffffffffffffffffffffffffffffff16815260200190815260200160002060006101000a81548160ff02191690831515021790555082156122c75760018160060160008282546122bb919061492d565b925050819055506122e4565b60018160070160008282546122dc919061492d565b925050819055505b5050505050565b6060600060015467ffffffffffffffff81111561230b5761230a61398f565b5b60405190808252806020026020018201604052801561234457816020015b61233161349a565b8152602001906001900390816123295790505b50905060005b6001548110156125ae576000806000600184612366919061492d565b815260200190815260200160002090506040518061014001604052808260000154815260200182600101805461239b90614396565b80601f01602080910402602001604051908101604052809291908181526020018280546123c790614396565b80156124145780601f106123e957610100808354040283529160200191612414565b820191906000526020600020905b8154815290600101906020018083116123f757829003601f168201915b50505050508152602001826003015481526020018260050154815260200182600601548152602001826008015481526020018260040154815260200182600901805461245f90614396565b80601f016020809104026020016040519081016040528092919081815260200182805461248b90614396565b80156124d85780601f106124ad576101008083540402835291602001916124d8565b820191906000526020600020905b8154815290600101906020018083116124bb57829003601f168201915b5050505050815260200182600a0180546124f190614396565b80601f016020809104026020016040519081016040528092919081815260200182805461251d90614396565b801561256a5780601f1061253f5761010080835404028352916020019161256a565b820191906000526020600020905b81548152906001019060200180831161254d57829003601f168201915b5050505050815260200182600b015481525083838151811061258f5761258e6143c8565b5b60200260200101819052505080806125a690614426565b91505061234a565b508091505090565b6000806000868152602001908152602001600020600701600085815260200190815260200160002090508281600b0190805190602001906125f8929190613414565b508181600c019080519060200190612611929190613414565b505050505050565b6000806000808481526020019081526020016000206000015414159050919050565b61264481612619565b612683576040517f08c379a000000000000000000000000000000000000000000000000000000000815260040161267a90614c15565b60405180910390fd5b600080600083815260200190815260200160002090506040518060400160405280600881526020017f566572696669656400000000000000000000000000000000000000000000000081525081600a0190805190602001906126e6929190613414565b505050565b600080600080848152602001908152602001600020905060008160020160008673ffffffffffffffffffffffffffffffffffffffff1673ffffffffffffffffffffffffffffffffffffffff168152602001908152602001600020905080600101549250505092915050565b61275f85612619565b61279e576040517f08c379a0000000000000000000000000000000000000000000000000000000008152600401612795906144bb565b60405180910390fd5b600080600087815260200190815260200160002090506127be338761197e565b6127fd576040517f08c379a00000000000000000000000000000000000000000000000000000000081526004016127f490614593565b60405180910390fd5b60008511612840576040517f08c379a000000000000000000000000000000000000000000000000000000000815260040161283790614ca7565b60405180910390fd5b600060018260080154612853919061492d565b9050600080600089815260200190815260200160002060070160008381526020019081526020016000209050818160000181905550338160010160006101000a81548173ffffffffffffffffffffffffffffffffffffffff021916908373ffffffffffffffffffffffffffffffffffffffff160217905550868160020181905550858160030160006101000a81548173ffffffffffffffffffffffffffffffffffffffff021916908373ffffffffffffffffffffffffffffffffffffffff1602179055506040518060400160405280600781526020017f50656e64696e6700000000000000000000000000000000000000000000000000815250816004019080519060200190612964929190613414565b508481600501908051906020019061297d929190613414565b50600081600601819055506000816007018190555042816008018190555061012c426129a9919061492d565b81600901819055508381600a0190805190602001906129c9929190613414565b506040518060400160405280600a81526020017f494e2050726f636573730000000000000000000000000000000000000000000081525081600b019080519060200190612a17929190613414565b506040518060400160405280600a81526020017f494e2d50726f636573730000000000000000000000000000000000000000000081525081600c019080519060200190612a65929190613414565b50600081600f01819055506040518060400160405280600a81526020017f494e2d50726f636573730000000000000000000000000000000000000000000081525081600e019080519060200190612abd929190613414565b506040518060400160405280600b81526020017f556e2d566572696669656400000000000000000000000000000000000000000081525081600d019080519060200190612b0b929190613414565b508183600801819055505050505050505050565b6000806000848152602001908152602001600020600701600083815260200190815260200160002090506040518060400160405280600881526020017f566572696669656400000000000000000000000000000000000000000000000081525081600d019080519060200190612b96929190613414565b50505050565b600080600080858152602001908152602001600020600701600084815260200190815260200160002090504281600901541191505092915050565b612bdf61349a565b612be882612619565b612c27576040517f08c379a0000000000000000000000000000000000000000000000000000000008152600401612c1e906144bb565b60405180910390fd5b60008060008481526020019081526020016000209050600060405180610140016040528083600001548152602001836001018054612c6490614396565b80601f0160208091040260200160405190810160405280929190818152602001828054612c9090614396565b8015612cdd5780601f10612cb257610100808354040283529160200191612cdd565b820191906000526020600020905b815481529060010190602001808311612cc057829003601f168201915b505050505081526020018360030154815260200183600801548152602001836004015481526020018360050154815260200183600601548152602001836009018054612d2890614396565b80601f0160208091040260200160405190810160405280929190818152602001828054612d5490614396565b8015612da15780601f10612d7657610100808354040283529160200191612da1565b820191906000526020600020905b815481529060010190602001808311612d8457829003601f168201915b5050505050815260200183600a018054612dba90614396565b80601f0160208091040260200160405190810160405280929190818152602001828054612de690614396565b8015612e335780601f10612e0857610100808354040283529160200191612e33565b820191906000526020600020905b815481529060010190602001808311612e1657829003601f168201915b5050505050815260200183600b015481525090508092505050919050565b6000606360008084815260200190815260200160002060030154109050919050565b612e7c81612619565b612ebb576040517f08c379a0000000000000000000000000000000000000000000000000000000008152600401612eb290614c15565b60405180910390fd5b60008060008381526020019081526020016000209050612eda82612e51565b612f19576040517f08c379a0000000000000000000000000000000000000000000000000000000008152600401612f1090614d39565b60405180910390fd5b612f23338361197e565b15612f63576040517f08c379a0000000000000000000000000000000000000000000000000000000008152600401612f5a90614dcb565b60405180910390fd5b600060405180604001604052803373ffffffffffffffffffffffffffffffffffffffff16815260200160008152509050808260020160003373ffffffffffffffffffffffffffffffffffffffff1673ffffffffffffffffffffffffffffffffffffffff16815260200190815260200160002060008201518160000160006101000a81548173ffffffffffffffffffffffffffffffffffffffff021916908373ffffffffffffffffffffffffffffffffffffffff16021790555060208201518160010155905050600182600301600082825461303e919061492d565b92505081905550505050565b61305382612619565b613092576040517f08c379a0000000000000000000000000000000000000000000000000000000008152600401613089906144bb565b60405180910390fd5b61309c8183613281565b6130db576040517f08c379a00000000000000000000000000000000000000000000000000000000081526004016130d290614527565b60405180910390fd5b6130e58282612b9c565b15613125576040517f08c379a000000000000000000000000000000000000000000000000000000000815260040161311c906147db565b60405180910390fd5b6000806000848152602001908152602001600020600701600083815260200190815260200160002090506040518060400160405280600781526020017f50656e64696e6700000000000000000000000000000000000000000000000000815250805190602001208160040160405161319d9190614b20565b6040518091039020146131e5576040517f08c379a00000000000000000000000000000000000000000000000000000000081526004016131dc90614e5d565b60405180910390fd5b6131ef83836132de565b61322e576040517f08c379a000000000000000000000000000000000000000000000000000000000815260040161322590614eef565b60405180910390fd5b6040518060400160405280600681526020017f436c6f736564000000000000000000000000000000000000000000000000000081525081600401908051906020019061327b929190613414565b50505050565b6000806000808481526020019081526020016000206007016000858152602001908152602001600020600001541415905092915050565b600080600080848152602001908152602001600020905042816006015411915050919050565b6000806000808581526020019081526020016000209050600081600701600085815260200190815260200160002090508060010160009054906101000a900473ffffffffffffffffffffffffffffffffffffffff1673ffffffffffffffffffffffffffffffffffffffff163373ffffffffffffffffffffffffffffffffffffffff16149250505092915050565b60405180610200016040528060008152602001600073ffffffffffffffffffffffffffffffffffffffff16815260200160008152602001600073ffffffffffffffffffffffffffffffffffffffff1681526020016060815260200160608152602001600081526020016000815260200160008152602001600081526020016060815260200160608152602001606081526020016060815260200160608152602001600081525090565b82805461342090614396565b90600052602060002090601f0160209004810192826134425760008555613489565b82601f1061345b57805160ff1916838001178555613489565b82800160010185558215613489579182015b8281111561348857825182559160200191906001019061346d565b5b50905061349691906134ed565b5090565b604051806101400160405280600081526020016060815260200160008152602001600081526020016000815260200160008152602001600081526020016060815260200160608152602001600081525090565b5b808211156135065760008160009055506001016134ee565b5090565b6000604051905090565b600080fd5b600080fd5b6000819050919050565b6135318161351e565b811461353c57600080fd5b50565b60008135905061354e81613528565b92915050565b60006020828403121561356a57613569613514565b5b60006135788482850161353f565b91505092915050565b600081519050919050565b600082825260208201905092915050565b6000819050602082019050919050565b6135b68161351e565b82525050565b600073ffffffffffffffffffffffffffffffffffffffff82169050919050565b60006135e7826135bc565b9050919050565b6135f7816135dc565b82525050565b600081519050919050565b600082825260208201905092915050565b60005b8381101561363757808201518184015260208101905061361c565b83811115613646576000848401525b50505050565b6000601f19601f8301169050919050565b6000613668826135fd565b6136728185613608565b9350613682818560208601613619565b61368b8161364c565b840191505092915050565b6000610200830160008301516136af60008601826135ad565b5060208301516136c260208601826135ee565b5060408301516136d560408601826135ad565b5060608301516136e860608601826135ee565b5060808301518482036080860152613700828261365d565b91505060a083015184820360a086015261371a828261365d565b91505060c083015161372f60c08601826135ad565b5060e083015161374260e08601826135ad565b506101008301516137576101008601826135ad565b5061012083015161376c6101208601826135ad565b50610140830151848203610140860152613786828261365d565b9150506101608301518482036101608601526137a2828261365d565b9150506101808301518482036101808601526137be828261365d565b9150506101a08301518482036101a08601526137da828261365d565b9150506101c08301518482036101c08601526137f6828261365d565b9150506101e083015161380d6101e08601826135ad565b508091505092915050565b60006138248383613696565b905092915050565b6000602082019050919050565b600061384482613581565b61384e818561358c565b9350836020820285016138608561359d565b8060005b8581101561389c578484038952815161387d8582613818565b94506138888361382c565b925060208a01995050600181019050613864565b50829750879550505050505092915050565b600060208201905081810360008301526138c88184613839565b905092915050565b6138d9816135dc565b81146138e457600080fd5b50565b6000813590506138f6816138d0565b92915050565b60008060006060848603121561391557613914613514565b5b6000613923868287016138e7565b93505060206139348682870161353f565b92505060406139458682870161353f565b9150509250925092565b60008115159050919050565b6139648161394f565b82525050565b600060208201905061397f600083018461395b565b92915050565b600080fd5b600080fd5b7f4e487b7100000000000000000000000000000000000000000000000000000000600052604160045260246000fd5b6139c78261364c565b810181811067ffffffffffffffff821117156139e6576139e561398f565b5b80604052505050565b60006139f961350a565b9050613a0582826139be565b919050565b600067ffffffffffffffff821115613a2557613a2461398f565b5b613a2e8261364c565b9050602081019050919050565b82818337600083830152505050565b6000613a5d613a5884613a0a565b6139ef565b905082815260208101848484011115613a7957613a7861398a565b5b613a84848285613a3b565b509392505050565b600082601f830112613aa157613aa0613985565b5b8135613ab1848260208601613a4a565b91505092915050565b60008060008060808587031215613ad457613ad3613514565b5b6000613ae28782880161353f565b9450506020613af38782880161353f565b9350506040613b048782880161353f565b925050606085013567ffffffffffffffff811115613b2557613b24613519565b5b613b3187828801613a8c565b91505092959194509250565b60008060408385031215613b5457613b53613514565b5b6000613b628582860161353f565b9250506020613b738582860161353f565b9150509250929050565b600061020083016000830151613b9660008601826135ad565b506020830151613ba960208601826135ee565b506040830151613bbc60408601826135ad565b506060830151613bcf60608601826135ee565b5060808301518482036080860152613be7828261365d565b91505060a083015184820360a0860152613c01828261365d565b91505060c0830151613c1660c08601826135ad565b5060e0830151613c2960e08601826135ad565b50610100830151613c3e6101008601826135ad565b50610120830151613c536101208601826135ad565b50610140830151848203610140860152613c6d828261365d565b915050610160830151848203610160860152613c89828261365d565b915050610180830151848203610180860152613ca5828261365d565b9150506101a08301518482036101a0860152613cc1828261365d565b9150506101c08301518482036101c0860152613cdd828261365d565b9150506101e0830151613cf46101e08601826135ad565b508091505092915050565b60006020820190508181036000830152613d198184613b7d565b905092915050565b60008060408385031215613d3857613d37613514565b5b6000613d468582860161353f565b9250506020613d57858286016138e7565b9150509250929050565b60008060408385031215613d7857613d77613514565b5b6000613d86858286016138e7565b9250506020613d978582860161353f565b9150509250929050565b60008060408385031215613db857613db7613514565b5b600083013567ffffffffffffffff811115613dd657613dd5613519565b5b613de285828601613a8c565b925050602083013567ffffffffffffffff811115613e0357613e02613519565b5b613e0f85828601613a8c565b9150509250929050565b613e228161351e565b82525050565b6000602082019050613e3d6000830184613e19565b92915050565b600081519050919050565b600082825260208201905092915050565b6000819050602082019050919050565b600061014083016000830151613e8860008601826135ad565b5060208301518482036020860152613ea0828261365d565b9150506040830151613eb560408601826135ad565b506060830151613ec860608601826135ad565b506080830151613edb60808601826135ad565b5060a0830151613eee60a08601826135ad565b5060c0830151613f0160c08601826135ad565b5060e083015184820360e0860152613f19828261365d565b915050610100830151848203610100860152613f35828261365d565b915050610120830151613f4c6101208601826135ad565b508091505092915050565b6000613f638383613e6f565b905092915050565b6000602082019050919050565b6000613f8382613e43565b613f8d8185613e4e565b935083602082028501613f9f85613e5f565b8060005b85811015613fdb5784840389528151613fbc8582613f57565b9450613fc783613f6b565b925060208a01995050600181019050613fa3565b50829750879550505050505092915050565b600060208201905081810360008301526140078184613f78565b905092915050565b6140188161394f565b811461402357600080fd5b50565b6000813590506140358161400f565b92915050565b60008060006060848603121561405457614053613514565b5b60006140628682870161353f565b93505060206140738682870161353f565b925050604061408486828701614026565b9150509250925092565b600080600080608085870312156140a8576140a7613514565b5b60006140b68782880161353f565b94505060206140c78782880161353f565b935050604085013567ffffffffffffffff8111156140e8576140e7613519565b5b6140f487828801613a8c565b925050606085013567ffffffffffffffff81111561411557614114613519565b5b61412187828801613a8c565b91505092959194509250565b600080600080600060a0868803121561414957614148613514565b5b60006141578882890161353f565b95505060206141688882890161353f565b9450506040614179888289016138e7565b935050606086013567ffffffffffffffff81111561419a57614199613519565b5b6141a688828901613a8c565b925050608086013567ffffffffffffffff8111156141c7576141c6613519565b5b6141d388828901613a8c565b9150509295509295909350565b6000610140830160008301516141f960008601826135ad565b5060208301518482036020860152614211828261365d565b915050604083015161422660408601826135ad565b50606083015161423960608601826135ad565b50608083015161424c60808601826135ad565b5060a083015161425f60a08601826135ad565b5060c083015161427260c08601826135ad565b5060e083015184820360e086015261428a828261365d565b9150506101008301518482036101008601526142a6828261365d565b9150506101208301516142bd6101208601826135ad565b508091505092915050565b600060208201905081810360008301526142e281846141e0565b905092915050565b600082825260208201905092915050565b7f436c756220646f6573206e6f7420657869737400000000000000000000000000600082015250565b60006143316013836142ea565b915061433c826142fb565b602082019050919050565b6000602082019050818103600083015261436081614324565b9050919050565b7f4e487b7100000000000000000000000000000000000000000000000000000000600052602260045260246000fd5b600060028204905060018216806143ae57607f821691505b602082108114156143c2576143c1614367565b5b50919050565b7f4e487b7100000000000000000000000000000000000000000000000000000000600052603260045260246000fd5b7f4e487b7100000000000000000000000000000000000000000000000000000000600052601160045260246000fd5b60006144318261351e565b91507fffffffffffffffffffffffffffffffffffffffffffffffffffffffffffffffff821415614464576144636143f7565b5b600182019050919050565b7f74686520636c756220646f6573206e6f74206578697374000000000000000000600082015250565b60006144a56017836142ea565b91506144b08261446f565b602082019050919050565b600060208201905081810360008301526144d481614498565b9050919050565b7f5468652070726f706f73616c20646f6573206e6f742065786973740000000000600082015250565b6000614511601b836142ea565b915061451c826144db565b602082019050919050565b6000602082019050818103600083015261454081614504565b9050919050565b7f596f7520617265206e6f742061206d656d626572206f662074686520636c7562600082015250565b600061457d6020836142ea565b915061458882614547565b602082019050919050565b600060208201905081810360008301526145ac81614570565b9050919050565b7f4f6e6c79207468652063726561746f72206f66207468652070726f706f73616c60008201527f2063616e20657865637574652069740000000000000000000000000000000000602082015250565b600061460f602f836142ea565b915061461a826145b3565b604082019050919050565b6000602082019050818103600083015261463e81614602565b9050919050565b7f54686520616d6f756e7420657863656564732074686520706f6f6c206f66207460008201527f686520636c756200000000000000000000000000000000000000000000000000602082015250565b60006146a16027836142ea565b91506146ac82614645565b604082019050919050565b600060208201905081810360008301526146d081614694565b9050919050565b7f5468652070726f706f73616c20686173206e6f74206265656e20617070726f7660008201527f6564000000000000000000000000000000000000000000000000000000000000602082015250565b60006147336022836142ea565b915061473e826146d7565b604082019050919050565b6000602082019050818103600083015261476281614726565b9050919050565b7f596f752063616e2774206265666f72652074686520566f74696e67206465616460008201527f6c696e6500000000000000000000000000000000000000000000000000000000602082015250565b60006147c56024836142ea565b91506147d082614769565b604082019050919050565b600060208201905081810360008301526147f4816147b8565b9050919050565b60006148068261351e565b91506148118361351e565b925082821015614824576148236143f7565b5b828203905092915050565b7f596f75206d7573742073656e642045564d4f5320746f20636f6e74726962757460008201527f6500000000000000000000000000000000000000000000000000000000000000602082015250565b600061488b6021836142ea565b91506148968261482f565b604082019050919050565b600060208201905081810360008301526148ba8161487e565b9050919050565b7f436c756220697320636c6f736564000000000000000000000000000000000000600082015250565b60006148f7600e836142ea565b9150614902826148c1565b602082019050919050565b60006020820190508181036000830152614926816148ea565b9050919050565b60006149388261351e565b91506149438361351e565b9250827fffffffffffffffffffffffffffffffffffffffffffffffffffffffffffffffff03821115614978576149776143f7565b5b828201905092915050565b7f566f74696e6720506572696f642046696e697368656400000000000000000000600082015250565b60006149b96016836142ea565b91506149c482614983565b602082019050919050565b600060208201905081810360008301526149e8816149ac565b9050919050565b7f596f75206861766520616c726561647920766f746564206f6e2074686973207060008201527f726f706f73616c00000000000000000000000000000000000000000000000000602082015250565b6000614a4b6027836142ea565b9150614a56826149ef565b604082019050919050565b60006020820190508181036000830152614a7a81614a3e565b9050919050565b600081905092915050565b60008190508160005260206000209050919050565b60008154614aae81614396565b614ab88186614a81565b94506001821660008114614ad35760018114614ae457614b17565b60ff19831686528186019350614b17565b614aed85614a8c565b60005b83811015614b0f57815481890152600182019150602081019050614af0565b838801955050505b50505092915050565b6000614b2c8284614aa1565b915081905092915050565b7f5468652070726f706f73616c206973206e6f206c6f6e6765722070656e64696e60008201527f6700000000000000000000000000000000000000000000000000000000000000602082015250565b6000614b936021836142ea565b9150614b9e82614b37565b604082019050919050565b60006020820190508181036000830152614bc281614b86565b9050919050565b7f54686520636c756220646f6573206e6f74206578697374000000000000000000600082015250565b6000614bff6017836142ea565b9150614c0a82614bc9565b602082019050919050565b60006020820190508181036000830152614c2e81614bf2565b9050919050565b7f54686520616d6f756e74206f66207468652070726f706f73616c206d7573742060008201527f62652067726561746572207468616e2030000000000000000000000000000000602082015250565b6000614c916031836142ea565b9150614c9c82614c35565b604082019050919050565b60006020820190508181036000830152614cc081614c84565b9050919050565b7f54686520636c75622069732066756c6c2c206e6f206d6f7265206d656d62657260008201527f732063616e206265206164646564000000000000000000000000000000000000602082015250565b6000614d23602e836142ea565b9150614d2e82614cc7565b604082019050919050565b60006020820190508181036000830152614d5281614d16565b9050919050565b7f596f752061726520616c72656164792061206d656d626572206f66207468652060008201527f636c756200000000000000000000000000000000000000000000000000000000602082015250565b6000614db56024836142ea565b9150614dc082614d59565b604082019050919050565b60006020820190508181036000830152614de481614da8565b9050919050565b7f5468652070726f706f73616c206973206e6f7420696e2070656e64696e67207360008201527f7461747573000000000000000000000000000000000000000000000000000000602082015250565b6000614e476025836142ea565b9150614e5282614deb565b604082019050919050565b60006020820190508181036000830152614e7681614e3a565b9050919050565b7f4f6e6c79207468652070726f706f73616c2063726561746f722063616e20636c60008201527f6f7365207468652070726f706f73616c00000000000000000000000000000000602082015250565b6000614ed96030836142ea565b9150614ee482614e7d565b604082019050919050565b60006020820190508181036000830152614f0881614ecc565b905091905056fea264697066735822122018593368a6c42034203ff924490b6459c138f99c9b6b2302749103aef426b2d764736f6c634300080a0033",
  "linkReferences": {},
  "deployedLinkReferences": {}
}