{
  "_format": "hh-sol-artifact-1",
  "contractName": "InvestmentClub",
  "sourceName": "contracts/InvestmentClub.sol",
  "abi": [
    {
      "inputs": [],
      "stateMutability": "nonpayable",
      "type": "constructor"
    },
    {
      "inputs": [
        {
          "internalType": "uint256",
          "name": "clubId",
          "type": "uint256"
        },
        {
          "internalType": "uint256",
          "name": "proposalId",
          "type": "uint256"
        }
      ],
      "name": "closeProposal",
      "outputs": [],
      "stateMutability": "nonpayable",
      "type": "function"
    },
    {
      "inputs": [
        {
          "internalType": "uint256",
          "name": "clubId",
          "type": "uint256"
        }
      ],
      "name": "contributeToClub",
      "outputs": [],
      "stateMutability": "payable",
      "type": "function"
    },
    {
      "inputs": [
        {
          "internalType": "string",
          "name": "name",
          "type": "string"
        },
        {
          "internalType": "string",
          "name": "Cid",
          "type": "string"
        }
      ],
      "name": "createClub",
      "outputs": [
        {
          "internalType": "uint256",
          "name": "",
          "type": "uint256"
        }
      ],
      "stateMutability": "nonpayable",
      "type": "function"
    },
    {
      "inputs": [
        {
          "internalType": "uint256",
          "name": "clubId",
          "type": "uint256"
        },
        {
          "internalType": "uint256",
          "name": "amount",
          "type": "uint256"
        },
        {
          "internalType": "address",
          "name": "destination",
          "type": "address"
        },
        {
          "internalType": "string",
          "name": "description",
          "type": "string"
        },
        {
          "internalType": "string",
          "name": "Cid",
          "type": "string"
        }
      ],
      "name": "createProposal",
      "outputs": [],
      "stateMutability": "nonpayable",
      "type": "function"
    },
    {
      "inputs": [
        {
          "internalType": "uint256",
          "name": "clubId",
          "type": "uint256"
        },
        {
          "internalType": "uint256",
          "name": "proposalId",
          "type": "uint256"
        }
      ],
      "name": "executeProposal",
      "outputs": [],
      "stateMutability": "payable",
      "type": "function"
    },
    {
      "inputs": [
        {
          "internalType": "address",
          "name": "userAddress",
          "type": "address"
        },
        {
          "internalType": "uint256",
          "name": "clubId",
          "type": "uint256"
        }
      ],
      "name": "getBalanceByClub",
      "outputs": [
        {
          "internalType": "uint256",
          "name": "",
          "type": "uint256"
        }
      ],
      "stateMutability": "view",
      "type": "function"
    },
    {
      "inputs": [
        {
          "internalType": "uint256",
          "name": "clubId",
          "type": "uint256"
        },
        {
          "internalType": "uint256",
          "name": "proposalId",
          "type": "uint256"
        },
        {
          "internalType": "string",
          "name": "_Piece",
          "type": "string"
        },
        {
          "internalType": "string",
          "name": "_carsize",
          "type": "string"
        }
      ],
      "name": "getCarpiece",
      "outputs": [],
      "stateMutability": "nonpayable",
      "type": "function"
    },
    {
      "inputs": [
        {
          "internalType": "uint256",
          "name": "clubId",
          "type": "uint256"
        }
      ],
      "name": "getClubById",
      "outputs": [
        {
          "components": [
            {
              "internalType": "uint256",
              "name": "clubId",
              "type": "uint256"
            },
            {
              "internalType": "string",
              "name": "name",
              "type": "string"
            },
            {
              "internalType": "uint256",
              "name": "memberCount",
              "type": "uint256"
            },
            {
              "internalType": "uint256",
              "name": "proposalCount",
              "type": "uint256"
            },
            {
              "internalType": "uint256",
              "name": "pool",
              "type": "uint256"
            },
            {
              "internalType": "uint256",
              "name": "clubcreatedAt",
              "type": "uint256"
            },
            {
              "internalType": "uint256",
              "name": "clubexpireAt",
              "type": "uint256"
            },
            {
              "internalType": "string",
              "name": "CID",
              "type": "string"
            },
            {
              "internalType": "string",
              "name": "posdiverification",
              "type": "string"
            },
            {
              "internalType": "uint256",
              "name": "DealId",
              "type": "uint256"
            }
          ],
          "internalType": "struct InvestmentClub.ClubInfo",
          "name": "",
          "type": "tuple"
        }
      ],
      "stateMutability": "view",
      "type": "function"
    },
    {
      "inputs": [],
      "name": "getMyClubs",
      "outputs": [
        {
          "components": [
            {
              "internalType": "uint256",
              "name": "clubId",
              "type": "uint256"
            },
            {
              "internalType": "string",
              "name": "name",
              "type": "string"
            },
            {
              "internalType": "uint256",
              "name": "memberCount",
              "type": "uint256"
            },
            {
              "internalType": "uint256",
              "name": "proposalCount",
              "type": "uint256"
            },
            {
              "internalType": "uint256",
              "name": "pool",
              "type": "uint256"
            },
            {
              "internalType": "uint256",
              "name": "clubcreatedAt",
              "type": "uint256"
            },
            {
              "internalType": "uint256",
              "name": "clubexpireAt",
              "type": "uint256"
            },
            {
              "internalType": "string",
              "name": "CID",
              "type": "string"
            },
            {
              "internalType": "string",
              "name": "posdiverification",
              "type": "string"
            },
            {
              "internalType": "uint256",
              "name": "DealId",
              "type": "uint256"
            }
          ],
          "internalType": "struct InvestmentClub.ClubInfo[]",
          "name": "",
          "type": "tuple[]"
        }
      ],
      "stateMutability": "view",
      "type": "function"
    },
    {
      "inputs": [
        {
          "internalType": "uint256",
          "name": "clubId",
          "type": "uint256"
        },
        {
          "internalType": "uint256",
          "name": "proposalId",
          "type": "uint256"
        }
      ],
      "name": "getProposalById",
      "outputs": [
        {
          "components": [
            {
              "internalType": "uint256",
              "name": "id",
              "type": "uint256"
            },
            {
              "internalType": "address",
              "name": "creator",
              "type": "address"
            },
            {
              "internalType": "uint256",
              "name": "amount",
              "type": "uint256"
            },
            {
              "internalType": "address",
              "name": "destination",
              "type": "address"
            },
            {
              "internalType": "string",
              "name": "status",
              "type": "string"
            },
            {
              "internalType": "string",
              "name": "description",
              "type": "string"
            },
            {
              "internalType": "uint256",
              "name": "votesFor",
              "type": "uint256"
            },
            {
              "internalType": "uint256",
              "name": "votesAgainst",
              "type": "uint256"
            },
            {
              "internalType": "uint256",
              "name": "proposedAt",
              "type": "uint256"
            },
            {
              "internalType": "uint256",
              "name": "proposalExpireAt",
              "type": "uint256"
            },
            {
              "internalType": "string",
              "name": "Cid",
              "type": "string"
            },
            {
              "internalType": "string",
              "name": "PieceCid",
              "type": "string"
            },
            {
              "internalType": "string",
              "name": "carsize",
              "type": "string"
            },
            {
              "internalType": "string",
              "name": "posdiverification",
              "type": "string"
            },
            {
              "internalType": "string",
              "name": "storageProvider",
              "type": "string"
            },
            {
              "internalType": "uint256",
              "name": "DealId",
              "type": "uint256"
            }
          ],
          "internalType": "struct InvestmentClub.ProposalInfo",
          "name": "",
          "type": "tuple"
        }
      ],
      "stateMutability": "view",
      "type": "function"
    },
    {
      "inputs": [
        {
          "internalType": "uint256",
          "name": "clubId",
          "type": "uint256"
        }
      ],
      "name": "getProposalsByClub",
      "outputs": [
        {
          "components": [
            {
              "internalType": "uint256",
              "name": "id",
              "type": "uint256"
            },
            {
              "internalType": "address",
              "name": "creator",
              "type": "address"
            },
            {
              "internalType": "uint256",
              "name": "amount",
              "type": "uint256"
            },
            {
              "internalType": "address",
              "name": "destination",
              "type": "address"
            },
            {
              "internalType": "string",
              "name": "status",
              "type": "string"
            },
            {
              "internalType": "string",
              "name": "description",
              "type": "string"
            },
            {
              "internalType": "uint256",
              "name": "votesFor",
              "type": "uint256"
            },
            {
              "internalType": "uint256",
              "name": "votesAgainst",
              "type": "uint256"
            },
            {
              "internalType": "uint256",
              "name": "proposedAt",
              "type": "uint256"
            },
            {
              "internalType": "uint256",
              "name": "proposalExpireAt",
              "type": "uint256"
            },
            {
              "internalType": "string",
              "name": "Cid",
              "type": "string"
            },
            {
              "internalType": "string",
              "name": "PieceCid",
              "type": "string"
            },
            {
              "internalType": "string",
              "name": "carsize",
              "type": "string"
            },
            {
              "internalType": "string",
              "name": "posdiverification",
              "type": "string"
            },
            {
              "internalType": "string",
              "name": "storageProvider",
              "type": "string"
            },
            {
              "internalType": "uint256",
              "name": "DealId",
              "type": "uint256"
            }
          ],
          "internalType": "struct InvestmentClub.ProposalInfo[]",
          "name": "",
          "type": "tuple[]"
        }
      ],
      "stateMutability": "view",
      "type": "function"
    },
    {
      "inputs": [
        {
          "internalType": "uint256",
          "name": "clubId",
          "type": "uint256"
        },
        {
          "internalType": "uint256",
          "name": "proposalId",
          "type": "uint256"
        },
        {
          "internalType": "uint256",
          "name": "_dealId",
          "type": "uint256"
        },
        {
          "internalType": "string",
          "name": "_storage",
          "type": "string"
        }
      ],
      "name": "getdelandstorgae",
      "outputs": [],
      "stateMutability": "nonpayable",
      "type": "function"
    },
    {
      "inputs": [
        {
          "internalType": "address",
          "name": "sender",
          "type": "address"
        },
        {
          "internalType": "uint256",
          "name": "proposalId",
          "type": "uint256"
        },
        {
          "internalType": "uint256",
          "name": "clubId",
          "type": "uint256"
        }
      ],
      "name": "hasVoted",
      "outputs": [
        {
          "internalType": "bool",
          "name": "",
          "type": "bool"
        }
      ],
      "stateMutability": "view",
      "type": "function"
    },
    {
      "inputs": [
        {
          "internalType": "uint256",
          "name": "clubId",
          "type": "uint256"
        }
      ],
      "name": "isClubFull",
      "outputs": [
        {
          "internalType": "bool",
          "name": "",
          "type": "bool"
        }
      ],
      "stateMutability": "view",
      "type": "function"
    },
    {
      "inputs": [
        {
          "internalType": "uint256",
          "name": "clubId",
          "type": "uint256"
        }
      ],
      "name": "isClubIdExist",
      "outputs": [
        {
          "internalType": "bool",
          "name": "",
          "type": "bool"
        }
      ],
      "stateMutability": "view",
      "type": "function"
    },
    {
      "inputs": [
        {
          "internalType": "address",
          "name": "memberAddress",
          "type": "address"
        },
        {
          "internalType": "uint256",
          "name": "clubId",
          "type": "uint256"
        }
      ],
      "name": "isMemberOfClub",
      "outputs": [
        {
          "internalType": "bool",
          "name": "",
          "type": "bool"
        }
      ],
      "stateMutability": "view",
      "type": "function"
    },
    {
      "inputs": [
        {
          "internalType": "uint256",
          "name": "proposalId",
          "type": "uint256"
        },
        {
          "internalType": "uint256",
          "name": "clubId",
          "type": "uint256"
        }
      ],
      "name": "isProposalIdExist",
      "outputs": [
        {
          "internalType": "bool",
          "name": "",
          "type": "bool"
        }
      ],
      "stateMutability": "view",
      "type": "function"
    },
    {
      "inputs": [
        {
          "internalType": "uint256",
          "name": "clubId",
          "type": "uint256"
        },
        {
          "internalType": "uint256",
          "name": "proposalId",
          "type": "uint256"
        }
      ],
      "name": "isVotingOn",
      "outputs": [
        {
          "internalType": "bool",
          "name": "",
          "type": "bool"
        }
      ],
      "stateMutability": "view",
      "type": "function"
    },
    {
      "inputs": [
        {
          "internalType": "uint256",
          "name": "clubId",
          "type": "uint256"
        }
      ],
      "name": "isclubopen",
      "outputs": [
        {
          "internalType": "bool",
          "name": "",
          "type": "bool"
        }
      ],
      "stateMutability": "view",
      "type": "function"
    },
    {
      "inputs": [
        {
          "internalType": "uint256",
          "name": "clubId",
          "type": "uint256"
        }
      ],
      "name": "joinClub",
      "outputs": [],
      "stateMutability": "nonpayable",
      "type": "function"
    },
    {
      "inputs": [
        {
          "internalType": "uint256",
          "name": "clubId",
          "type": "uint256"
        }
      ],
      "name": "leaveClub",
      "outputs": [],
      "stateMutability": "nonpayable",
      "type": "function"
    },
    {
      "inputs": [],
      "name": "listClubs",
      "outputs": [
        {
          "components": [
            {
              "internalType": "uint256",
              "name": "clubId",
              "type": "uint256"
            },
            {
              "internalType": "string",
              "name": "name",
              "type": "string"
            },
            {
              "internalType": "uint256",
              "name": "memberCount",
              "type": "uint256"
            },
            {
              "internalType": "uint256",
              "name": "proposalCount",
              "type": "uint256"
            },
            {
              "internalType": "uint256",
              "name": "pool",
              "type": "uint256"
            },
            {
              "internalType": "uint256",
              "name": "clubcreatedAt",
              "type": "uint256"
            },
            {
              "internalType": "uint256",
              "name": "clubexpireAt",
              "type": "uint256"
            },
            {
              "internalType": "string",
              "name": "CID",
              "type": "string"
            },
            {
              "internalType": "string",
              "name": "posdiverification",
              "type": "string"
            },
            {
              "internalType": "uint256",
              "name": "DealId",
              "type": "uint256"
            }
          ],
          "internalType": "struct InvestmentClub.ClubInfo[]",
          "name": "",
          "type": "tuple[]"
        }
      ],
      "stateMutability": "view",
      "type": "function"
    },
    {
      "inputs": [
        {
          "internalType": "uint256",
          "name": "clubId",
          "type": "uint256"
        },
        {
          "internalType": "uint256",
          "name": "proposalId",
          "type": "uint256"
        }
      ],
      "name": "proverifiydocs",
      "outputs": [],
      "stateMutability": "nonpayable",
      "type": "function"
    },
    {
      "inputs": [
        {
          "internalType": "uint256",
          "name": "clubId",
          "type": "uint256"
        }
      ],
      "name": "verifiydocs",
      "outputs": [],
      "stateMutability": "nonpayable",
      "type": "function"
    },
    {
      "inputs": [
        {
          "internalType": "uint256",
          "name": "clubId",
          "type": "uint256"
        },
        {
          "internalType": "uint256",
          "name": "proposalId",
          "type": "uint256"
        },
        {
          "internalType": "bool",
          "name": "vote",
          "type": "bool"
        }
      ],
      "name": "voteOnProposal",
      "outputs": [],
      "stateMutability": "nonpayable",
      "type": "function"
    }
  ],
  "bytecode": "0x608060405234801561001057600080fd5b506000600181905550614d06806100286000396000f3fe6080604052600436106101665760003560e01c8063647e598b116100d1578063ab7ca3481161008a578063e154274211610064578063e15427421461057a578063e7613ea8146105a3578063eec8e0db146105cc578063f9f2bb3c1461060957610166565b8063ab7ca348146104c3578063c3741fed14610500578063c46708781461053d57610166565b8063647e598b146103a55780636764fd48146103ce57806382b7661b1461040b578063890e24561461043457806389972a32146104715780639d9087b91461049a57610166565b806334fa3d831161012357806334fa3d831461028357806335a1930f146102c05780634d7f75c3146102fd578063549710be1461032657806354a2e233146103515780635ff847fb1461037a57610166565b8063058694a91461016b5780630ee29404146101a85780631063fd19146101e557806314204fc61461020e5780631ab767121461024b578063288509b414610267575b600080fd5b34801561017757600080fd5b50610192600480360381019061018d9190613355565b610646565b60405161019f91906136af565b60405180910390f35b3480156101b457600080fd5b506101cf60048036038101906101ca91906136fd565b610c48565b6040516101dc919061376b565b60405180910390f35b3480156101f157600080fd5b5061020c600480360381019061020791906138bb565b610cc7565b005b34801561021a57600080fd5b506102356004803603810190610230919061393e565b610d1a565b6040516102429190613b00565b60405180910390f35b6102656004803603810190610260919061393e565b6112ba565b005b610281600480360381019061027c9190613355565b6115cd565b005b34801561028f57600080fd5b506102aa60048036038101906102a59190613b22565b61177f565b6040516102b7919061376b565b60405180910390f35b3480156102cc57600080fd5b506102e760048036038101906102e29190613b62565b61182e565b6040516102f49190613be9565b60405180910390f35b34801561030957600080fd5b50610324600480360381019061031f9190613355565b6119f5565b005b34801561033257600080fd5b5061033b611b2f565b6040516103489190613dae565b60405180910390f35b34801561035d57600080fd5b5061037860048036038101906103739190613dfc565b611e15565b005b34801561038657600080fd5b5061038f6120ec565b60405161039c9190613dae565b60405180910390f35b3480156103b157600080fd5b506103cc60048036038101906103c79190613e4f565b6123b7565b005b3480156103da57600080fd5b506103f560048036038101906103f09190613355565b61241a565b604051610402919061376b565b60405180910390f35b34801561041757600080fd5b50610432600480360381019061042d9190613355565b61243c565b005b34801561044057600080fd5b5061045b60048036038101906104569190613b22565b6124ec565b6040516104689190613be9565b60405180910390f35b34801561047d57600080fd5b5061049860048036038101906104939190613eee565b612557565b005b3480156104a657600080fd5b506104c160048036038101906104bc919061393e565b612920565b005b3480156104cf57600080fd5b506104ea60048036038101906104e5919061393e565b61299d565b6040516104f7919061376b565b60405180910390f35b34801561050c57600080fd5b5061052760048036038101906105229190613355565b6129d8565b6040516105349190614089565b60405180910390f35b34801561054957600080fd5b50610564600480360381019061055f9190613355565b612c52565b604051610571919061376b565b60405180910390f35b34801561058657600080fd5b506105a1600480360381019061059c9190613355565b612c74565b005b3480156105af57600080fd5b506105ca60048036038101906105c5919061393e565b612e4b565b005b3480156105d857600080fd5b506105f360048036038101906105ee919061393e565b613082565b604051610600919061376b565b60405180910390f35b34801561061557600080fd5b50610630600480360381019061062b9190613355565b6130b9565b60405161063d919061376b565b60405180910390f35b60606106518261241a565b610690576040517f08c379a000000000000000000000000000000000000000000000000000000000815260040161068790614108565b60405180910390fd5b600080600084815260200190815260200160002090506000816008015467ffffffffffffffff8111156106c6576106c5613790565b5b6040519080825280602002602001820160405280156106ff57816020015b6106ec61316c565b8152602001906001900390816106e45790505b509050600080600190505b83600801548111610c3c5760008460070160008381526020019081526020016000209050604051806102000160405280826000015481526020018260010160009054906101000a900473ffffffffffffffffffffffffffffffffffffffff1673ffffffffffffffffffffffffffffffffffffffff168152602001826002015481526020018260030160009054906101000a900473ffffffffffffffffffffffffffffffffffffffff1673ffffffffffffffffffffffffffffffffffffffff1681526020018260040180546107dd90614157565b80601f016020809104026020016040519081016040528092919081815260200182805461080990614157565b80156108565780601f1061082b57610100808354040283529160200191610856565b820191906000526020600020905b81548152906001019060200180831161083957829003601f168201915b5050505050815260200182600501805461086f90614157565b80601f016020809104026020016040519081016040528092919081815260200182805461089b90614157565b80156108e85780601f106108bd576101008083540402835291602001916108e8565b820191906000526020600020905b8154815290600101906020018083116108cb57829003601f168201915b505050505081526020018260060154815260200182600701548152602001826008015481526020018260090154815260200182600a01805461092990614157565b80601f016020809104026020016040519081016040528092919081815260200182805461095590614157565b80156109a25780601f10610977576101008083540402835291602001916109a2565b820191906000526020600020905b81548152906001019060200180831161098557829003601f168201915b5050505050815260200182600b0180546109bb90614157565b80601f01602080910402602001604051908101604052809291908181526020018280546109e790614157565b8015610a345780601f10610a0957610100808354040283529160200191610a34565b820191906000526020600020905b815481529060010190602001808311610a1757829003601f168201915b5050505050815260200182600c018054610a4d90614157565b80601f0160208091040260200160405190810160405280929190818152602001828054610a7990614157565b8015610ac65780601f10610a9b57610100808354040283529160200191610ac6565b820191906000526020600020905b815481529060010190602001808311610aa957829003601f168201915b5050505050815260200182600d018054610adf90614157565b80601f0160208091040260200160405190810160405280929190818152602001828054610b0b90614157565b8015610b585780601f10610b2d57610100808354040283529160200191610b58565b820191906000526020600020905b815481529060010190602001808311610b3b57829003601f168201915b5050505050815260200182600e018054610b7190614157565b80601f0160208091040260200160405190810160405280929190818152602001828054610b9d90614157565b8015610bea5780601f10610bbf57610100808354040283529160200191610bea565b820191906000526020600020905b815481529060010190602001808311610bcd57829003601f168201915b5050505050815260200182600f0154815250848481518110610c0f57610c0e614189565b5b60200260200101819052508280610c25906141e7565b935050508080610c34906141e7565b91505061070a565b50819350505050919050565b6000806000838152602001908152602001600020600701600084815260200190815260200160002060100160008573ffffffffffffffffffffffffffffffffffffffff1673ffffffffffffffffffffffffffffffffffffffff16815260200190815260200160002060009054906101000a900460ff1690509392505050565b6000806000868152602001908152602001600020600701600085815260200190815260200160002090508281600f01819055508181600e019080519060200190610d12929190613215565b505050505050565b610d2261316c565b610d2b8361241a565b610d6a576040517f08c379a0000000000000000000000000000000000000000000000000000000008152600401610d619061427c565b60405180910390fd5b610d748284613082565b610db3576040517f08c379a0000000000000000000000000000000000000000000000000000000008152600401610daa906142e8565b60405180910390fd5b6000806000858152602001908152602001600020600701600084815260200190815260200160002090506000604051806102000160405280836000015481526020018360010160009054906101000a900473ffffffffffffffffffffffffffffffffffffffff1673ffffffffffffffffffffffffffffffffffffffff168152602001836002015481526020018360030160009054906101000a900473ffffffffffffffffffffffffffffffffffffffff1673ffffffffffffffffffffffffffffffffffffffff168152602001836004018054610e8e90614157565b80601f0160208091040260200160405190810160405280929190818152602001828054610eba90614157565b8015610f075780601f10610edc57610100808354040283529160200191610f07565b820191906000526020600020905b815481529060010190602001808311610eea57829003601f168201915b50505050508152602001836005018054610f2090614157565b80601f0160208091040260200160405190810160405280929190818152602001828054610f4c90614157565b8015610f995780601f10610f6e57610100808354040283529160200191610f99565b820191906000526020600020905b815481529060010190602001808311610f7c57829003601f168201915b505050505081526020018360060154815260200183600701548152602001836008015481526020018360090154815260200183600a018054610fda90614157565b80601f016020809104026020016040519081016040528092919081815260200182805461100690614157565b80156110535780601f1061102857610100808354040283529160200191611053565b820191906000526020600020905b81548152906001019060200180831161103657829003601f168201915b5050505050815260200183600b01805461106c90614157565b80601f016020809104026020016040519081016040528092919081815260200182805461109890614157565b80156110e55780601f106110ba576101008083540402835291602001916110e5565b820191906000526020600020905b8154815290600101906020018083116110c857829003601f168201915b5050505050815260200183600c0180546110fe90614157565b80601f016020809104026020016040519081016040528092919081815260200182805461112a90614157565b80156111775780601f1061114c57610100808354040283529160200191611177565b820191906000526020600020905b81548152906001019060200180831161115a57829003601f168201915b5050505050815260200183600d01805461119090614157565b80601f01602080910402602001604051908101604052809291908181526020018280546111bc90614157565b80156112095780601f106111de57610100808354040283529160200191611209565b820191906000526020600020905b8154815290600101906020018083116111ec57829003601f168201915b5050505050815260200183600e01805461122290614157565b80601f016020809104026020016040519081016040528092919081815260200182805461124e90614157565b801561129b5780601f106112705761010080835404028352916020019161129b565b820191906000526020600020905b81548152906001019060200180831161127e57829003601f168201915b5050505050815260200183600f01548152509050809250505092915050565b60008060008481526020019081526020016000209050600081600701600084815260200190815260200160002090506112f28461241a565b611331576040517f08c379a00000000000000000000000000000000000000000000000000000000081526004016113289061427c565b60405180910390fd5b61133b338561177f565b61137a576040517f08c379a000000000000000000000000000000000000000000000000000000000815260040161137190614354565b60405180910390fd5b6113848385613082565b6113c3576040517f08c379a00000000000000000000000000000000000000000000000000000000081526004016113ba906142e8565b60405180910390fd5b6113cd84846130df565b61140c576040517f08c379a0000000000000000000000000000000000000000000000000000000008152600401611403906143e6565b60405180910390fd5b806002015482600401541015611457576040517f08c379a000000000000000000000000000000000000000000000000000000000815260040161144e90614478565b60405180910390fd5b80600701548160060154116114a1576040517f08c379a00000000000000000000000000000000000000000000000000000000081526004016114989061450a565b60405180910390fd5b6114ab848461299d565b156114eb576040517f08c379a00000000000000000000000000000000000000000000000000000000081526004016114e29061459c565b60405180910390fd5b6040518060400160405280600881526020017f4578656375746564000000000000000000000000000000000000000000000000815250816004019080519060200190611538929190613215565b50806002015482600401600082825461155191906145bc565b925050819055508060030160009054906101000a900473ffffffffffffffffffffffffffffffffffffffff1673ffffffffffffffffffffffffffffffffffffffff166108fc82600201549081150290604051600060405180830381858888f193505050501580156115c6573d6000803e3d6000fd5b5050505050565b6115d68161241a565b611615576040517f08c379a000000000000000000000000000000000000000000000000000000000815260040161160c9061427c565b60405180910390fd5b60008060008381526020019081526020016000209050611635338361177f565b611674576040517f08c379a000000000000000000000000000000000000000000000000000000000815260040161166b90614354565b60405180910390fd5b600034116116b7576040517f08c379a00000000000000000000000000000000000000000000000000000000081526004016116ae90614662565b60405180910390fd5b6116c0826130b9565b6116ff576040517f08c379a00000000000000000000000000000000000000000000000000000000081526004016116f6906146ce565b60405180910390fd5b60008160020160003373ffffffffffffffffffffffffffffffffffffffff1673ffffffffffffffffffffffffffffffffffffffff16815260200190815260200160002090503481600101600082825461175891906146ee565b925050819055503482600401600082825461177391906146ee565b92505081905550505050565b60008073ffffffffffffffffffffffffffffffffffffffff1660008084815260200190815260200160002060020160008573ffffffffffffffffffffffffffffffffffffffff1673ffffffffffffffffffffffffffffffffffffffff16815260200190815260200160002060000160009054906101000a900473ffffffffffffffffffffffffffffffffffffffff1673ffffffffffffffffffffffffffffffffffffffff161415905092915050565b6000806001805461183f91906146ee565b90506000806000838152602001908152602001600020905081816000018190555084816001019080519060200190611878929190613215565b5060008160040181905550600081600801819055506001816003018190555042816005018190555060b4426118ad91906146ee565b8160060181905550838160090190805190602001906118cd929190613215565b506040518060400160405280600b81526020017f556e2d566572696669656400000000000000000000000000000000000000000081525081600a01908051906020019061191b929190613215565b50600060405180604001604052803373ffffffffffffffffffffffffffffffffffffffff16815260200160008152509050808260020160003373ffffffffffffffffffffffffffffffffffffffff1673ffffffffffffffffffffffffffffffffffffffff16815260200190815260200160002060008201518160000160006101000a81548173ffffffffffffffffffffffffffffffffffffffff021916908373ffffffffffffffffffffffffffffffffffffffff160217905550602082015181600101559050508260018190555082935050505092915050565b6119fe8161241a565b611a3d576040517f08c379a0000000000000000000000000000000000000000000000000000000008152600401611a349061427c565b60405180910390fd5b60008060008381526020019081526020016000209050611a5d338361177f565b611a9c576040517f08c379a0000000000000000000000000000000000000000000000000000000008152600401611a9390614354565b60405180910390fd5b6001816003016000828254611ab191906145bc565b925050819055508060020160003373ffffffffffffffffffffffffffffffffffffffff1673ffffffffffffffffffffffffffffffffffffffff168152602001908152602001600020600080820160006101000a81549073ffffffffffffffffffffffffffffffffffffffff0219169055600182016000905550505050565b6060600060015467ffffffffffffffff811115611b4f57611b4e613790565b5b604051908082528060200260200182016040528015611b8857816020015b611b7561329b565b815260200190600190039081611b6d5790505b509050600080600190505b6001548111611e0c5760008060008381526020019081526020016000209050611bc033826000015461177f565b15611df85760405180610140016040528082600001548152602001826001018054611bea90614157565b80601f0160208091040260200160405190810160405280929190818152602001828054611c1690614157565b8015611c635780601f10611c3857610100808354040283529160200191611c63565b820191906000526020600020905b815481529060010190602001808311611c4657829003601f168201915b505050505081526020018260030154815260200182600801548152602001826004015481526020018260050154815260200182600601548152602001826009018054611cae90614157565b80601f0160208091040260200160405190810160405280929190818152602001828054611cda90614157565b8015611d275780601f10611cfc57610100808354040283529160200191611d27565b820191906000526020600020905b815481529060010190602001808311611d0a57829003601f168201915b5050505050815260200182600a018054611d4090614157565b80601f0160208091040260200160405190810160405280929190818152602001828054611d6c90614157565b8015611db95780601f10611d8e57610100808354040283529160200191611db9565b820191906000526020600020905b815481529060010190602001808311611d9c57829003601f168201915b5050505050815260200182600b0154815250848481518110611dde57611ddd614189565b5b60200260200101819052508280611df4906141e7565b9350505b508080611e04906141e7565b915050611b93565b50819250505090565b611e1e8361241a565b611e5d576040517f08c379a0000000000000000000000000000000000000000000000000000000008152600401611e549061427c565b60405180910390fd5b611e67838361299d565b611ea6576040517f08c379a0000000000000000000000000000000000000000000000000000000008152600401611e9d90614790565b60405180910390fd5b60008060008581526020019081526020016000209050611ec6338561177f565b611f05576040517f08c379a0000000000000000000000000000000000000000000000000000000008152600401611efc90614354565b60405180910390fd5b611f0f8385613082565b611f4e576040517f08c379a0000000000000000000000000000000000000000000000000000000008152600401611f45906142e8565b60405180910390fd5b60008160070160008581526020019081526020016000209050611f72338587610c48565b15611fb2576040517f08c379a0000000000000000000000000000000000000000000000000000000008152600401611fa990614822565b60405180910390fd5b6040518060400160405280600781526020017f50656e64696e6700000000000000000000000000000000000000000000000000815250805190602001208160040160405161200091906148e1565b604051809103902014612048576040517f08c379a000000000000000000000000000000000000000000000000000000000815260040161203f9061496a565b60405180910390fd5b828160100160003373ffffffffffffffffffffffffffffffffffffffff1673ffffffffffffffffffffffffffffffffffffffff16815260200190815260200160002060006101000a81548160ff02191690831515021790555082156120c85760018160060160008282546120bc91906146ee565b925050819055506120e5565b60018160070160008282546120dd91906146ee565b925050819055505b5050505050565b6060600060015467ffffffffffffffff81111561210c5761210b613790565b5b60405190808252806020026020018201604052801561214557816020015b61213261329b565b81526020019060019003908161212a5790505b50905060005b6001548110156123af57600080600060018461216791906146ee565b815260200190815260200160002090506040518061014001604052808260000154815260200182600101805461219c90614157565b80601f01602080910402602001604051908101604052809291908181526020018280546121c890614157565b80156122155780601f106121ea57610100808354040283529160200191612215565b820191906000526020600020905b8154815290600101906020018083116121f857829003601f168201915b50505050508152602001826003015481526020018260050154815260200182600601548152602001826008015481526020018260040154815260200182600901805461226090614157565b80601f016020809104026020016040519081016040528092919081815260200182805461228c90614157565b80156122d95780601f106122ae576101008083540402835291602001916122d9565b820191906000526020600020905b8154815290600101906020018083116122bc57829003601f168201915b5050505050815260200182600a0180546122f290614157565b80601f016020809104026020016040519081016040528092919081815260200182805461231e90614157565b801561236b5780601f106123405761010080835404028352916020019161236b565b820191906000526020600020905b81548152906001019060200180831161234e57829003601f168201915b5050505050815260200182600b01548152508383815181106123905761238f614189565b5b60200260200101819052505080806123a7906141e7565b91505061214b565b508091505090565b6000806000868152602001908152602001600020600701600085815260200190815260200160002090508281600b0190805190602001906123f9929190613215565b508181600c019080519060200190612412929190613215565b505050505050565b6000806000808481526020019081526020016000206000015414159050919050565b6124458161241a565b612484576040517f08c379a000000000000000000000000000000000000000000000000000000000815260040161247b906149d6565b60405180910390fd5b600080600083815260200190815260200160002090506040518060400160405280600881526020017f566572696669656400000000000000000000000000000000000000000000000081525081600a0190805190602001906124e7929190613215565b505050565b600080600080848152602001908152602001600020905060008160020160008673ffffffffffffffffffffffffffffffffffffffff1673ffffffffffffffffffffffffffffffffffffffff168152602001908152602001600020905080600101549250505092915050565b6125608561241a565b61259f576040517f08c379a00000000000000000000000000000000000000000000000000000000081526004016125969061427c565b60405180910390fd5b600080600087815260200190815260200160002090506125bf338761177f565b6125fe576040517f08c379a00000000000000000000000000000000000000000000000000000000081526004016125f590614354565b60405180910390fd5b60008511612641576040517f08c379a000000000000000000000000000000000000000000000000000000000815260040161263890614a68565b60405180910390fd5b60006001826008015461265491906146ee565b9050600080600089815260200190815260200160002060070160008381526020019081526020016000209050818160000181905550338160010160006101000a81548173ffffffffffffffffffffffffffffffffffffffff021916908373ffffffffffffffffffffffffffffffffffffffff160217905550868160020181905550858160030160006101000a81548173ffffffffffffffffffffffffffffffffffffffff021916908373ffffffffffffffffffffffffffffffffffffffff1602179055506040518060400160405280600781526020017f50656e64696e6700000000000000000000000000000000000000000000000000815250816004019080519060200190612765929190613215565b508481600501908051906020019061277e929190613215565b50600081600601819055506000816007018190555042816008018190555061012c426127aa91906146ee565b81600901819055508381600a0190805190602001906127ca929190613215565b506040518060400160405280600a81526020017f494e2050726f636573730000000000000000000000000000000000000000000081525081600b019080519060200190612818929190613215565b506040518060400160405280600a81526020017f494e2d50726f636573730000000000000000000000000000000000000000000081525081600c019080519060200190612866929190613215565b50600081600f01819055506040518060400160405280600a81526020017f494e2d50726f636573730000000000000000000000000000000000000000000081525081600e0190805190602001906128be929190613215565b506040518060400160405280600b81526020017f556e2d566572696669656400000000000000000000000000000000000000000081525081600d01908051906020019061290c929190613215565b508183600801819055505050505050505050565b6000806000848152602001908152602001600020600701600083815260200190815260200160002090506040518060400160405280600881526020017f566572696669656400000000000000000000000000000000000000000000000081525081600d019080519060200190612997929190613215565b50505050565b600080600080858152602001908152602001600020600701600084815260200190815260200160002090504281600901541191505092915050565b6129e061329b565b6129e98261241a565b612a28576040517f08c379a0000000000000000000000000000000000000000000000000000000008152600401612a1f9061427c565b60405180910390fd5b60008060008481526020019081526020016000209050600060405180610140016040528083600001548152602001836001018054612a6590614157565b80601f0160208091040260200160405190810160405280929190818152602001828054612a9190614157565b8015612ade5780601f10612ab357610100808354040283529160200191612ade565b820191906000526020600020905b815481529060010190602001808311612ac157829003601f168201915b505050505081526020018360030154815260200183600801548152602001836004015481526020018360050154815260200183600601548152602001836009018054612b2990614157565b80601f0160208091040260200160405190810160405280929190818152602001828054612b5590614157565b8015612ba25780601f10612b7757610100808354040283529160200191612ba2565b820191906000526020600020905b815481529060010190602001808311612b8557829003601f168201915b5050505050815260200183600a018054612bbb90614157565b80601f0160208091040260200160405190810160405280929190818152602001828054612be790614157565b8015612c345780601f10612c0957610100808354040283529160200191612c34565b820191906000526020600020905b815481529060010190602001808311612c1757829003601f168201915b5050505050815260200183600b015481525090508092505050919050565b6000606360008084815260200190815260200160002060030154109050919050565b612c7d8161241a565b612cbc576040517f08c379a0000000000000000000000000000000000000000000000000000000008152600401612cb3906149d6565b60405180910390fd5b60008060008381526020019081526020016000209050612cdb82612c52565b612d1a576040517f08c379a0000000000000000000000000000000000000000000000000000000008152600401612d1190614afa565b60405180910390fd5b612d24338361177f565b15612d64576040517f08c379a0000000000000000000000000000000000000000000000000000000008152600401612d5b90614b8c565b60405180910390fd5b600060405180604001604052803373ffffffffffffffffffffffffffffffffffffffff16815260200160008152509050808260020160003373ffffffffffffffffffffffffffffffffffffffff1673ffffffffffffffffffffffffffffffffffffffff16815260200190815260200160002060008201518160000160006101000a81548173ffffffffffffffffffffffffffffffffffffffff021916908373ffffffffffffffffffffffffffffffffffffffff160217905550602082015181600101559050506001826003016000828254612e3f91906146ee565b92505081905550505050565b612e548261241a565b612e93576040517f08c379a0000000000000000000000000000000000000000000000000000000008152600401612e8a9061427c565b60405180910390fd5b612e9d8183613082565b612edc576040517f08c379a0000000000000000000000000000000000000000000000000000000008152600401612ed3906142e8565b60405180910390fd5b612ee6828261299d565b15612f26576040517f08c379a0000000000000000000000000000000000000000000000000000000008152600401612f1d9061459c565b60405180910390fd5b6000806000848152602001908152602001600020600701600083815260200190815260200160002090506040518060400160405280600781526020017f50656e64696e67000000000000000000000000000000000000000000000000008152508051906020012081600401604051612f9e91906148e1565b604051809103902014612fe6576040517f08c379a0000000000000000000000000000000000000000000000000000000008152600401612fdd90614c1e565b60405180910390fd5b612ff083836130df565b61302f576040517f08c379a000000000000000000000000000000000000000000000000000000000815260040161302690614cb0565b60405180910390fd5b6040518060400160405280600681526020017f436c6f736564000000000000000000000000000000000000000000000000000081525081600401908051906020019061307c929190613215565b50505050565b6000806000808481526020019081526020016000206007016000858152602001908152602001600020600001541415905092915050565b600080600080848152602001908152602001600020905042816006015411915050919050565b6000806000808581526020019081526020016000209050600081600701600085815260200190815260200160002090508060010160009054906101000a900473ffffffffffffffffffffffffffffffffffffffff1673ffffffffffffffffffffffffffffffffffffffff163373ffffffffffffffffffffffffffffffffffffffff16149250505092915050565b60405180610200016040528060008152602001600073ffffffffffffffffffffffffffffffffffffffff16815260200160008152602001600073ffffffffffffffffffffffffffffffffffffffff1681526020016060815260200160608152602001600081526020016000815260200160008152602001600081526020016060815260200160608152602001606081526020016060815260200160608152602001600081525090565b82805461322190614157565b90600052602060002090601f016020900481019282613243576000855561328a565b82601f1061325c57805160ff191683800117855561328a565b8280016001018555821561328a579182015b8281111561328957825182559160200191906001019061326e565b5b50905061329791906132ee565b5090565b604051806101400160405280600081526020016060815260200160008152602001600081526020016000815260200160008152602001600081526020016060815260200160608152602001600081525090565b5b808211156133075760008160009055506001016132ef565b5090565b6000604051905090565b600080fd5b600080fd5b6000819050919050565b6133328161331f565b811461333d57600080fd5b50565b60008135905061334f81613329565b92915050565b60006020828403121561336b5761336a613315565b5b600061337984828501613340565b91505092915050565b600081519050919050565b600082825260208201905092915050565b6000819050602082019050919050565b6133b78161331f565b82525050565b600073ffffffffffffffffffffffffffffffffffffffff82169050919050565b60006133e8826133bd565b9050919050565b6133f8816133dd565b82525050565b600081519050919050565b600082825260208201905092915050565b60005b8381101561343857808201518184015260208101905061341d565b83811115613447576000848401525b50505050565b6000601f19601f8301169050919050565b6000613469826133fe565b6134738185613409565b935061348381856020860161341a565b61348c8161344d565b840191505092915050565b6000610200830160008301516134b060008601826133ae565b5060208301516134c360208601826133ef565b5060408301516134d660408601826133ae565b5060608301516134e960608601826133ef565b5060808301518482036080860152613501828261345e565b91505060a083015184820360a086015261351b828261345e565b91505060c083015161353060c08601826133ae565b5060e083015161354360e08601826133ae565b506101008301516135586101008601826133ae565b5061012083015161356d6101208601826133ae565b50610140830151848203610140860152613587828261345e565b9150506101608301518482036101608601526135a3828261345e565b9150506101808301518482036101808601526135bf828261345e565b9150506101a08301518482036101a08601526135db828261345e565b9150506101c08301518482036101c08601526135f7828261345e565b9150506101e083015161360e6101e08601826133ae565b508091505092915050565b60006136258383613497565b905092915050565b6000602082019050919050565b600061364582613382565b61364f818561338d565b9350836020820285016136618561339e565b8060005b8581101561369d578484038952815161367e8582613619565b94506136898361362d565b925060208a01995050600181019050613665565b50829750879550505050505092915050565b600060208201905081810360008301526136c9818461363a565b905092915050565b6136da816133dd565b81146136e557600080fd5b50565b6000813590506136f7816136d1565b92915050565b60008060006060848603121561371657613715613315565b5b6000613724868287016136e8565b935050602061373586828701613340565b925050604061374686828701613340565b9150509250925092565b60008115159050919050565b61376581613750565b82525050565b6000602082019050613780600083018461375c565b92915050565b600080fd5b600080fd5b7f4e487b7100000000000000000000000000000000000000000000000000000000600052604160045260246000fd5b6137c88261344d565b810181811067ffffffffffffffff821117156137e7576137e6613790565b5b80604052505050565b60006137fa61330b565b905061380682826137bf565b919050565b600067ffffffffffffffff82111561382657613825613790565b5b61382f8261344d565b9050602081019050919050565b82818337600083830152505050565b600061385e6138598461380b565b6137f0565b90508281526020810184848401111561387a5761387961378b565b5b61388584828561383c565b509392505050565b600082601f8301126138a2576138a1613786565b5b81356138b284826020860161384b565b91505092915050565b600080600080608085870312156138d5576138d4613315565b5b60006138e387828801613340565b94505060206138f487828801613340565b935050604061390587828801613340565b925050606085013567ffffffffffffffff8111156139265761392561331a565b5b6139328782880161388d565b91505092959194509250565b6000806040838503121561395557613954613315565b5b600061396385828601613340565b925050602061397485828601613340565b9150509250929050565b60006102008301600083015161399760008601826133ae565b5060208301516139aa60208601826133ef565b5060408301516139bd60408601826133ae565b5060608301516139d060608601826133ef565b50608083015184820360808601526139e8828261345e565b91505060a083015184820360a0860152613a02828261345e565b91505060c0830151613a1760c08601826133ae565b5060e0830151613a2a60e08601826133ae565b50610100830151613a3f6101008601826133ae565b50610120830151613a546101208601826133ae565b50610140830151848203610140860152613a6e828261345e565b915050610160830151848203610160860152613a8a828261345e565b915050610180830151848203610180860152613aa6828261345e565b9150506101a08301518482036101a0860152613ac2828261345e565b9150506101c08301518482036101c0860152613ade828261345e565b9150506101e0830151613af56101e08601826133ae565b508091505092915050565b60006020820190508181036000830152613b1a818461397e565b905092915050565b60008060408385031215613b3957613b38613315565b5b6000613b47858286016136e8565b9250506020613b5885828601613340565b9150509250929050565b60008060408385031215613b7957613b78613315565b5b600083013567ffffffffffffffff811115613b9757613b9661331a565b5b613ba38582860161388d565b925050602083013567ffffffffffffffff811115613bc457613bc361331a565b5b613bd08582860161388d565b9150509250929050565b613be38161331f565b82525050565b6000602082019050613bfe6000830184613bda565b92915050565b600081519050919050565b600082825260208201905092915050565b6000819050602082019050919050565b600061014083016000830151613c4960008601826133ae565b5060208301518482036020860152613c61828261345e565b9150506040830151613c7660408601826133ae565b506060830151613c8960608601826133ae565b506080830151613c9c60808601826133ae565b5060a0830151613caf60a08601826133ae565b5060c0830151613cc260c08601826133ae565b5060e083015184820360e0860152613cda828261345e565b915050610100830151848203610100860152613cf6828261345e565b915050610120830151613d0d6101208601826133ae565b508091505092915050565b6000613d248383613c30565b905092915050565b6000602082019050919050565b6000613d4482613c04565b613d4e8185613c0f565b935083602082028501613d6085613c20565b8060005b85811015613d9c5784840389528151613d7d8582613d18565b9450613d8883613d2c565b925060208a01995050600181019050613d64565b50829750879550505050505092915050565b60006020820190508181036000830152613dc88184613d39565b905092915050565b613dd981613750565b8114613de457600080fd5b50565b600081359050613df681613dd0565b92915050565b600080600060608486031215613e1557613e14613315565b5b6000613e2386828701613340565b9350506020613e3486828701613340565b9250506040613e4586828701613de7565b9150509250925092565b60008060008060808587031215613e6957613e68613315565b5b6000613e7787828801613340565b9450506020613e8887828801613340565b935050604085013567ffffffffffffffff811115613ea957613ea861331a565b5b613eb58782880161388d565b925050606085013567ffffffffffffffff811115613ed657613ed561331a565b5b613ee28782880161388d565b91505092959194509250565b600080600080600060a08688031215613f0a57613f09613315565b5b6000613f1888828901613340565b9550506020613f2988828901613340565b9450506040613f3a888289016136e8565b935050606086013567ffffffffffffffff811115613f5b57613f5a61331a565b5b613f678882890161388d565b925050608086013567ffffffffffffffff811115613f8857613f8761331a565b5b613f948882890161388d565b9150509295509295909350565b600061014083016000830151613fba60008601826133ae565b5060208301518482036020860152613fd2828261345e565b9150506040830151613fe760408601826133ae565b506060830151613ffa60608601826133ae565b50608083015161400d60808601826133ae565b5060a083015161402060a08601826133ae565b5060c083015161403360c08601826133ae565b5060e083015184820360e086015261404b828261345e565b915050610100830151848203610100860152614067828261345e565b91505061012083015161407e6101208601826133ae565b508091505092915050565b600060208201905081810360008301526140a38184613fa1565b905092915050565b600082825260208201905092915050565b7f436c756220646f6573206e6f7420657869737400000000000000000000000000600082015250565b60006140f26013836140ab565b91506140fd826140bc565b602082019050919050565b60006020820190508181036000830152614121816140e5565b9050919050565b7f4e487b7100000000000000000000000000000000000000000000000000000000600052602260045260246000fd5b6000600282049050600182168061416f57607f821691505b6020821081141561418357614182614128565b5b50919050565b7f4e487b7100000000000000000000000000000000000000000000000000000000600052603260045260246000fd5b7f4e487b7100000000000000000000000000000000000000000000000000000000600052601160045260246000fd5b60006141f28261331f565b91507fffffffffffffffffffffffffffffffffffffffffffffffffffffffffffffffff821415614225576142246141b8565b5b600182019050919050565b7f74686520636c756220646f6573206e6f74206578697374000000000000000000600082015250565b60006142666017836140ab565b915061427182614230565b602082019050919050565b6000602082019050818103600083015261429581614259565b9050919050565b7f5468652070726f706f73616c20646f6573206e6f742065786973740000000000600082015250565b60006142d2601b836140ab565b91506142dd8261429c565b602082019050919050565b60006020820190508181036000830152614301816142c5565b9050919050565b7f596f7520617265206e6f742061206d656d626572206f662074686520636c7562600082015250565b600061433e6020836140ab565b915061434982614308565b602082019050919050565b6000602082019050818103600083015261436d81614331565b9050919050565b7f4f6e6c79207468652063726561746f72206f66207468652070726f706f73616c60008201527f2063616e20657865637574652069740000000000000000000000000000000000602082015250565b60006143d0602f836140ab565b91506143db82614374565b604082019050919050565b600060208201905081810360008301526143ff816143c3565b9050919050565b7f54686520616d6f756e7420657863656564732074686520706f6f6c206f66207460008201527f686520636c756200000000000000000000000000000000000000000000000000602082015250565b60006144626027836140ab565b915061446d82614406565b604082019050919050565b6000602082019050818103600083015261449181614455565b9050919050565b7f5468652070726f706f73616c20686173206e6f74206265656e20617070726f7660008201527f6564000000000000000000000000000000000000000000000000000000000000602082015250565b60006144f46022836140ab565b91506144ff82614498565b604082019050919050565b60006020820190508181036000830152614523816144e7565b9050919050565b7f596f752063616e2774206265666f72652074686520566f74696e67206465616460008201527f6c696e6500000000000000000000000000000000000000000000000000000000602082015250565b60006145866024836140ab565b91506145918261452a565b604082019050919050565b600060208201905081810360008301526145b581614579565b9050919050565b60006145c78261331f565b91506145d28361331f565b9250828210156145e5576145e46141b8565b5b828203905092915050565b7f596f75206d7573742073656e642045564d4f5320746f20636f6e74726962757460008201527f6500000000000000000000000000000000000000000000000000000000000000602082015250565b600061464c6021836140ab565b9150614657826145f0565b604082019050919050565b6000602082019050818103600083015261467b8161463f565b9050919050565b7f436c756220697320636c6f736564000000000000000000000000000000000000600082015250565b60006146b8600e836140ab565b91506146c382614682565b602082019050919050565b600060208201905081810360008301526146e7816146ab565b9050919050565b60006146f98261331f565b91506147048361331f565b9250827fffffffffffffffffffffffffffffffffffffffffffffffffffffffffffffffff03821115614739576147386141b8565b5b828201905092915050565b7f566f74696e6720506572696f642046696e697368656400000000000000000000600082015250565b600061477a6016836140ab565b915061478582614744565b602082019050919050565b600060208201905081810360008301526147a98161476d565b9050919050565b7f596f75206861766520616c726561647920766f746564206f6e2074686973207060008201527f726f706f73616c00000000000000000000000000000000000000000000000000602082015250565b600061480c6027836140ab565b9150614817826147b0565b604082019050919050565b6000602082019050818103600083015261483b816147ff565b9050919050565b600081905092915050565b60008190508160005260206000209050919050565b6000815461486f81614157565b6148798186614842565b9450600182166000811461489457600181146148a5576148d8565b60ff198316865281860193506148d8565b6148ae8561484d565b60005b838110156148d0578154818901526001820191506020810190506148b1565b838801955050505b50505092915050565b60006148ed8284614862565b915081905092915050565b7f5468652070726f706f73616c206973206e6f206c6f6e6765722070656e64696e60008201527f6700000000000000000000000000000000000000000000000000000000000000602082015250565b60006149546021836140ab565b915061495f826148f8565b604082019050919050565b6000602082019050818103600083015261498381614947565b9050919050565b7f54686520636c756220646f6573206e6f74206578697374000000000000000000600082015250565b60006149c06017836140ab565b91506149cb8261498a565b602082019050919050565b600060208201905081810360008301526149ef816149b3565b9050919050565b7f54686520616d6f756e74206f66207468652070726f706f73616c206d7573742060008201527f62652067726561746572207468616e2030000000000000000000000000000000602082015250565b6000614a526031836140ab565b9150614a5d826149f6565b604082019050919050565b60006020820190508181036000830152614a8181614a45565b9050919050565b7f54686520636c75622069732066756c6c2c206e6f206d6f7265206d656d62657260008201527f732063616e206265206164646564000000000000000000000000000000000000602082015250565b6000614ae4602e836140ab565b9150614aef82614a88565b604082019050919050565b60006020820190508181036000830152614b1381614ad7565b9050919050565b7f596f752061726520616c72656164792061206d656d626572206f66207468652060008201527f636c756200000000000000000000000000000000000000000000000000000000602082015250565b6000614b766024836140ab565b9150614b8182614b1a565b604082019050919050565b60006020820190508181036000830152614ba581614b69565b9050919050565b7f5468652070726f706f73616c206973206e6f7420696e2070656e64696e67207360008201527f7461747573000000000000000000000000000000000000000000000000000000602082015250565b6000614c086025836140ab565b9150614c1382614bac565b604082019050919050565b60006020820190508181036000830152614c3781614bfb565b9050919050565b7f4f6e6c79207468652070726f706f73616c2063726561746f722063616e20636c60008201527f6f7365207468652070726f706f73616c00000000000000000000000000000000602082015250565b6000614c9a6030836140ab565b9150614ca582614c3e565b604082019050919050565b60006020820190508181036000830152614cc981614c8d565b905091905056fea2646970667358221220b391595e369b6fbf4984665d6ed97e57e79c45e2f2ec0cac99c9ddc60c9830a964736f6c634300080a0033",
  "linkReferences": {},
  "deployedLinkReferences": {}
}